:020000022000DC
:1070000000F003206D7302005573020057730200F5
:10701000597302005B7302005D7302000000000000
:107020000000000000000000000000005F7302008C
:1070300061730200000000006373020065730200C8
:1070400067730200677302006773020067730200D0
:1070500067730200677302006773020067730200C0
:107060006773020067730200514D040067730200EA
:1070700067730200677302006773020067730200A0
:1070800067730200353F0500490A03006773020079
:10709000A53F050067730200E99C040067730200C6
:1070A0006773020067730200677302006773020070
:1070B0006773020067730200000000000000000018
:1070C0006773020067730200677302006773020050
:1070D0006773020067730200677302006773020040
:1070E000677302006773020067730200000000000C
:1070F00000000000677302000000000067730200D8
:10710000000000000000000000000000000000007F
:10711000000000000000000000000000000000006F
:10712000000000000000000000000000000000005F
:10713000000000000000000000000000000000004F
:10714000000000000000000000000000000000003F
:10715000000000000000000000000000000000002F
:10716000000000000000000000000000000000001F
:10717000000000000000000000000000000000000F
:1071800000000000000000000000000000000000FF
:1071900000000000000000000000000000000000EF
:1071A00000000000000000000000000000000000DF
:1071B00000000000000000000000000000000000CF
:1071C00000000000000000000000000000000000BF
:1071D00000000000000000000000000000000000AF
:1071E000000000000000000000000000000000009F
:1071F000000000000000000000000000000000008F
:10720000344935480A1A02D0072291438D46334942
:1072100033480A1A06D00722914381F309880222D3
:1072200082F314882F483049304A00F042F8304841
:107230003049314A00F03DF830483149314A00F0D8
:1072400038F831483149324A00F033F83148324990
:10725000324A00F02EF832483249334A00F029F819
:1072600032483349334A00F024F833483349002286
:1072700000F02AF832483349002200F025F832485D
:107280003249091A082902DB0022026041601F48C6
:107290001F49884205D00268043003B4904703BCFC
:1072A000F7E700208646EC4600200021284A904758
:1072B000FEE7884207D0521A05D0037801300B70E0
:1072C0000131013AF9D17047884202D00270013091
:1072D000FAE7704700F0032000E8032000F00320E5
:1072E00000F00320E0670500002E00207C2E002027
:1072F000A0730200A073020062470500E06705006A
:10730000002E0020002E0020B44A0500B44A0500DB
:10731000B44A0500B44A0500B44A0500B44A050061
:10732000B44A0500B44A0500E06705005C68050042
:107330007C2E00207C2E00207C2E0020995A0020DC
:107340009C5A00209C5A00209C5A00209C5E0020E1
:1073500085930200FEE7FEE7FEE7FEE7FEE7FEE7B5
:10736000FEE7FEE7FEE7FEE700F002B8FFF7FCBF2E
:1073700008484FF00701884385460748804707487B
:10738000016841F470010160BFF34F8FBFF36F8F4D
:10739000FFF736BF00F0032049A3040088ED00E0AA
:1073A00000B585B00190019B1B781C2B11D10B4BB4
:1073B0001B78002B0DD022F02DFC0390039B002B9B
:1073C00004D0074A5E21039823F09CF9054807F092
:1073D000E2FB00BF05B05DF804FB00BF7C2E00207F
:1073E000B44A0500002E002000B591B0034600917C
:1073F0008DF807304A4B1B7883F00103DBB2002B7A
:1074000040F086809DF80730012B02D0032B71D00D
:1074100083E00023069306AB1946012022F004F90D
:107420000D900D9B0C930C9B002B04D03D4A7221B8
:107430000C9823F067F906AB184622F083F90D90FB
:107440000D9B0B930B9B002B04D0364A75210B9898
:1074500023F058F90123049304AA0DF116031146F1
:1074600018461BF0B5FD0A900A9B002B04D02D4A4C
:107470007D210A9823F046F9BDF8163018461BF016
:10748000FBF803461A460DF10F03194610461BF090
:1074900001FB0990099B002B04D0224A7E21099808
:1074A00023F030F913F078FB9DF80F3019460020D7
:1074B00013F00AFD0346002B04D07B46089308987E
:1074C00000F0ECFF07F0BEFA0D900D9B0793079BB1
:1074D000002B04D0134A8E21079823F013F9104B88
:1074E00000221A70104B1B68002B13D00E4B1B6828
:1074F00098470FE022F03AFB0F900F9B0E930E9BE4
:10750000002B09D0074A9B210E9823F0FBF803E0DB
:1075100000BF02E000BF00E000BF11B05DF804FB57
:107520007C2E0020B44A05009830002000B583B0BE
:107530000A4B01221A700A4807F023FB07F0F4FAFD
:107540000190019B002B04D0064AAE21019823F044
:10755000D9F800BF03B05DF804FB00BF7C2E00200B
:10756000002E0020B44A050000B583B0002301932B
:1075700001230193019B43F0020301930A490B4845
:1075800024F0B8F80090009B002B01D0009B07E08E
:10759000074B1969019B0022064824F0B8F80346FE
:1075A000184603B05DF804FB24320020E4310020CB
:1075B00098300020B030002000B585B00190019BCC
:1075C0001B78023B082B73D801A252F823F000BFAE
:1075D00037760200F575020019760200B1760200D6
:1075E000B176020065760200B1760200B176020043
:1075F00087760200344B5B68002B5BD0019B1B7AC3
:10760000002B57D0314B01221A702F4B5B68019A27
:10761000127A104698474DE02B4B9B68002B4BD0BD
:107620002A4B1B78002B47D0284B00221A70264B80
:107630009B68984740E0264B1B7883F00103DBB240
:10764000002B0CD0204BDB68002B05D01F4B0022F9
:107650001A701D4BDB689847FFF786FF2FE0FFF796
:1076600065FF2CE0184B5B6910221946194824F07D
:10767000E6F80290029B002B20D0174AF5210298D1
:1076800023F040F81AE0019BDA68019B9B681946D9
:10769000104610F0DDFD0390039B002B04D00E4A32
:1076A000FB21039823F02EF8094B01221A7006E003
:1076B00000BF04E000BF02E000BF00E000BF00BF69
:1076C00005B05DF804FB00BF983000204532002073
:1076D00044320020B0300020B44A050030B58DB0EF
:1076E0000390284A05AB07CA03C31A800233120C61
:1076F0001A70254A039B14461D460FCD0FC495E80A
:10770000030084E80300204B5B69002B01D10723B1
:1077100035E005AB1D4A00921D4A1E491E4823F064
:1077200062FF0B900B9B002B01D00B9B27E01B48AB
:1077300026F03EFC03461946174823F0B3FF0A9093
:107740000A9B002B01D00A9B19E0154826F0CAFEBF
:107750000990099B002B01D0099B10E0104826F0EE
:1077600003FF034619460C4823F09CFF0890089B32
:10777000002B01D0089B02E0FFF7F6FE03461846F7
:107780000DB030BD084B050098300020B9750200DF
:1077900024320020E4310020B0300020D02E002020
:1077A000802E002000B585B001900A4B1B68002B8D
:1077B0000BD01FF01BF90390039B002B04DB054B40
:1077C0001B6803989847F4E700BF00BF05B05DF859
:1077D00004FB00BF48320020F0B587B0039002914F
:1077E000224A039B1360224A012122482CF01CFCF0
:1077F0000590059B002B04D01F4A4A21059822F0D2
:1078000081FF1E4B0193029B1A464FF00003550C5B
:10781000D40341F26F724FF00003AB4208BFA242A3
:1078200011D2029B1A464FF00003570CD6034FF4B7
:107830007A724FF00003304639462CF091FD024633
:107840000B46134600E005230022194601982CF050
:107850001BFC0490049B002B04D0074A4B21049886
:1078600022F050FF00BF07B0F0BD00BF483200203B
:10787000A5770200144B0500184B05004C32002080
:1078800000B585B001901D4B1B68002B14BF012370
:107890000023DBB20393039B002B04D1184A64211D
:1078A000002022F02FFF4FF0A043D3F80425154B02
:1078B0001B684FF0A0415340C1F804350F4B1B68C3
:1078C000013B0E4A13600D4B1B68002B12D10E4B6F
:1078D00018462CF00FFC4FF0A043D3F80425094BB9
:1078E0001B68DB431A40094B1B684FF0A041134350
:1078F000C1F8043500BF05B05DF804FB8C320020F0
:10790000684B0500903200206C3200209432002039
:1079100082B001900B468DF803309DF80330002BA8
:1079200007D00122019B9A404FF0A043C3F80C25D9
:1079300006E00122019B9A404FF0A043C3F80825BE
:1079400000BF02B0704782B001900B468DF8033043
:107950009DF80330002B05D04FF0A042019BC2F8E8
:107960000C3504E04FF0A042019BC2F8083500BF7F
:1079700002B0704770B584B0039002910192019BF0
:10798000002B3ED0029B132B3BD91F4A039B136055
:10799000019B5B00013B1D4A13604FF0A043D3F8ED
:1079A0000425194B1B681340194A1360194E029B9A
:1079B00018464FF000014FF000024FF00003CB03D8
:1079C00043EA5043C20312F5FA7443F100054FF441
:1079D0007A724FF00003204629462CF0C1FC024683
:1079E0000B4613460022194630462CF04DFB034649
:1079F000002B07D14FF0A042034B1B68C2F80C3597
:107A000000E000BF04B070BD903200208C32002036
:107A1000943200206C32002008B5064B18462CF03A
:107A200069FB054B1B6800211846FFF78CFF00BF60
:107A300008BD00BF6C3200209032002000B583B03A
:107A40000623019312E04FF0A042019B03F5E0737F
:107A5000032142F823104FF0A0420121019B01FABB
:107A600003F3C2F80835019B01330193019B0C2BF2
:107A7000E9D9094A012109482CF0D6FA0090009B67
:107A8000002B04D0064AAF21009822F03BFE00BF35
:107A900003B05DF804FB00BF81780200644B050071
:107AA000684B0500024BD3F804351846704700BFF9
:107AB00000100140F0B5D7B011AB186011AB1B68D6
:107AC000002B00F0D58011AB1B6854936A4B1B68E8
:107AD00003F48043002B67D0684B1B68032B63DDE6
:107AE00010235393539B802B28BF80235393002351
:107AF000559324E011AB1A68559B13441B788DF8FD
:107B00004B315F4B1A689DF84B311B09DBB203F018
:107B10000F031A44559B5B00117812AAD154584B9D
:107B20001A689DF84B3103F00F031A44559B5B0014
:107B30000133117812AAD154559B01335593559AAC
:107B4000539B9A42D6D3539B5B0012AA0021D15477
:107B50002F214C482CF03DFD0346002B06D02F2151
:107B600048482CF036FD03465C1C0EE05C2145487D
:107B70002CF02FFD0346002B06D05C2141482CF051
:107B800028FD03465C1C00E03E4CFFF78BFF0246DD
:107B900012AB02933C4B01933C4B009313464122A2
:107BA000214604200BF020F9334B1B6803F480437B
:107BB000002B5ED0314B1B68032B5ADD2F2131483F
:107BC0002CF007FD0346002B06D02F212D482CF06A
:107BD00000FD03465C1C0EE05C212A482CF0F9FCF9
:107BE0000346002B06D05C2126482CF0F2FC03460D
:107BF0005C1C00E0234CFFF755FF0146549B1B68BB
:107C0000549A928892B21046549AD28892B21546EB
:107C1000549A127A1646549A527A1746549A927A7D
:107C20000C92549AD27A0D92549A127B0E92549AD4
:107C3000527B0F92549A927B1092549AD27B0B9261
:107C4000109A0A920F9A09920E9A08920D9A079228
:107C50000C9A0692059704960395029001930C4B9B
:107C600000930B464222214604200BF0BDF800E0B1
:107C700000BF57B0F0BD00BF302E0020342E0020D2
:107C80002C2E0020B44B0500044C0500184C0500B8
:107C9000204C050072DF704700BF184673DF704745
:107CA00000BF184674DF704700BF184600B5A9B082
:107CB00003460091ADF8063013468DF805301022CA
:107CC000002148482CF0C6FC474B1B781A46134647
:107CD0005B019B1A454A1344424A1360424B1B788E
:107CE0001A4613465B019B1A414A13443D4A93606E
:107CF0003C4B1F229A803B4B1F229A813A4B1B78A8
:107D00000133DBB203F00103DAB2374B1A7015AB63
:107D10003C22002118462CF09DFC06238DF857309C
:107D2000BDF80630ADF8503001238DF852300123F4
:107D3000ADF8643014AB1A93BDF80630ADF844309A
:107D40009DF805309BB2ADF84830009B139311AB02
:107D50001F9301238DF8803002AB3C22002118468E
:107D60002CF078FC02238DF808301E4B196815ABF7
:107D7000204A184621F0B6FA2690269B002B04D004
:107D80001D4A8221269822F0BDFC164B996802AB51
:107D90001A4A184621F0A6FA2590259B002B04D0FC
:107DA000154A8321259822F0ADFC154A0D49154846
:107DB000FFF770FF2790279B082B05D10022094968
:107DC0001048FFF767FF2790279B2493249B002BE5
:107DD00004D0094A9321249822F094FC00BF29B0D2
:107DE0005DF804FB9832002026330020A8320020E2
:107DF000E83200209C320020604C0500A4320020B4
:107E0000102E00200C2E002084B001900091019BC8
:107E1000B3F5202F05D2019B0C4AA2FB0323DB08FC
:107E200001E04FF6FF730393019B002B04D0039BEB
:107E3000002B01D101230393039B9AB2044B9A8137
:107E4000034A009B936000BF04B07047CDCCCCCCFC
:107E5000102E002000B583B00A4B1B780121184674
:107E6000FFF71CFF0190019B002B04D0064AAD21B7
:107E7000019822F047FC002008F09CF900BF03B0F5
:107E80005DF804FB0C2E0020604C050000B583B0AB
:107E9000084B1B781846FFF705FF0190019B002B4C
:107EA00004D0054AB821019822F02CFC00BF03B091
:107EB0005DF804FB0C2E0020604C050076DF704757
:107EC00000BF18467ADF704700BF18467CDF704756
:107ED00000BF1846024BD3F804351846704700BF60
:107EE0000010014000B583B001900091019806F0A8
:107EF0005CFE00BF03B05DF804FB000010B586B067
:107F00000390039B1B78002B11D1039B5B883B21C3
:107F10001846FFF7D3FF0590059B0493049B002BA5
:107F20003AD01F4A6421049822F0ECFB34E0039B12
:107F30001B78012B30D11B4B1B6803F48043002BB3
:107F40002AD0194B1B68032B26DD2F2114482CF057
:107F500040FB0346002B06D02F2111482CF039FBA3
:107F600003465C1C0EE05C210D482CF032FB0346FE
:107F7000002B06D05C210A482CF02BFB03465C1C2E
:107F800000E0074CFFF7A6FF0346084A009268226C
:107F9000214604200AF028FF00BF06B010BD00BF34
:107FA000AC4C0500302E0020342E0020044D05007E
:107FB00000B583B00190044A6E21019822F0A2FB23
:107FC00000BF03B05DF804FBAC4C050000B587B002
:107FD00021F0CCFD0590059B0493049B002B04D05D
:107FE000144A7521049822F08DFB0023019301AB04
:107FF0001946012021F018FB0590059B0393039B74
:10800000002B04D00B4A7B21039822F07BFB01ABB1
:10801000184621F097FB0590059B0293029B002BCD
:1080200004D0044A7F21029822F06CFB00BF07B005
:108030005DF804FBAC4C050000B587B09DF8083036
:10804000012262F303038DF808309DF80830012205
:1080500062F307138DF808301D482CF050FB0346DF
:108060009AB202AB1A491846FFF730FF0590059BFC
:108070000493049B002B04D0164AB721049822F0E5
:1080800041FB6B460822002118462CF0E3FA7823C6
:10809000ADF80030C823ADF802300023ADF804304D
:1080A0004FF4C873ADF806306B461846FFF70AFF69
:1080B0000590059B0393039B002B04D0054ABD212B
:1080C000039822F01FFB00BF07B05DF804FB00BF60
:1080D000304D0500AC4C050000B58DB001AB082259
:1080E000002118462CF0B6FA7823ADF80430C823E6
:1080F000ADF806300023ADF808304FF4C873ADF882
:108100000A3003AB1C22002118462CF0A3FA01AB65
:10811000039340F6CD4304934FF480330593032338
:108120008DF818300023ADF81A3000238DF81C307C
:108130000B4B08930B4B099303AB184621F020FF20
:108140000B900B9B0A930A9B002B04D0064AD42168
:108150000A9822F0D7FA00BF0DB05DF804FB00BF0B
:10816000FD7E0200B17F0200AC4C050006231846DC
:1081700070470000024BD3F804351846704700BF23
:108180000010014082B04FF0A0434FF49A52C3F860
:1081900018254FF0A0434FF49A52C3F80C25EFF383
:1081A0001083019372B64DF6AD6C01E030BF00BF95
:1081B000044B1B78DBB2002BF8D100BF00BF02B02C
:1081C000704700BF282E002010B58CB00990089190
:1081D0000792099B44F20202934200F08D80099BB2
:1081E00044F20202934200F20581099B44F201022B
:1081F000934200F0C080099B44F20102934200F2D6
:10820000F980099B012B05D0099B41F201029342A1
:1082100039D0EFE0994B1B6803F48043002B00F04A
:108220001E81974B1B68002B40F319812F21954825
:108230002CF0CFF90346002B06D02F2191482CF0CB
:10824000C8F903465C1C0EE05C218E482CF0C1F995
:108250000346002B06D05C218A482CF0BAF903466D
:108260005C1C00E0874CFFF785FF0246079B0293EA
:10827000089B0193844B0093134660222146012002
:108280000AF0B2FDEBE07D4B1B6803F48043002B4A
:1082900000F0E7807A4B1B68002B40F3E2802F212F
:1082A00078482CF096F90346002B06D02F2175480C
:1082B0002CF08FF903465C1C0EE05C2171482CF019
:1082C00088F90346002B06D05C216E482CF081F91A
:1082D00003465C1C00E06B4CFFF74CFF0246079B1B
:1082E0000293089B0193694B009313466322214636
:1082F00001200AF079FDB4E0079B0B935F4B1B68EC
:1083000003F48043002B00F0AE805D4B1B68002B14
:1083100040F3A9802F215B482CF05BF90346002B2A
:1083200006D02F2157482CF054F903465C1C0EE070
:108330005C2154482CF04DF90346002B06D05C21FB
:1083400050482CF046F903465C1C00E04D4CFFF70A
:1083500011FF01460B9B5B680B9A128803920293F4
:10836000089B01934A4B00930B466922214601204A
:108370000AF03AFD77E0079B0A93404B1B6803F431
:108380008043002B71D03E4B1B68002B6DDD2F21ED
:108390003C482CF01EF90346002B06D02F2139480B
:1083A0002CF017F903465C1C0EE05C2135482CF0DC
:1083B00010F90346002B06D05C2132482CF009F955
:1083C00003465C1C00E02F4CFFF7D4FE0A9B9B6821
:1083D0000A9A52680A99096804910392089A0292CB
:1083E00001932C4B009303467322214601200AF08F
:1083F000FBFC3AE0214B1B6803F48043002B36D092
:108400001F4B1B68002B32DD2F211E482CF0E1F89A
:108410000346002B06D02F211A482CF0DAF8034629
:108420005C1C0EE05C2117482CF0D3F80346002BAF
:1084300006D05C2113482CF0CCF803465C1C00E00D
:10844000104CFFF797FE0246089B0193124B0093D6
:1084500013467B22214601200AF0C6FC07E000BF3C
:1084600006E000BF04E000BF02E000BF00E000BF84
:10847000FFF788FE00BF0CB010BD00BF302E0020FB
:10848000342E0020444D0500944D0500B04D0500EC
:10849000D44D0500F44D0500184E050000B585B01B
:1084A00001900023ADF80830064B039302AB1A4647
:1084B000019944F20200FFF787FE00BF05B05DF8A6
:1084C00004FB00BF344E050041DF704700BF184673
:1084D000024BD3F804351846704700BF0010014026
:1084E00010B582B01C4B1B6803F48043002B2DD0C9
:1084F0001A4B1B68032B29DD2F2119482CF069F832
:108500000346002B06D02F2115482CF062F80346B5
:108510005C1C0EE05C2112482CF05BF80346002B3B
:1085200006D05C210E482CF054F803465C1C00E099
:108530000B4CFFF7CDFF03460A4A128801920A4A04
:1085400000925522214604200AF04EFC05482BF0EB
:10855000E3FE00BF02B010BD302E0020342E0020FC
:10856000544E050090330020A04E050000B583B0A6
:108570000A4B00224FF4203118462BF085FD019064
:10858000019B0093009B002B04D0054A5D210098BD
:1085900022F0B8F800BF03B05DF804FBA833002058
:1085A000544E050000B585B02BF002FD0390039BEF
:1085B0000293029B002B04D00C4A6221029822F005
:1085C000A1F80B4A01210B482BF02EFD0390039BD1
:1085D0000193019B002B04D0044A6821019822F0EA
:1085E00091F800BF05B05DF804FB00BF544E0500D4
:1085F000E1840200A451050010B586B0059003A8DF
:1086000080E80600ADF80A30354B1B6803F4804360
:10861000002B2DD0334B1B68032B29DD2F21324833
:108620002BF0D7FF0346002B06D02F212E482BF02E
:10863000D0FF03465C1C0EE05C212B482BF0C9FFE9
:108640000346002B06D05C2127482BF0C2FF0346CF
:108650005C1C00E0244CFFF73BFF0246039B0193A8
:10866000224B009313467822214604200AF0BCFBDB
:108670001B4B1B6803F48043002B2DD0194B1B6848
:10868000032B29DD2F2118482BF0A3FF0346002BD5
:1086900006D02F2114482BF09CFF03465C1C0EE0F3
:1086A0005C2111482BF095FF0346002B06D05C217E
:1086B0000D482BF08EFF03465C1C00E00A4CFFF7D0
:1086C00007FF0246049B0193094B0093134679224E
:1086D000214604200AF088FB00BF06B010BD00BF91
:1086E000302E0020342E0020544E0500BC4E0500D4
:1086F000E44E050010B584B003460291ADF80E308B
:10870000194B1B6803F48043002B2AD0174B1B68BE
:10871000032B26DD2F2116482BF05BFF0346002B91
:1087200006D02F2112482BF054FF03465C1C0EE0AC
:108730005C210F482BF04DFF0346002B06D05C2137
:108740000B482BF046FF03465C1C00E0084CFFF78B
:10875000BFFE0346074A00927D22214604200AF00C
:1087600043FB00BF04B010BD302E0020342E00208B
:10877000544E05000C4F050000B583B003468DF83C
:10878000073000214FF49A50FFF7DDF89DF80720DD
:1087900013469B0013445B001A4632214FF490505D
:1087A000FFF7E8F800BF03B05DF804FB08B5FFF77A
:1087B00033F900BF08BD000010B584B03E4B1B6804
:1087C00003F48043002B2AD03C4B1B68032B26DD8F
:1087D0002F213B482BF0FDFE0346002B06D02F2116
:1087E00037482BF0F6FE03465C1C0EE05C21344853
:1087F0002BF0EFFE0346002B06D05C2130482BF017
:10880000E8FE03465C1C00E02D4CFFF761FE0346CA
:108810002C4A00929222214604200AF0E5FAFFF742
:108820000BFCFFF759FC03AB184619F0CDFC224BAB
:108830001B6803F48043002B2DD0204B1B68032BB7
:1088400029DD2F211E482BF0C4FE0346002B06D045
:108850002F211B482BF0BDFE03465C1C0EE05C2163
:1088600017482BF0B6FE0346002B06D05C211448B7
:108870002BF0AFFE03465C1C00E0114CFFF728FE16
:108880000346BDF80C2001920F4A00929D2221461A
:1088900004200AF0A9FAFFF7BFF800214FF49A501C
:1088A000FFF751F80422C8214FF49A50FFF762F8FD
:1088B00000BF04B010BD00BF302E0020342E0020B9
:1088C000544E0500244F0500404F050010B584B0FC
:1088D00003460291ADF80E30194B1B6803F4804338
:1088E000002B2AD0174B1B68012B26DD2F211648A1
:1088F0002BF06FFE0346002B06D02F2112482BF0E1
:1089000068FE03465C1C0EE05C210F482BF061FE04
:108910000346002B06D05C210B482BF05AFE034681
:108920005C1C00E0084CFFF7D3FD0346074A0092A9
:10893000A622214602200AF057FA00BF04B010BD5B
:10894000302E0020342E0020544E0500584F0500D4
:1089500010B586B003460291ADF80E3013468DF87F
:108960000D309DF80D30022B73D0022B00F3A38045
:10897000002B02D0012B34D09DE0594B1B6803F42F
:108980008043002B00F0A280564B1B68032B40F362
:108990009D802F2154482BF01CFE0346002B06D04F
:1089A0002F2151482BF015FE03465C1C0EE05C2184
:1089B0004D482BF00EFE0346002B06D05C214A48A2
:1089C0002BF007FE03465C1C00E0474CFFF780FDE0
:1089D0000346464A0092B222214604200AF004FAD5
:1089E00074E0062232214FF49A50FEF7C3FF3C4B4D
:1089F0001B6803F48043002B6AD03A4B1B68032B9F
:108A000066DD2F2138482BF0E4FD0346002B06D00D
:108A10002F2135482BF0DDFD03465C1C0EE05C2168
:108A200031482BF0D6FD0346002B06D05C212E48A2
:108A30002BF0CFFD03465C1C00E02B4CFFF748FDFC
:108A400003462B4A0092B722214604200AF0CCF9B3
:108A50003EE0234B1B6803F48043002B3AD0214BAC
:108A60001B68032B36DD2F211F482BF0B2FD034678
:108A7000002B06D02F211C482BF0ABFD03465C1CBD
:108A80000EE05C2118482BF0A4FD0346002B06D015
:108A90005C2115482BF09DFD03465C1C00E0124C48
:108AA000FFF716FD0346134A0092BB22214604201D
:108AB0000AF09AF90EE003230593059B002B0BD0D7
:108AC000094ABF21059821F01DFE05E000BF04E022
:108AD00000BF02E000BF00E000BF00BF06B010BD55
:108AE000302E0020342E0020544E0500784F050013
:108AF000984F0500B84F050030B58BB0099008912C
:108B00000792079B5B68002B41D03F4B1B6803F427
:108B10008043002B74D03D4B1B68032B70DD2F214D
:108B20003B482BF056FD0346002B06D02F2138483A
:108B30002BF04FFD03465C1C0EE05C2134482BF00B
:108B400048FD0346002B06D05C2131482BF041FD47
:108B500003465C1C00E02E4CFFF7BAFC0246089B63
:108B60005B881946079B1B781846079B5B781D4658
:108B7000079B5B680493039502900191254B00933A
:108B80001346C922214604200AF02EF938E01E4B74
:108B90001B6803F48043002B32D01C4B1B68032B53
:108BA0002EDD2F211A482BF014FD0346002B06D092
:108BB0002F2117482BF00DFD03465C1C0EE05C21B5
:108BC00013482BF006FD0346002B06D05C2110480D
:108BD0002BF0FFFC03465C1C00E00D4CFFF778FC1B
:108BE0000246089B5B881946079B1B7802930191FC
:108BF000094B00931346CC22214604200AF0F4F8D6
:108C000000BF0BB030BD00BF302E0020342E00203E
:108C1000544E0500DC4F05003050050010B582B001
:108C20001D4B1B6803F48043002B2AD01B4B1B6891
:108C3000032B26DD2F211A482BF0CBFC0346002BFB
:108C400006D02F2116482BF0C4FC03465C1C0EE016
:108C50005C2113482BF0BDFC0346002B06D05C21A1
:108C60000F482BF0B6FC03465C1C00E00C4CFFF7F1
:108C70002FFC03460B4A0092D222214604200AF020
:108C8000B3F80322C8214FF49A50FEF773FE0FF099
:108C9000A3FB00BF02B010BD302E0020342E0020F8
:108CA000544E05005C50050000B583B00190019B57
:108CB0001B781C2B01D1FFF7B1FF00BF03B05DF89B
:108CC00004FB000010B58AB00390B34B1B6803F49B
:108CD0008043002B2DD0B14B1B68032B29DD2F21A6
:108CE000AF482BF076FC0346002B06D02F21AC4872
:108CF0002BF06FFC03465C1C0EE05C21A8482BF0B7
:108D000068FC0346002B06D05C21A5482BF061FCD3
:108D100003465C1C00E0A24CFFF7DAFB0246039B13
:108D20000193A04B00931346DF22214604200AF052
:108D30005BF800230993039B032B13D801A252F87D
:108D400023F000BF558D02005D8D0200558D02009D
:108D50005D8D020001238DF81C3003E000238DF8A7
:108D60001C3000BF904B1B785A1CD1B28E4A117038
:108D70008DF81D303223069364230593864B1B68C0
:108D800003F48043002B2DD0844B1B68032B29DD7B
:108D90002F2183482BF01DFC0346002B06D02F21EA
:108DA0007F482BF016FC03465C1C0EE05C217C48DF
:108DB0002BF00FFC0346002B06D05C2178482BF0EB
:108DC00008FC03465C1C00E0754CFFF781FB034682
:108DD0009DF81C200192754A0092F9222146042038
:108DE0000AF002F8039B012B04D9039B023B012BE1
:108DF00021D812E06E4B1B88184616F0A1FE05AA7A
:108E000007AB19466A482AF04FFA09909DF81C30C2
:108E100019460620FEF77CFD0DE005AA07A90223EE
:108E200064482AF095FA09909DF81C3019460820EC
:108E3000FEF76EFD00BF099B112B00F2998001A285
:108E400052F823F0898F0200718F0200718F0200A7
:108E5000718F02008D8E0200718F0200718F0200EF
:108E6000058F02008D8E0200718F0200718F02004B
:108E7000718F0200718F0200718F0200718F0200EA
:108E8000718F0200718F02008D8E0200424B1B68B1
:108E900003F48043002B2ED0404B1B68032B2ADDAC
:108EA0002F213F482BF095FB0346002B06D02F21A6
:108EB0003B482BF08EFB03465C1C0EE05C213848DF
:108EC0002BF087FB0346002B06D05C2134482BF0A7
:108ED00080FB03465C1C00E0314CFFF7F9FA0246C8
:108EE000039B0193344B0093134640F21512214625
:108EF000042009F079FF062232214FF49A50FEF740
:108F000039FD46E0244B1B6803F48043002B3DD021
:108F1000224B1B68032B39DD2F2121482BF059FBF5
:108F20000346002B06D02F211D482BF052FB034691
:108F30005C1C0EE05C211A482BF04BFB0346002B17
:108F400006D05C2116482BF044FB03465C1C00E075
:108F5000134CFFF7BDFA0246039B0193174B009396
:108F6000134640F221122146042009F03DFF0DE096
:108F7000099B0893089B002B0AD0094A40F225114F
:108F8000089821F0BFFB03E000BF02E000BF00E053
:108F900000BF00BF0AB010BD302E0020342E0020CC
:108FA000544E050078500500C93300208C50050050
:108FB000283300205C330020A8500500C050050075
:108FC00000B585B00190019B2F2B08DD019B332B51
:108FD00005DC019B303B03930398FFF773FE00BF52
:108FE00005B05DF804FB000010B586B04D4B1B6862
:108FF00003F48043002B2BD04B4B1B68032B27DD46
:109000002F214A482BF0E5FA0346002B06D02F21EA
:1090100046482BF0DEFA03465C1C0EE05C21434818
:109020002BF0D7FA0346002B06D05C213F482BF0EB
:10903000D0FA03465C1C00E03C4CFFF749FA0346BB
:109040003B4A00924FF499722146042009F0CCFE6D
:10905000002305933CE0374A059B342101FB03F3D1
:1090600013443033344A1A60324A059B342101FBE1
:1090700003F31344283300221A602E4A059B34213F
:1090800001FB03F313442C3300221A70294A059B79
:10909000342101FB03F313442D3300221A70059B86
:1090A000342202FB03F3234A1344059AD2B2114639
:1090B00018462AF0A9F80290029B002B05D01B4A03
:1090C0004FF49D71029821F01DFB059B0133059320
:1090D000059B002BBFD0194B194A5A60174B194AF0
:1090E0009A60012115482BF0E5F80490049B002BB1
:1090F00005D00E4A4FF49F71049821F003FB0F4BEB
:109100001B88184615F08AF90390039B002B05D0A5
:10911000064A40F23F11039821F0F4FA00BF06B06E
:1091200010BD00BF302E0020342E0020544E05000C
:10913000EC50050028330020A85105009033002092
:10914000F9850200F586020010B58EB003AB24222B
:10915000002118462BF07EFA01238DF80C300723EE
:109160008DF80F3006238DF814302A4B07932A4BC5
:109170000B9303AB294918460EF0F0FF0D900D9BA1
:10918000002B41D00D9B0B2B32D1254B1B6803F4D8
:109190008043002B3AD0234B1B68032B36DD2F2155
:1091A00021482BF016FA0346002B06D02F211E482B
:1091B0002BF00FFA03465C1C0EE05C211A482BF0E2
:1091C00008FA0346002B06D05C2117482BF001FA61
:1091D00003465C1C00E0144CFFF77AF90346134A7F
:1091E00000924FF4A7722146042009F0FDFD0DE026
:1091F0000D9B0C930C9B002B09D00B4A40F2531192
:109200000C9821F07FFA02E000BF00E000BF00BF31
:109210000EB010BDA98C0200E98F0200C8330020F7
:10922000302E0020342E0020544E05000C51050035
:1092300010B584B0284A042146F2010009F0BEFDB1
:10924000264B1B6803F48043002B2BD0244B1B6858
:10925000032B27DD2F2123482BF0BBF90346002BDE
:1092600006D02F211F482BF0B4F903465C1C0EE0FA
:109270005C211C482BF0ADF90346002B06D05C2185
:1092800018482BF0A6F903465C1C00E0154CFFF7CC
:109290001FF90346144A009240F259122146042055
:1092A00009F0A2FD2AF084FE0390039B002B05D059
:1092B0000C4A40F25B11039821F024FAFEF7BEFB42
:1092C000FEF784FEFEF7B8FEFEF706FFFFF73CFF51
:1092D00000BF04B010BD00BF812D0300302E002060
:1092E000342E0020544E05005C51050030B589B085
:1092F00064212048FEF770FA1F4B1B7883F00103AE
:10930000DBB2002B16D01D4B6C461D460FCD0FC493
:1093100095E8030084E803006B461846FEF7DEF983
:109320000790079B002B05D0154A40F2791107984A
:1093300021F0E8F900F066F803461846FEF7BAFB9C
:109340000EF074FF0690069B002B05D00C4A4FF4DC
:10935000BF71069821F0D6F900214FF49A50FEF71C
:10936000F2FA0222C8214FF49A50FEF703FB00BF25
:1093700009B030BDC18F0200C83300208C510500F8
:10938000544E050008B5FFF70DF9FFF751FFFFF741
:10939000ADFFFFF7EBF8FFF797F8FCE700B583B0F8
:1093A00001901022019903482BF02BF900BF03B064
:1093B0005DF804FBCC33002000B583B008220D49D2
:1093C0000D482BF01EF908220C490D482BF019F915
:1093D000094B0193019AD379042161F30713D371E7
:1093E000019A137A022161F38713137200BF03B04D
:1093F0005DF804FB60000010CC330020A4000010D6
:10940000D4330020014B1846704700BFCC330020F6
:1094100082B00023019313E00E4A019BDB0013444A
:1094200000225A800B4A019BDB00134400225A6041
:10943000084A019B002102F83310019B013301937C
:10944000019B1F2BE8D9044B00221A6000BF02B019
:10945000704700BFDC330020DC34002084B00346BA
:109460000091ADF806301A4B1B680393002302935A
:1094700027E0039B5A1E0392002B01D11F23039365
:10948000144A039B12F8333083F00103DBB2002B44
:1094900001D0002319E00F4A039BDB0013445B88D3
:1094A000BDF806209A4209D10A4A039BDB00134407
:1094B0005B68009A9A4201D1012306E0029B0133C6
:1094C0000293029B1F2BD4D90023184604B0704787
:1094D000DC340020DC33002082B003460091ADF87C
:1094E0000630124B1B68124ADB001344BDF80620FD
:1094F0005A800E4B1B680E4ADB001344009A5A60D8
:109500000A4B1B680A4A012102F83310074B1B68FB
:109510000133064A1360054B1B68202B02D1034B15
:1095200000221A6000BF02B0704700BFDC34002088
:10953000DC330020024BD3F804351846704700BFD7
:109540000010014082B00190019B0433184602B024
:10955000704782B00190019B0133184602B07047FA
:1095600082B00190019B1B7803F08003002BCCBFDD
:1095700001230023DBB2184602B0704782B001908D
:109580000B468DF80330019B1B7803F07F03DAB2A2
:10959000019B1A70019B1B785AB29DF80330DB01C6
:1095A0005BB213435BB2DAB2019B1A7000BF02B028
:1095B000704782B00190019B1B789B011BB203F4A2
:1095C000FE531AB2019B5B789B08DBB21BB21343BC
:1095D0001BB29BB2184602B0704782B001900B4696
:1095E000ADF80230019B1B7823F07F03DAB2019BB8
:1095F0001A70019B1B785AB2BDF802309B099BB2CE
:109600005BB203F07F035BB213435BB2DAB2019B40
:109610001A70019B5B7803F00303DAB2019B5A7066
:10962000019B5B785AB2BDF802309B005BB21343DA
:109630005BB2DAB2019B5A7000BF02B0704782B0D1
:109640000190019B9B781A06019BDB781B041A434F
:10965000019B1B791B021343019A5279134318464D
:1096600002B0704782B001900091009B1B0EDAB2ED
:10967000019B9A70009B1B0CDAB2019BDA70009B75
:109680001B0ADAB2019B1A71009BDAB2019B5A7174
:1096900000BF02B0704782B00190019B1B7803F0BD
:1096A0004003002BCCBF01230023DBB2184602B0DD
:1096B000704782B001900B468DF80330019B1B78F8
:1096C00023F04003DAB2019B1A70019B1B785AB257
:1096D0009DF803309B015BB203F040035BB2134380
:1096E0005BB2DAB2019B1A7000BF02B0704782B061
:1096F0000190019B1B7803F03F03DBB2184602B0D8
:10970000704782B001900B468DF80330019B1B78A7
:1097100023F03F03DAB2019B1A70019B1B785AB207
:109720009DF9033003F03F035BB213435BB2DAB23F
:10973000019B1A7000BF02B0704782B00190019B7C
:109740001B7803F08003002BCCBF01230023DBB286
:10975000184602B0704782B001900B468DF8033076
:10976000019B1B7803F07F03DAB2019B1A70019B07
:109770001B785AB29DF80330DB015BB213435BB236
:10978000DAB2019B1A7000BF02B0704782B001903C
:10979000019B1B7803F07F03DBB2184602B07047D1
:1097A00082B001900B468DF80330019B1B7823F0AB
:1097B0007F03DAB2019B1A70019B1B785AB29DF9A4
:1097C000033003F07F035BB213435BB2DAB2019B59
:1097D0001A7000BF02B0704782B00190019B5B78A5
:1097E00003F08003002BCCBF01230023DBB218461B
:1097F00002B0704782B001900B468DF80330019B98
:109800005B7803F07F03DAB2019B5A70019B5B78AF
:109810005AB29DF80330DB015BB213435BB2DAB29C
:10982000019B5A7000BF02B0704782B00190019B4B
:109830005B789B011BB203F4FE531AB2019B9B7829
:109840009B08DBB21BB213431BB29BB2184602B09B
:10985000704782B001900B46ADF80230019B5B78F7
:1098600023F07F03DAB2019B5A70019B5B785AB2F6
:10987000BDF802309B099BB25BB203F07F035BB281
:1098800013435BB2DAB2019B5A70019B9B7803F0E1
:109890000303DAB2019B9A70019B9B785AB2BDF820
:1098A00002309B005BB213435BB2DAB2019B9A7049
:1098B00000BF02B0704782B00190019B9B78DB0033
:1098C0005BB203F018035AB2019BDB785B09DBB291
:1098D0005BB213435BB2DBB2184602B0704782B092
:1098E00001900B468DF80330019B9B7823F0030316
:1098F000DAB2019B9A70019B9B785AB29DF80330B3
:10990000DB08DBB25BB203F003035BB213435BB271
:10991000DAB2019B9A70019BDB7803F01F03DAB285
:10992000019BDA70019BDB785AB29DF803305B0132
:109930005BB213435BB2DAB2019BDA7000BF02B0D4
:10994000704782B00190019BDB7803F01F03DBB20C
:10995000184602B0704782B001900B468DF8033074
:10996000019BDB7823F01F03DAB2019BDA70019BC5
:10997000DB785AB29DF9033003F01F035BB2134347
:109980005BB2DAB2019BDA7000BF02B0704782B0FE
:1099900001900B46ADF80230019BC3F30C02BDF8F9
:1099A00002309A420AD2BDF80220019BC3F30C0395
:1099B000D21A019B1344A3F5005307E0BDF802201F
:1099C000019BC3F30C03D21A019B1344184602B047
:1099D0007047F0B585B0039002911346ADF806309C
:1099E000039B1A464FF00003150A1406BDF8063013
:1099F00019460298FFF7CBFF03461A464FF00003C3
:109A0000A61845EB030732463B461046194605B0FB
:109A1000F0BD00231846704700B585B00190019B4A
:109A20001B7883F00103DBB2002B04D07B46039349
:109A30000398FEF733FD019B5B7A0133012202FAA2
:109A400003F3013B184605B05DF804FB00B58FB089
:109A50000346ADF806300B468DF8053013468DF8F9
:109A6000043003AB2C22002118462AF0F3FD0F230B
:109A70008DF80C30BDF80630ADF810309DF805308B
:109A800003F00103DAB29DF8123062F300038DF89F
:109A900012309DF804308DF8133003AB184602F0F5
:109AA00065F900BF0FB05DF804FB00B585B001900B
:109AB000019B1B78002B0BD0019B988A019B996915
:109AC000019BDA69019BDB880BF014F8039009E035
:109AD000019B988A019B9969019BDB691A460AF0F0
:109AE000F5FF0390039B002B0BD0019B988A019BF1
:109AF000DB69DBB203F00103DBB200221946FFF79A
:109B0000A5FF039B184605B05DF804FB00B58FB0B8
:109B100001900B468DF8033003AB2C220021184630
:109B20002AF098FD10238DF80C30019B04939DF8CA
:109B300003308DF8143003AB184602F017F900BF5C
:109B40000FB05DF804FB000082B003468DF80730CB
:109B5000054B5A68044B9B689DF8071001FB03F303
:109B60001344184602B07047E034002082B0034628
:109B70008DF80730054BDA68044B1B699DF8071018
:109B800001FB03F31344184602B07047E034002091
:109B900086B00146CDE900230B46ADF80E30002318
:109BA00005931AE0104A059B1B0113441B88BDF85E
:109BB0000E209A420ED10C4A059B1B011344083318
:109BC000D3E90023DDE90001994208BF904201D1A9
:109BD000012306E0059B01330593059B072BE1D983
:109BE0000023184606B07047C036002000B587B085
:109BF0000190019BD869019B9969019BDB881A46FA
:109C0000FFF7E7FECDE904010B4B1B685A1C0A491C
:109C10000A6003F007031B01084A13440393019BE6
:109C20009A8A039B1A800399DDE90423C1E9022380
:109C300000BF07B05DF804FBB8360020C036002036
:109C400000B589B003900B4601928DF80B309DF85A
:109C50000B30022B08D09DF80B30012B04D07B4633
:109C600005930598FEF71AFC019BB3F5C07F04D954
:109C70007B4604930498FEF711FC0023079300230E
:109C800006931CE03F49069A1346DB009B1A1B0112
:109C90000B4448331B78002B0ED1069A1346DB0089
:109CA0009B1A1B01374A1344079301980EF032FAAE
:109CB0000246079BDA6605E0069B01330693069B86
:109CC000032BDFD9079B002B03D0079BDB6E002BF8
:109CD00001D1002352E0079B3022039918462AF055
:109CE00090FC079B0022DA64019B9AB2079BA3F8C1
:109CF0004A209DF80B30012B23D1234B1A7D079B63
:109D000083F85120079B002283F85220079B0022F2
:109D100083F85320079B002283F85020039B9A6A04
:109D2000079B5A65079B0022A3F85820079B6FF0FA
:109D300001029A62079B154A9A63079B079A1A6465
:109D400013E0079B6FF001029A62079B002283F8E1
:109D50006820079B0E4A9A65079B079A1A66079B1D
:109D60000C4A9A63079B079A1A64012003F0CEFFFE
:109D7000079B9DF80B2083F84820079B184609B0E5
:109D80005DF804FBF8340020E0340020D5B8020070
:109D90009FB8020003B9020000B583B00190019B97
:109DA000DB6E18460EF0C1F9019B3033184605F002
:109DB00070FB019B93F84830022B04D1019B503378
:109DC000184605F066FB7022002101982AF042FC3B
:109DD000019B002283F84820002003F097FF00BF7A
:109DE00003B05DF804FB000010B588B005900B4689
:109DF0008DF81330059B002B04D17B460793079801
:109E0000FEF74CFB059B9A69059BDB8819461046BB
:109E1000FFF7BDFD0690059B93F84830022B02D159
:109E20000598FFF7E3FE059B5B6D9DF81320114637
:109E30001846FFF76BFE0598FFF7AEFF1E4B1B6839
:109E400003F00403002B34D01C4B1B68032B30DDC4
:109E50002F211B482AF0BDFB0346002B06D02F21E3
:109E600017482AF0B6FB03465C1C0EE05C21144840
:109E70002AF0AFFB0346002B06D05C2110482AF0E5
:109E8000A8FB03465C1C00E00D4CFFF753FB0246A9
:109E9000059B93F8483019469DF8133002930191C1
:109EA000084B0093134640F2F3122146042008F0B9
:109EB0009BFF00BF08B010BD302E0020342E0020C4
:109EC000C4510500F451050000B58FB00190019B0D
:109ED00093F84830012B04D07B460D930D98FEF784
:109EE000DDFA01238DF80830019B5B6D039302AB13
:109EF000184601F03BFF0198FFF74EFF00BF0FB07F
:109F00005DF804FB10B584B00190019B93F84830D4
:109F1000022B04D07B4603930398FEF7BFFA0C4B49
:109F20005B7D1846FFF710FE0290019B03F1500481
:109F300005F0AEFB0246029B13441946204605F08D
:109F4000D0FA019B012283F8682000BF04B010BD45
:109F5000E034002010B584B00190019B93F84830A4
:109F6000022B04D07B4603930398FEF797FA094B24
:109F70001B680293019B03F1300405F089FB024644
:109F8000029B13441946204605F0ABFA00BF04B00B
:109F900010BD00BFE034002000B585B00190019BEA
:109FA00093F84830012B04D07B4603930398FEF7C7
:109FB00075FA05F06DFB0290019B1B7B012B06D10E
:109FC000019B9B7D1846FFF7D1FD034603E000206F
:109FD000FFF7CCFD0346029A13440293019B3033F2
:109FE0000299184605F07DFA00BF05B05DF804FB44
:109FF00000B583B001900091019BDB7D002B06D062
:10A00000019BDB7819460098FFF7CAFB0BE0019B28
:10A01000DB7819460098FFF74CFB019B1B7919462A
:10A020000098FFF76EFB019B1B7819460098FFF71D
:10A0300092FB019B1B78002B1CD0019B9B78082B6B
:10A040000CBF01230023DBB219460098FFF7D2FBB7
:10A05000019BDB8819460098FFF7FBFB019B1B7AED
:10A0600019460098FFF73BFC019B5B7A1946009864
:10A07000FFF771FC00BF03B05DF804FB00B587B0CB
:10A080000390029101920093039B1B78002B01D057
:10A09000042300E001230593059A019B1A44029BC7
:10A0A0009A60039B03F10C02029B1A60039B9A6A5D
:10A0B000029B5A60039BDA6A029BDA60029B0022D1
:10A0C0001A74029807F0BBFB0490049B002B05D187
:10A0D000029B5A69059B1A44009B1A60049B184610
:10A0E00007B05DF804FB000010B592B00390029138
:10A0F00000231193039B1B7B012B40F08180424B7B
:10A100001B6803F40073002B2BD0404B1B68032B00
:10A1100027DD2F213E482AF05CFA0346002B06D0AB
:10A120002F213B482AF055FA03465C1C0EE05C21C7
:10A1300037482AF04EFA0346002B06D05C213448FB
:10A140002AF047FA03465C1C00E0314CFFF7F2F9B5
:10A150000346304A009240F262222146042008F071
:10A1600043FE0EAB0B22002118462AF073FA039B24
:10A17000DA880EAB11461846FFF72FFA0EAB02999C
:10A180001846FFF76FFA039B5B78022B0CBF012385
:10A190000023DBB21A460EAB11461846FFF7EEF964
:10A1A0000623079301238DF82430039B9B8AADF887
:10A1B000263000230A9300238DF814300EAB06934B
:10A1C000039B1B6A0B9300238DF82030039BDB89D4
:10A1D000ADF82230039BDB6A0D93039B9B7D002B24
:10A1E00003D100238DF8303003E00B4B5B7D8DF8FD
:10A1F000303005AB6FF00101184601F0D5FC11902D
:10A20000119B184612B010BD302E0020342E0020B5
:10A21000C451050018520500E034002000B583B099
:10A220000190019B1B7B012B04D101210198FFF7B9
:10A23000DBFD02E00198FFF747FE00BF03B05DF8C9
:10A2400004FB000000B583B00190019B93F85130EE
:10A25000002B11D0019B93F85130013BDAB2019BE6
:10A2600083F85120019B002283F85020064B1B6885
:10A27000184606F0E7FC02E00198FFF7CFFF00BFA9
:10A2800003B05DF804FB00BF4037002084B00190AC
:10A290000B46ADF802300023039347E02749039AA9
:10A2A0001346DB009B1A1B010B4448331B78012B20
:10A2B00039D12249039A1346DB009B1A1B010B4438
:10A2C00014331A88019BDB899A422CD11B49039ACB
:10A2D0001346DB009B1A1B010B4406331B88BDF899
:10A2E00002209A421FD11549039A1346DB009B1A9C
:10A2F0001B010B4458331B88002B0CD00F49039AC9
:10A300001346DB009B1A1B010B4458331A88019B30
:10A310009B8A9A4207D1039A1346DB009B1A1B01C2
:10A32000064A134406E0039B01330393039B032B6C
:10A33000B4D90023184604B0704700BFF834002099
:10A3400084B001900023039322E01549039A134639
:10A35000DB009B1A1B010B4448331B78022B14D1E2
:10A360000F49039A1346DB009B1A1B010B4414335D
:10A370001A88019B9B8A9A4207D1039A1346DB00F5
:10A380009B1A1B01064A134406E0039B0133039307
:10A39000039B032BD9D90023184604B0704700BF94
:10A3A000F834002000B585B003468DF8073000234F
:10A3B00003931AE01149039A1346DB009B1A1B0111
:10A3C0000B4448331B78022B0CD1039A1346DB0055
:10A3D0009B1A1B01094A13449DF807201146184691
:10A3E000FFF702FD039B01330393039B032BE1D98A
:10A3F00000BF00BF05B05DF804FB00BFF8340020CB
:10A4000010B58CB00390039BD869039B9969039B9B
:10A41000DB881A46FFF7DDFACDE90A01039B998A2A
:10A42000DDE90A230846FFF7B3FB0346002B01D002
:10A43000002302E10398FFF783FF0990099B002B9B
:10A4400060D0099BD869099B9969099BDB881A46EA
:10A45000FFF7BFFACDE90601DDE90A23DDE90601D0
:10A46000994208BF904206D205210998FFF7BCFC2B
:10A470000023099346E0DDE90A01DDE9062399425C
:10A4800008BF90423CD2FFF7C4FA0346002B35D0F8
:10A490006B4B1B6803F00403002B2FD0694B1B6828
:10A4A000012B2BDD2F2168482AF093F80346002B5F
:10A4B00006D02F2164482AF08CF803465C1C0EE07D
:10A4C0005C2161482AF085F80346002B06D05C2108
:10A4D0005D482AF07EF803465C1C00E05A4CFFF70A
:10A4E00029F80246039BDB880193584B00931346DF
:10A4F0004FF44A722146022008F076FC00239CE0CB
:10A50000099B9AE0039B988A039B9969039BDA69EC
:10A51000039BDB880AF068FB0346002B19D0039BE2
:10A52000988A039B9969039BDA69039BDB880AF08D
:10A53000ABFB0346002B0AD00398FFF76DFA0346E6
:10A5400019460398FFF7D0FD0398FFF7AEFA0023F2
:10A5500073E0FFF75EFA0346002B02D00520FFF7F9
:10A5600021FF039B5B7A5A1C039BDB7D002B01D0F0
:10A57000082300E00C2302FB03F30593039BDB7D20
:10A58000002B02D04FF4807201E04FF4C072059BA3
:10A590009A4236D22A4B1B6803F00403002B2ED0BC
:10A5A000284B1B68002B2ADD2F2127482AF011F8A1
:10A5B0000346002B06D02F2123482AF00AF8034631
:10A5C0005C1C0EE05C2120482AF003F80346002BB7
:10A5D00006D05C211C4829F0FCFF03465C1C00E00F
:10A5E000194CFEF7A7FF0246059B0193184B0093F9
:10A5F00013464FF45C722146012008F0F5FB00235E
:10A600001BE0059A02210398FFF71AFB0990099BAA
:10A61000002B11D1FFF7FDF90346002B04D07B4638
:10A6200004930498FDF73AFF00210398FFF75CFDBF
:10A6300002210020FFF76AFA099B18460CB010BDF2
:10A64000302E0020342E0020C45105002852050071
:10A650005452050030B58BB00590049103920293DB
:10A660000398FFF7CDFE0990099B002B00F0D580E1
:10A670006C4B1B6803F00403002B2FD06A4B1B6844
:10A68000032B2BDD2F21694829F0A3FF0346002B64
:10A6900006D02F21654829F09CFF03465C1C0EE084
:10A6A0005C21624829F095FF0346002B06D05C210F
:10A6B0005E4829F08EFF03465C1C00E05B4CFEF711
:10A6C00039FF0246039B1B7A0193594B00931346B3
:10A6D0004FF465722146042008F086FBFFF799F9D4
:10A6E000034683F00103DBB2002B0ED00998FFF77D
:10A6F00031FC099B1B7B012B07D1099B93F8683028
:10A70000002B02D10998FFF7FDFB099BDA6C039B34
:10A710001B7A194601238B401340002B7FD1099BE4
:10A72000DA6C039B1B7A194601238B401A43099B61
:10A73000DA64049B043B0893039B1B7A1A46039B31
:10A74000DB7D002B01D0082300E00C2302FB03F388
:10A750000793039B1A7A099B5B7A9A4209D1079B5C
:10A760009AB2089B9BB213449AB2099BA3F84A2061
:10A770000EE0039BDB7D002B01D0082200E00C22C1
:10A78000089B9A4204D004210998FFF72DFB47E06B
:10A79000099B9A69039B9B699A420BD2099A039B76
:10A7A00002F10C0403F10C050FCD0FC495E8030072
:10A7B00084E80300099BDA6E079BD4180598FEF71E
:10A7C000C1FE0346089A1946204629F01AFF099B44
:10A7D000DC6C099B1846FFF71FF903469C421FD10A
:10A7E000FFF717F9034683F00103DBB2002B06D015
:10A7F000099A099BDB6C19461046FFF775FC099B0B
:10A80000D86E099BB3F84A301946099A029B01F0A9
:10A8100025F80998FFF7C0FA02E000BF00E000BF8A
:10A820000BB030BD302E0020342E0020C451050066
:10A830006852050000B585B0039002910192009323
:10A840000398FEF786FE029B591E009B019A01F0B9
:10A8500005F800BF05B05DF804FB000010B586B038
:10A860000390029100238DF81730039B002B3FD0FB
:10A87000039B9A1C029B1A600DF11703194602985C
:10A8800006F094FB9DF81730002B31D01B4B1B6852
:10A8900003F00403002B2BD0194B1B68032B27DD7F
:10A8A0002F21184829F095FE0346002B06D02F21B2
:10A8B000144829F08EFE03465C1C0EE05C21114812
:10A8C00029F087FE0346002B06D05C210D4829F0B5
:10A8D00080FE03465C1C00E00A4CFEF72BFE03469C
:10A8E000094A009240F206422146042008F07CFA10
:10A8F0009DF81730184606B010BD00BF302E00205E
:10A90000342E0020C45105007852050000B597B0E0
:10A910000390029101920093039B002B04D17B468C
:10A9200015931598FDF7BAFD029B002B04D17B46C9
:10A9300014931498FDF7B2FD009B002B04D17B46C5
:10A9400013931398FDF7AAFD009B5B6A02330993EA
:10A95000009B03F10C00009BDB78002B01D0012150
:10A9600000E00221009B9B78082B0CBF01230023F1
:10A97000DBB21A4605AB06F025FB05AB0A93039B39
:10A980000B93019B9BB2ADF83030029B0F930F9B52
:10A99000BDF8302013441093009B9B788DF8443011
:10A9A000009B1B7B022B0FD1009B1B69002B04D14A
:10A9B0007B4612931298FDF771FD009B1B690D9366
:10A9C0001023ADF8383002E00023ADF8383009AB81
:10A9D000184606F0E1FA00BF17B05DF804FB82B03C
:10A9E00003468DF807309DF80730002B01D1042372
:10A9F00000E00823184602B07047000000B585B09B
:10AA000001900091009BDB695A78019B1A71009BB1
:10AA1000DB691B78002B14BF01230023DBB283F01A
:10AA20000103DBB203F00103DAB2019BDA70009B91
:10AA3000DA69019B5A62009B9B8A0B2B07D8009B0B
:10AA4000DB7A002B03D1009B1B7B012B01D101235F
:10AA500000E0002303F00103DAB2019B1A70019BAE
:10AA60001B78002B27D0009B1B7B022B02D12C4B89
:10AA70009B7D01E0009B1B7B1846FFF7B0FF034660
:10AA80001A46019B9A70009B9B8A1A46019B9B78F1
:10AA900013440B33234A82FB03125210DB17D31AE1
:10AAA0000393039BDBB2013BDAB2019B5A72019B19
:10AAB00000221A7202E0019B04229A70019B00227C
:10AAC000DA75019B009A0C3392E8030083E80300D7
:10AAD000009B9A69019B1A62009B1A89019B9A82CA
:10AAE000009B9A7A019B9A75009B1A6A019B9A6255
:10AAF000019BDF22DA62009B184619F013F8034627
:10AB0000002B08D0009B1B78012B01D0FF2200E016
:10AB10002022019BDA6200BF05B05DF804FB00BF94
:10AB2000E0340020ABAAAA2A86B0039002910192D9
:10AB3000029B1A78039BDA70039B00225A62029BE5
:10AB40009B680B2B03D8029B1B7B002B01D001239E
:10AB500000E0002303F00103DAB2039B1A70039BA9
:10AB600000229A70039B1B78002B0DD0029B9B68E0
:10AB70000733DB080593059BDBB2013BDAB2039B8D
:10AB80005A72039B00221A72039B0122DA75039BFF
:10AB9000029A0C33103292E8030083E80300029B10
:10ABA000DA89039B9A82029B9A69039B1A62029B31
:10ABB0001A7F039B9A75029B1A6A039BDA62039BB6
:10ABC000019A9A6200BF06B0704700B58DB003903D
:10ABD00002910192039B9B781A46019B1344039AAE
:10ABE000D27D002A01D00B2200E00F229A4201D22E
:10ABF000092328E0039B9B781A46019B1A4404AB67
:10AC000005A90398FFF73AFA0B900B9B002B19D17B
:10AC10000A9B19460398FFF7EBF9039BDB7D002B9A
:10AC200006D0049B019A0299184629F0EAFC05E037
:10AC30000499039B019A0298FFF768FE05AB18463A
:10AC400006F036FE0B9B18460DB05DF804FB00B510
:10AC50008FB001900091019BDB7D002B01D0082378
:10AC600000E00C230D930D9B009A02FB03F30C9361
:10AC7000019B5B7A1A46009B934206D1019BB3F875
:10AC80004A301A460C9BD31A0D93009BDAB2019BF3
:10AC90001A72019803AB04A90D9AFFF7EFF90B9014
:10ACA0000B9B002B53D1009B002B13D1019B93F8DE
:10ACB000533083F00103DBB2002B0BD0019B9B6967
:10ACC0009BB2C3F30C039AB2019BDA80019B012271
:10ACD00083F85320019BDB7D83F00103DBB2002B63
:10ACE00022D0019B93F8523083F00103DBB2002B9A
:10ACF0001AD0009B002B04D07B460A930A98FDF7DC
:10AD0000CDFB019BD86E019BD96E019BB3F84A30F5
:10AD10001A46019B9B78D31A1A46019BFFF7F6FD52
:10AD2000019B012283F85220019B099A1146184683
:10AD3000FFF75EF90398019BDA6E0C9B13440D9AA2
:10AD4000194629F05EFC04AB184606F0B1FD0B9BDA
:10AD500018460FB05DF804FB00B585B00190009176
:10AD600000230393009B002B02D0009B00221A605B
:10AD7000019B93F850308DF80B3027E0019BDA6C83
:10AD80009DF80B30012101FA03F31340002B18D179
:10AD90009DF80B3019460198FFF759FF0390039B6C
:10ADA000002B1AD1009B002B04D0009B1B685A1C5F
:10ADB000009B1A609DF80B300133DAB2019B83F8D7
:10ADC00050209DF80B3001338DF80B30019B5B7ADE
:10ADD0009DF80B209A42D1D900E000BF039B184692
:10ADE00005B05DF804FB000010B5D2B007AB1860E9
:10ADF00006AB196005AB1A6007AB1B689B781A4657
:10AE000005AB1B6813444F9307AB1B68DB7D002B1E
:10AE100002D04FF4807201E04FF4C0724F9B9A420F
:10AE200001D20923D0E0002351932BE06849519AC5
:10AE30001346DB009B1A1B010B4448331B78012B84
:10AE40001DD16349519A1346DB009B1A1B010B4429
:10AE500014331A8807AB1B689B8A9A420FD15C494E
:10AE6000519A1346DB009B1A1B010B440E331A88C0
:10AE700007AB1B68DB899A4201D10823A4E0519BF0
:10AE800001335193519B032BD0D907AB4F9A01212A
:10AE90001868FEF7D5FE4E904E9B002B01D104237F
:10AEA00092E04E9BD86E05AA06AB1268196829F08D
:10AEB000A8FB00234A934AAB19464E98FFF74CFF74
:10AEC0004D904D9B002B02D04D9B042B78D14A9B7B
:10AED000002B02D04E98FFF75FF83E4B1B6803F043
:10AEE0000403002B6AD03C4B1B68032B66DD4E9B92
:10AEF000B3F84A304C934C9B802B28BF80234C9353
:10AF00000023509324E04E9BDA6E509B13441B7831
:10AF10008DF82F31314B1A689DF82F311B09DBB2A8
:10AF200003F00F031A44509B5B00117809AAD15417
:10AF30002A4B1A689DF82F3103F00F031A44509BD7
:10AF40005B000133117809AAD154509B013350930F
:10AF5000509A4C9B9A42D6D34C9B5B0009AA002185
:10AF6000D1542F211E4829F034FB0346002B06D074
:10AF70002F211B4829F02DFB03465C1C0EE05C21B1
:10AF8000174829F026FB0346002B06D05C21144805
:10AF900029F01FFB03465C1C00E0114CFEF7CAFAC7
:10AFA000024609AB02930F4B01930F4B00931346DC
:10AFB00040F251522146042007F016FF002303E01F
:10AFC0004E98FEF7E9FE4D9B184652B010BD00BFEB
:10AFD000F8340020302E0020342E00202C2E0020AB
:10AFE000C45105008C5205009C52050000B585B087
:10AFF000002303932CE01A49039A1346DB009B1AA3
:10B000001B010B4448331B78012B1ED100230193F5
:10B01000039A1346DB009B1A1B01114A134401AA31
:10B0200011461846FFF798FE0290029B042B02D0AF
:10B03000019B002B09D0039A1346DB009B1A1B01CE
:10B04000074A13441846FEF7A7FF039B01330393F7
:10B05000039B032BCFD900BF00BF05B05DF804FBF5
:10B06000F834002000B583B00190019B93F848307C
:10B07000022B12D1019B93F86830022B0DD1019A5B
:10B08000019BDB6C19461046FFF72EF80346002B98
:10B0900003D1019B002283F8682000BF03B05DF854
:10B0A00004FB000000B583B0002301930CE0019A7B
:10B0B0001346DB009B1A1B01074A13441846FFF78F
:10B0C000D1FF019B01330193019B032BEFD900BFFB
:10B0D00000BF03B05DF804FBF834002008B5FFF7AB
:10B0E00085FFFFF7DFFF0123184608BD00B595B0C7
:10B0F0000390029101920093039B9B691293039B1F
:10B100001B78002B0AD0039B9A69039BDB881946A6
:10B110001046FEF73CFC0246039B9A61039B03F139
:10B120000C00039BDB78002B01D0012100E0022101
:10B13000039B9B78082B0CBF01230023DBB21A462C
:10B140000EAB05F03FFF039B129A9A610EAB06937C
:10B15000029B0793019B9AB2039B9B789BB2D31AE5
:10B160009BB2ADF82030079BBDF8202013440C9310
:10B17000009B0B93039B9B788DF834300023ADF834
:10B180002830039BDB78002B3FD0039B1B7B022BDB
:10B1900005D11023ADF82830039B1B690993039B4D
:10B1A00000225A62039B186A039B1979039B24337C
:10B1B0001A4618F037FB14E0039B5B6A05AA114698
:10B1C0001846FFF74BFB0346002B01D000234DE050
:10B1D000039B186A039B1979039B24331A4618F0C2
:10B1E00021FB039B5B6A002BE6D1039B1B7B022B9D
:10B1F0003BD1039BDA89039B0C331946104618F0A8
:10B2000031FC0346002BC0D12FE0039B1B7B012B9D
:10B210002BD1039BDB89ADF81030039B9B8AADF8E3
:10B220001230002313931DE0039B00225A62139BEC
:10B230005B0014AA134433F8402C039B24331946B3
:10B24000104618F022FB039B5B6A05AA11461846BC
:10B25000FFF704FB0346002B01D0002306E0139BFD
:10B2600001331393139B012BDED90523184615B028
:10B270005DF804FB00B583B00190019B9B8A1846E2
:10B2800003F068FA0346012B03D1019B1B7B002BC3
:10B2900001D1102336E0019B9B7D5BB2002B01DACC
:10B2A00007232FE0019BDB7D002B10D0019B1B7B34
:10B2B000022B01D1102325E0019BDB785BB2002B30
:10B2C00003DB019B9B78002B1BD007231AE0019B1B
:10B2D000DB7883F00103DBB2002B05D0019B1B7BE5
:10B2E000012B01D007230DE0019B1B7883F00103A4
:10B2F000DBB2002B05D0019B9B78042B01D00723E8
:10B3000000E00023184603B05DF804FB00B587B0E9
:10B310000390029101920093029B002B01D109231B
:10B320008EE0089B0C3318220199184629F069F920
:10B33000089B00225A700398FEF7FFF90346002B82
:10B3400014BF01230023DAB2089B1A70089B1B78F4
:10B35000002B01D0042300E001230593029A059BF2
:10B360009A4201D209236BE0089BDB7D002B0AD0B7
:10B370000398FEF70BFA03461A46089BDA70089BFF
:10B3800000229A702EE00398FEF785F90346002B01
:10B3900014BF01230023DAB2089BDA700398FEF78A
:10B3A000A6F903461A46089B1A71089B1B78002BC6
:10B3B0000BD00398FEF710FA0346002B01D00822A9
:10B3C00000E00422089B9A700CE0089B04229A700B
:10B3D000089B9B781A46059B1344029A9A4201D215
:10B3E00009232DE0089B1B78002B14D00398FEF74F
:10B3F0001CFA03461A46089BDA800398FEF75BFAAC
:10B4000003461A46089B1A720398FEF79AFA0346F7
:10B410001A46089B5A72089B00225A62009B1B78AE
:10B42000032B04D97B4604930498FDF737F8009B5F
:10B430001B781A46044B53F82220089BDA6200233B
:10B44000184607B05DF804FB7053050010B58CB0CA
:10B450000790069105920493069B062B40F0CB8043
:10B460000798FEF7A6F80346ADF82E300798FEF7CA
:10B47000E6F80A900798FEF773F80346002B14BF0E
:10B48000012300238DF82730BDF82E30194605988A
:10B49000FEF7FCFE0890089B002B34D1584B1B682C
:10B4A00003F00403002B00F0A980564B1B68012B0E
:10B4B00040F3A4802F21544829F08BF80346002B39
:10B4C00006D02F21504829F084F803465C1C0EE07A
:10B4D0005C214D4829F07DF80346002B06D05C2105
:10B4E000494829F076F803465C1C00E0464CFEF71C
:10B4F00021F80346454A00924FF4CD6221460220CE
:10B5000007F072FC7AE09DF8273083F00103DBB28C
:10B51000002B40D0089BDA89059B9B8A9A423AD03F
:10B52000374B1B6803F00403002B66D0354B1B68B8
:10B53000012B62DD2F21344829F04BF80346002B04
:10B5400006D02F21304829F044F803465C1C0EE059
:10B550005C212D4829F03DF80346002B06D05C21E4
:10B56000294829F036F803465C1C00E0264CFDF71C
:10B57000E1FF0246089BDB891946059B9B8A0293E3
:10B580000191234B0093134640F26C622146022046
:10B5900007F02AFC31E09DF82730002B04D0059BF2
:10B5A0009A8A089BA3F85820089BDA6C0A9B1A43D6
:10B5B000089BDA640A9B002B04D103210898FEF74C
:10B5C00013FC1BE0089BDC6C089B1846FEF724FA72
:10B5D00003469C4203D10898FEF776FC0EE0089BD8
:10B5E000002283F8502000210898FFF7B5FB089847
:10B5F000FEF7D2FC02E000BF00E000BF0CB010BDBF
:10B60000302E0020342E0020C4510500A452050025
:10B61000D452050086B003468DF807300023059309
:10B6200021E0059BDB00144A134403930023049399
:10B6300011E0039B1A68049BDB0013440293029BF6
:10B640001B789DF807209A4202D1029B5B6810E0AC
:10B65000049B01330493039B5B68049A9A42E8D3EA
:10B66000059B01330593054B1B68059A9A42D8D375
:10B670000023184606B07047443700204C3700209E
:10B6800000B58FB003900291019200930198FEF7EC
:10B690000CFA0346002B3AD1019BDB78002B06D134
:10B6A000009B019A02990398FFF7D0FE32E0019BBC
:10B6B000DB781846FFF7AEFF0D900D9B002B28D0CE
:10B6C000019BDB788DF81030019B1B6A0A93019B6C
:10B6D0009B8AADF81E30019A08AB0C3292E8030049
:10B6E00083E80300019B9B7D8DF82C30039B059321
:10B6F000029B0693019B1B788DF81C30019BDB6A33
:10B700000C9304AA0D9B00991046984701E000BFD6
:10B7100000E000BF00BF0FB05DF804FB10B5F4B04F
:10B7200005AC206004A8016003A90A6002AA1360A6
:10B7300013AB04AA05A903A8126809680068FFF7FB
:10B74000D5FC7390739B002B4BD103AB1868FEF7AD
:10B75000ACF90346002B76D111AB01221A7003AB72
:10B760001B689A8A11AB5A8011AB00225A6006AB53
:10B7700000221A7006AB13AA5A6004AB1B689AB277
:10B7800003AB1B689B789BB2D31A9AB206AB1A81A3
:10B7900006AB11AA0C3392E8030083E8030006AB62
:10B7A00003AA126814330C3292E8030083E8030002
:10B7B00003AB1B689A7D06AB83F8242003AB1B68A0
:10B7C0001A6A06ABDA6103AB1B685A6A06AB1A62E7
:10B7D00006AB02AA12689A6206AB184600F0C6FAD7
:10B7E00031E01A4B1B6803F00403002B2BD0184BDD
:10B7F0001B68052B27DD2F21164828F0EAFE03469B
:10B80000002B06D02F21134828F0E3FE03465C1CD2
:10B810000EE05C210F4828F0DCFE0346002B06D02A
:10B820005C210C4828F0D5FE03465C1C00E0094C66
:10B83000FDF780FE0346084A009240F2F26221467C
:10B84000062007F0D1FA00BF74B010BD302E0020E2
:10B85000342E0020C45105001853050000B585B0F2
:10B860000390029101920093019B5B7803F0010326
:10B87000002B10D0019BDB7D002B06D0009B019A92
:10B8800002990398FFF7FCFE05E0009B019A0299DC
:10B890000398FFF743FF00BF05B05DF804FB00B558
:10B8A00085B001900091009B0393039B93F848306F
:10B8B000022B04D07B4602930298FCF7EFFD039B1A
:10B8C000022283F868200398FFF7CCFB00BF05B085
:10B8D0005DF804FB00B585B001900091009B0393D7
:10B8E000039B93F84830012B04D07B4602930298C7
:10B8F000FCF7D4FD0398FEF7A5FC00BF05B05DF88A
:10B9000004FB00B585B001900091009B03930021DA
:10B910000398FEF769FA00BF05B05DF804FB00006C
:10B9200000B591B002910192009303468DF80F305B
:10B930009DF80F30002B0ED1009B13F1020F0AD09F
:10B9400001238DF81430009B0693019B079305ABF0
:10B95000184600F00BFA044B1B68184605F072F904
:10B9600000BF11B05DF804FB4037002000B587B080
:10B970000390029101920398FFF77CFC0590059BD0
:10B98000002B01D0059B10E0039B1B78002B06D0F9
:10B99000019A02990398FFF727FA034605E0019AF6
:10B9A00002990398FFF711F90346184607B05DF8AE
:10B9B00004FB000008B54FF4E07200211A4828F09B
:10B9C00049FE09F06FF8194B00221A60802200210D
:10B9D000174828F03FFE174B174A1A60154B174AB5
:10B9E0005A60144B4CF250329A60124B144ADA608F
:10B9F000104B4CF250321A610E4B04221A750D4B4B
:10BA000000229A750B4B08225A750E4805F0E8F88B
:10BA100003460D4A13600D4B00221A600C4809F0D2
:10BA20007FFB00BF08BD00BFF8340020B8360020FF
:10BA3000C0360020E034002080969800F0490200D3
:10BA400020A10700DDB00200403700204C37002065
:10BA500021B9020008B509F02FF800BF08BD00B5F4
:10BA600097B0059004910392029300231593059BD0
:10BA7000002B02D0039B002B01D10E2367E009AB02
:10BA80000093029B039A04990598FFF73FFC1590D9
:10BA9000159B002B01D0159B59E009AB1846FFF709
:10BAA000E9FB1590159B002B01D0159B4FE007ABD0
:10BAB00008220021184628F0CDFD039B5B8807AAC9
:10BAC0001146184617F0CEFF0346002B06D09DF80E
:10BAD000253043F00103DBB28DF82530039B188934
:10BAE000039BD968039B1B691A4609F043F8034678
:10BAF000002B0CD09DF8253023F00103DBB28DF82C
:10BB000025309DF82530002B01D1159B1FE09DF8B5
:10BB10002530002B01D1159B19E09DF8253003F04D
:10BB20000103002B01D0089B0D939DF82430002BBE
:10BB300006D009AA029B04990598FEF78BFD05E043
:10BB400009AA029B04990598FEF774FE0023184683
:10BB500017B05DF804FB00B58FB001900091019B18
:10BB6000002B0BD0019B1B69002B07D0019BDB69CD
:10BB7000002B03D0019B9B69002B01D10E230EE00B
:10BB800002AB01991846FEF739FF019B1969019B29
:10BB90009B8A1A4602AB1846FFF7E8FE0346184692
:10BBA0000FB05DF804FB000010B592B00590049151
:10BBB000059B002B07D0059B5B68002B03D0059BE2
:10BBC0009B69002B01D10E2349E006AB049A05992D
:10BBD0001846FEF7A9FF234B1B6803F00403002B54
:10BBE00033D0214B1B68062B2FDD2F211F4828F057
:10BBF000F0FC0346002B06D02F211C4828F0E9FC5E
:10BC000003465C1C0EE05C21184828F0E2FC034669
:10BC1000002B06D05C21154828F0DBFC03465C1C99
:10BC200000E0124CFDF786FC0246059B1B78194686
:10BC3000059B9B69029301910D4B0093134640F2C3
:10BC4000F4722146072007F0CFF8059B5B68194680
:10BC5000059B9A6806AB1846FFF788FE0346184610
:10BC600012B010BD302E0020342E0020C45105002B
:10BC70004453050000B585B001900091019B002B55
:10BC800001D10E2349E0274B1B68002B01D0042370
:10BC900043E00023039329E0039BDB00019A134454
:10BCA0005B68002B01D10E2337E0039BDB00019A78
:10BCB00013441B785BB2002B01DA0B232DE0039BAE
:10BCC000DB00019A13441B78002B0AD0039BDB0096
:10BCD000019A13441B781846FFF79CFC0346002B7F
:10BCE00001D00F2319E0039B01330393039A009BB8
:10BCF0009A42D1D30B4B1B680B49019A41F8332070
:10BD0000084B1B68084ADB001344009A5A60054B35
:10BD10001B680133034A13600023184605B05DF821
:10BD200004FB00BF4C3700204437002000B585B02D
:10BD30000D4B1B6803930FE0039B043B0293039B93
:10BD40001B680193029B1B7A002B03D003990648C2
:10BD500006F074FF019B0393039B002BECD100BF03
:10BD600000BF05B05DF804FB5037002000B587B078
:10BD70000190019B002B04D17B4604930498FCF7AF
:10BD80008DFB164B1B68002B23D0154B01221A701C
:10BD9000124B1B68059310E0059B043B0393039B28
:10BDA0001B7A83F00103DBB2002B03D0039B1B68DB
:10BDB00001989847059B1B680593059B002BEBD1C9
:10BDC000074B1B78022B04D1FFF7B0FF044B002276
:10BDD0001A7000BF07B05DF804FB00BF50370020A9
:10BDE0005437002000B585B00190019B002B04D191
:10BDF0007B4603930398FCF751FB019B00221A72C8
:10BE0000019B04331946034806F0D7FE00BF05B076
:10BE10005DF804FB5037002000B585B00190019B10
:10BE2000002B04D17B4603930398FCF737FB0D4BA3
:10BE30001B78012B03D00B4B1B78022B06D1094B2F
:10BE400002221A70019B01221A7206E0019B043340
:10BE50001946054806F0F2FE00BF00BF05B05DF8C8
:10BE600004FB00BF543700205037002082B00190FF
:10BE70000091019B9B68009AD31A9BB2184602B0AE
:10BE8000704782B001900B46ADF80230019B9A6872
:10BE9000BDF802301344184602B0704700B585B0B3
:10BEA00001900091009B1B8819460198FFF7E9FF5C
:10BEB00003461B880433ADF80C30009B1A88BDF88C
:10BEC0000C3003339BB223F003039BB21344ADF851
:10BED0000E30BDF80E20019B1B88043B9A4202D90C
:10BEE0000023ADF80E30009BBDF80E201A8000BF75
:10BEF00005B05DF804FB00B585B001900091009994
:10BF00000198FFF7B3FF0346ADF80E300DF10E03B5
:10BF100019460198FFF7C2FFBDF80E301946019887
:10BF2000FFF7AFFF0346184605B05DF804FB00B508
:10BF300085B001900091019B9B68019A92881344FF
:10BF4000009A9A4204D07B4603930398FCF7A6FA22
:10BF5000009B00229A70019B043319460198FFF759
:10BF60009DFF019B9B8819460198FFF78AFF0346B6
:10BF70009B78042B02D1019B00229A8000BF05B060
:10BF80005DF804FB00B585B001900091019B9B68B2
:10BF9000019A52881344009A9A4204D07B46039334
:10BFA0000398FCF77BFA009B00229A7000BF05B053
:10BFB0005DF804FB82B00190019B1B88043B9BB29F
:10BFC000184602B0704700B585B001900B46ADF839
:10BFD0000230019B5B8819460198FFF752FF0390DE
:10BFE000039BBDF802201A80039B01229A70039BD9
:10BFF000184605B05DF804FB00B583B00190002140
:10C000000198FFF73EFF034600229A70019B002231
:10C010005A80019B00229A8000BF03B05DF804FBA8
:10C0200000B587B001900B46ADF80230BDF8023084
:10C0300007339BB223F00303ADF81230019B5A88FB
:10C04000019B9B889A420FD2BDF81220019B9B88CE
:10C050001946019B5B88CB1A9A4202DC00230593A8
:10C0600044E00423059341E0019B5A88019B9B888F
:10C070009A4229D9019B1B881A46019B5B88D31AD7
:10C080000393BDF81230039A9A4202D3002305931A
:10C090002CE0019B9B88BDF812209A4211D8039B8B
:10C0A000032B08D9019B5B8819460198FFF7E9FE2D
:10C0B000034604229A70019B00225A8000230593B4
:10C0C00014E00423059311E0019B9B881946019815
:10C0D000FFF7D7FE03469B78002B05D10198FFF7A9
:10C0E0008BFF0023059301E004230593059B18466D
:10C0F00007B05DF804FB00B58BB0039002911346C6
:10C10000ADF80630029B002B04D17B4609930998B9
:10C11000FCF7C4F9039B002B04D17B4608930898D5
:10C12000FCF7BCF9029BB3F1005F09D94FF08053D3
:10C13000D3F80C3103F500239A02029B9A4212D8DD
:10C14000029BB3F5000F09D94FF08053D3F80C319F
:10C1500003F500539A02029B9A4204D87B46079348
:10C160000798FCF79BF9BDF80630013B029A13448F
:10C17000B3F1005F0ED9BDF80630013B029A1344BB
:10C180001A464FF08053D3F80C3103F500239B027D
:10C190009A421BD3BDF80630013B029A1344B3F513
:10C1A000000F0ED9BDF80630013B029A13441A461F
:10C1B0004FF08053D3F80C3103F500539B029A42A1
:10C1C00004D37B4606930698FCF768F9BDF8063061
:10C1D000042B04D87B4605930598FCF75FF9039B75
:10C1E000BDF806201A80039B00225A80039B002280
:10C1F0009A80039B029A9A6000210398FFF741FE00
:10C200000490039B1B88043B9AB2049B1A80049BF6
:10C2100000229A7000BF0BB05DF804FB00B589B036
:10C220000190019B002B04D17B4607930798FCF7F4
:10C2300035F9019B5B8819460198FFF722FE0346FA
:10C240009B78012B04D17B4606930698FCF726F9D0
:10C25000EFF31083059372B6019B9B8819460198F2
:10C26000FFF70FFE0490049B9B78032B0CBF012368
:10C2700000238DF80F309DF80F30002B10D004995B
:10C280000198FFF738FE049004990198FFF7EEFD3E
:10C2900003461A46019B5A80049B00229A7002E0D2
:10C2A0000198FFF7A9FE059B002B01D162B600BFE4
:10C2B00000BF09B05DF804FB00B58BB0039002919C
:10C2C0001346ADF80630039B002B04D17B4609933F
:10C2D0000998FCF7E3F8029B002B04D17B460893F6
:10C2E0000898FCF7DBF8039B5B8819460398FFF777
:10C2F000C8FD03469B78012B04D17B460793079822
:10C30000FCF7CCF8BDF80630002B08D00398FFF7F7
:10C3100051FE03461A46BDF80630934201D909235F
:10C320001CE0EFF31083069372B6BDF80630194691
:10C330000398FFF775FE0590059B002B08D1BDF80B
:10C34000063019460398FFF73EFE0246029B1A602C
:10C35000069B002B01D162B600BF059B18460BB0AF
:10C360005DF804FB00B58DB0039002911346ADF863
:10C370000630039B002B04D17B460B930B98FCF7F4
:10C380008DF8029B002B04D17B460A930A98FCF798
:10C3900085F8029B9B78012B04D07B460993099872
:10C3A000FCF77CF8029B1B88BDF806209A4204D952
:10C3B0007B4608930898FCF771F8BDF80630002B0F
:10C3C00004D17B4607930798FCF768F8EFF31083D6
:10C3D000069372B6029BBDF806201A80029B0222C9
:10C3E0009A70039B023319460398FFF757FD039B8E
:10C3F0005A88039B9B889A4209D0039B5B88194605
:10C400000398FFF73EFD0590059B00229A70069B5E
:10C41000002B01D162B600BF00BF0DB05DF804FB78
:10C4200000B589B001900091019B002B04D17B469F
:10C4300005930598FCF732F8009B002B04D17B464E
:10C4400004930498FCF72AF800230793EFF3108372
:10C45000039372B6019B9B8819460198FFF711FD63
:10C460000690069B9B78042B0CD1019B0433194644
:10C470000198FFF713FD019B9B8819460198FFF770
:10C4800000FD0690069B9B78022B02D0032B07D061
:10C490000CE0069B03229A70009B069A1A6008E043
:10C4A0007B4602930298FBF7F9FF02E0052307930E
:10C4B00000BF039B002B01D162B600BF079B18464B
:10C4C00009B05DF804FB00B587B00190019B002B1B
:10C4D00004D17B4604930498FBF7E0FFEFF310834D
:10C4E000039372B6019B9B8819460198FFF7C9FC1C
:10C4F0000590059B9B78042B04D105990198FFF7C3
:10C50000FAFC0590059B9B78022B0CBF01230023AE
:10C510008DF80B30039B002B01D162B600BF9DF854
:10C520000B30184607B05DF804FB00B587B00190EA
:10C53000019B002B04D17B4604930498FBF7AEFFCC
:10C54000EFF31083039372B6019B9B881946019801
:10C55000FFF797FC059004E005990198FFF7CBFCE5
:10C560000590059B9B78032BF6D0059B9B78042BAD
:10C57000F2D0059B9B78022B0CBF012300238DF882
:10C580000B30039B002B01D162B600BF9DF80B302E
:10C59000184607B05DF804FB00B587B00190009124
:10C5A000019B002B04D17B4605930598FBF776FF92
:10C5B000009B002B04D17B4604930498FBF76EFF8D
:10C5C000EFF31083039372B6009B9B78012B06D088
:10C5D000032B09D100990198FFF7A9FC09E0009904
:10C5E0000198FFF7CFFC04E07B4602930298FBF72B
:10C5F00055FF039B002B01D162B600BF00BF07B0FF
:10C600005DF804FB00B587B00190EFF3108304934D
:10C6100072B6019B9B8819460198FFF732FC059082
:10C62000059B9B78042B04D105990198FFF763FCC7
:10C630000590059B9B78002B0CBF012300238DF8F0
:10C640000F30049B002B01D162B600BF9DF80F3064
:10C65000184607B05DF804FB024BD3F804351846C2
:10C66000704700BF0010014000B589B003900291EF
:10C670000192009301238DF81030039B0593029BD8
:10C680000793019B069304AB009A1946012001F021
:10C69000F9FE0346184609B05DF804FB00B589B001
:10C6A00003900291019202238DF81030039B0593B1
:10C6B000029B069304AB019A1946012001F0E2FEA9
:10C6C0000346184609B05DF804FB82B00190019B57
:10C6D0005B791B035B42019A1344184602B0704712
:10C6E00082B00190019B1B791A46019B5B79D31A9A
:10C6F00003F57F2303F6FF731B03019A13441846C7
:10C7000002B0704700B583B001900198FFF7E8FFD1
:10C71000034603F58053184603B05DF804FB82B06E
:10C720000346ADF80630BDF80630002B06D0BDF844
:10C730000630B3F5FE4F01D2012300E0002303F0E1
:10C740000103DBB2184602B0704782B00190019B32
:10C750001B781A46019B1344184602B0704700B577
:10C7600085B00190019B1B88002B04D17B4603936D
:10C770000398FBF793FE019B1B889B00019A1A44C8
:10C78000019B1B889B0001990B4423F47F6323F0DA
:10C790000F039A4204D0019B5B88B3F5FE4F0BD187
:10C7A000019B23F47F6323F00F0303F580531846A6
:10C7B000FFF7CBFF034604E0019B1B889B00019A17
:10C7C0001344184605B05DF804FB00B585B0019030
:10C7D0000091019B03930198FFF7C1FF0190019A1B
:10C7E000009B9A4203D2019A039B9A4201D80023EC
:10C7F0000BE0019B5B881846FFF791FF034683F02F
:10C800000103DBB2002BE6D1019B184605B05DF8B1
:10C8100004FB00B585B00390029101920093039B45
:10C8200000225A60029B5B881846FFF778FF034698
:10C8300083F00103DBB2002B0CD001990298FFF7C3
:10C84000C4FF0290029B002B04D1039B00221A60BC
:10C85000002330E0039B029A1A600BE0039B5A68A6
:10C86000029B1B889B001A44039B5A600298FFF7A7
:10C8700076FF0290029A019B9A421BD2039B5A6850
:10C88000029B1B889B001344009A9A4212D9039B77
:10C890001B681A46029B534023F47F6323F00F0367
:10C8A000002B07D1029B5B881846FFF738FF034631
:10C8B000002BD3D1029B184605B05DF804FB0000A5
:10C8C00010B5134BDB681846FFF73FFF104BDB68D2
:10C8D00003F580530022194608F0D3FB0346002BD2
:10C8E00013D10B4BDC680A4BDB681846FFF7F8FEE8
:10C8F00003469C4201D1022308E0054BDB6803F5A7
:10C900008053034AD360032300E00123184610BD7F
:10C910005C37002008B5084B1B68084A4FF480516B
:10C920001846FFF7BBFE0346002B01D1012300E0B0
:10C930000023184608BD00BF583700207837002074
:10C9400000B583B0134BDB681B780193124B1B6857
:10C95000181D104BD968114B019AFFF785FE03464D
:10C96000002B12D10C4B1A68019B9B089B001344AF
:10C970000433084A5361074BDB681846FFF7E5FEAE
:10C980000346044A1361012300E00023184603B064
:10C990005DF804FB5C370020583700207837002012
:10C9A00010B588B0344B1B69002B04D17B4606932D
:10C9B0000698FBF773FD304B5B69002B04D17B4677
:10C9C00005930598FBF76AFD00238DF81F3048E0BA
:10C9D000294B5B6923F47F6323F00F03264A5269D6
:10C9E0009B1A03F580530493234B1C69224BDB688D
:10C9F0001846FFF787FE02466846049B2146FFF76C
:10CA000008FF0390019B002B1FD01B4B5869009916
:10CA1000019A1A4BFFF728FE0346002B13D1164B41
:10CA20005A69019B23F003031344134A5361039B88
:10CA3000002B04D17B4602930298FBF72FFD0E4A90
:10CA4000039B136104E0002313E001238DF81F30E2
:10CA5000039B002B0CD0039B5B8847F6FF7293422D
:10CA600006D09DF81F3083F00103DBB2002BAFD15D
:10CA70000123184608B010BD5C370020783700202D
:10CA800008B5084B1B681846074B04220749FFF7F7
:10CA9000EBFD0346002B01D1012300E000231846E3
:10CAA00008BD00BF583700207837002068370020C5
:10CAB00008B5084BDB68084A4FF480511846FFF769
:10CAC000EDFD0346002B01D1012300E000231846B1
:10CAD00008BD00BF5C3700207837002008B50A4B3E
