:020000022000DC
:1070000000F003206D7302005573020057730200F5
:10701000597302005B7302005D7302000000000000
:107020000000000000000000000000005F7302008C
:1070300061730200000000006373020065730200C8
:10704000677302006773020067730200D9BD030013
:1070500067730200677302004D83020067730200CA
:107060006773020067730200518D030067730200AB
:1070700067730200677302006773020067730200A0
:1070800067730200212C0400E5D30200677302003D
:10709000092D04006773020071C8030067730200C2
:1070A0006773020067730200677302006773020070
:1070B0006773020067730200000000000000000018
:1070C0006773020067730200677302006773020050
:1070D0006773020067730200677302006773020040
:1070E000677302006773020067730200000000000C
:1070F00000000000677302000000000067730200D8
:10710000000000000000000000000000000000007F
:10711000000000000000000000000000000000006F
:10712000000000000000000000000000000000005F
:10713000000000000000000000000000000000004F
:10714000000000000000000000000000000000003F
:10715000000000000000000000000000000000002F
:10716000000000000000000000000000000000001F
:10717000000000000000000000000000000000000F
:1071800000000000000000000000000000000000FF
:1071900000000000000000000000000000000000EF
:1071A00000000000000000000000000000000000DF
:1071B00000000000000000000000000000000000CF
:1071C00000000000000000000000000000000000BF
:1071D00000000000000000000000000000000000AF
:1071E000000000000000000000000000000000009F
:1071F000000000000000000000000000000000008F
:10720000344935480A1A02D0072291438D46334942
:1072100033480A1A06D00722914381F309880222D3
:1072200082F314882F483049304A00F042F8304841
:107230003049314A00F03DF830483149314A00F0D8
:1072400038F831483149324A00F033F83148324990
:10725000324A00F02EF832483249334A00F029F819
:1072600032483349334A00F024F833483349002286
:1072700000F02AF832483349002200F025F832485D
:107280003249091A082902DB0022026041601F48C6
:107290001F49884205D00268043003B4904703BCFC
:1072A000F7E700208646EC4600200021284A904758
:1072B000FEE7884207D0521A05D0037801300B70E0
:1072C0000131013AF9D17047884202D00270013091
:1072D000FAE7704700F0032000E8032000F00320E5
:1072E00000F0032098810400002E0020D02E002002
:1072F000A0730200A0730200A25B04009881040046
:10730000002E0020002E0020185F0400185F0400EB
:10731000185F0400185F0400185F0400185F040081
:10732000185F0400185F040095810400688204005F
:10733000D02E0020D02E0020D02E00209A690020D0
:107340009C6900209C6900209C6900209C6D0020A5
:10735000E9780200FEE7FEE7FEE7FEE7FEE7FEE76C
:10736000FEE7FEE7FEE7FEE700F002B8FFF7FCBF2E
:1073700008484FF00701884385460748804707487B
:10738000016841F470010160BFF34F8FBFF36F8F4D
:10739000FFF736BF00F0032009CB030088ED00E0C3
:1073A00041DF7047037813B9014B01221A7070470F
:1073B000202F002038B51C4C2378042B30D8DFE870
:1073C00003F00C2A121F0300184B1A7822B1002573
:1073D0001D701DF0D9FF257038BD144A002101230E
:1073E0001170237038BD114B1A78002AF4D0002296
:1073F00047F6A2401A701DF0C1FF0323237038BD69
:107400000A4B1A78002AE7D000221A701DF0F0FF0C
:107410000423237038BD1DF0B3FF0223237038BD51
:107420000023237038BD00BFD02E0020202F002065
:1074300030B5104985B0096802AC84E80C004B04F3
:10744000054603D50C4B1B68032B06DC234603CBF8
:1074500028602846696005B030BD1146074B084AD0
:10746000D3F804350420CDE900210649C42207F0F1
:10747000B1F8EBE7802E00207C2E002000100140A8
:107480007C5F0400735F040010B50D200C4600F013
:107490009FFE207010BD00BF10B50E4B1B685B0433
:1074A00082B00C4603D50C4B1B68032B06DC21462F
:1074B0000D2002B0BDE8104000F096BE074A084B10
:1074C0000849D3F804350420CDE90024CC2207F084
:1074D00081F8ECE7802E00207C2E00209C5F0400C9
:1074E00000100140735F040000B50F4B1B685B0484
:1074F00083B003D50D4B1B68032B0ADC0322C82184
:107500004FF4F03000F086FE03B05DF804EB0AF0B3
:10751000B9BD074B074AD3F8043507490092042048
:10752000E92207F057F8E9E7802E00207C2E0020A2
:1075300000100140B45F0400735F0400F0B52D4DEE
:107540002B68590483B0044603D52B4E3368032BB4
:107550000FDC54B3032C0AD10AF092FD002833D17A
:107560002B685B0403D5244B1B68032B35DC03B06D
:10757000F0BD224A224F2349D7F80435CDE9002037
:10758000F622042007F026F8002CE3D12B685A04D9
:107590000BD53368032B08DD1B4AD7F8043519498E
:1075A00000920420FD2207F015F80D2000F010FED7
:1075B00080F00100C1B20D2000F016FE134803B0A8
:1075C000BDE8F04000F0F0BB0BF096FF0AF0FEFCC7
:1075D00003B0BDE8F040FFF787BF094B0C4AD3F872
:1075E000043508490092042040F20D1206F0F2FF23
:1075F000BDE700BF802E00207C2E0020D05F04005D
:1076000000100140735F0400E45F0400002E0020BE
:10761000F45F04003038042800D97047FFF78EBFAC
:1076200003781C2B00D07047FFF75EBF30B5324D9A
:107630002B68590483B003D5304B1B68032B40DC07
:107640002F48002100F0D2FB48BB2B685A0403D519
:107650002A4B1B68032B40DC2A4C2B4A2B4B6260C5
:1076600020460121A3601DF0DFFD98B92B685B0463
:1076700003D5224B1B68032B16DC20880DF02AFE55
:1076800008B903B030BD224AE22103B0BDE8304062
:1076900015F01CBB1E4AE02115F018FBE6E71C4A5A
:1076A000DA2115F013FBD0E721881A4A1A4B04207F
:1076B000D3F80435CDE900211849E12206F08AFF0C
:1076C000DBE7154B164AD3F8043514490092042021
:1076D00040F23D1206F07EFFB2E7094A0E4B1188D8
:1076E000104AD3F804350420CDE900210B49DB22F0
:1076F00006F070FFB0E700BF802E00207C2E002037
:10770000002E0020F42E00202977020031740200A0
:10771000345F04006860040000100140735F0400DF
:107720002C6004004C6004002DE9F04383B0044653
:107730001DF02AFEFCEEC07A1D4F17EE906A1DF078
:107740003FFE3B68FCEEC07A5A0417EE905A05D50E
:10775000DFF86C80D8F80030032B05DC204626606B
:10776000656003B0BDE8F083124ADFF85890124913
:10777000D9F804350420CDE90026BC2206F02AFF02
:107780003B685B04EAD5D8F80030032BE6DD0B4AF2
:10779000D9F804350849CDE900250420BD2206F0BA
:1077A00019FF20462660656003B0BDE8F08300BF86
:1077B000802E002080600400735F0400A06004003D
:1077C0007C2E00200010014010B5044600214FF42B
:1077D000F03004EB840400F013FD62003221BDE8B8
:1077E00010404FF4C03000F015BD00BF00F044BDA4
:1077F00010B5204C23685A0484B003D51E4B1B6877
:10780000032B2BDC00F086FF00F0AEFF03A80FF087
:1078100027FC23685B0403D5174B1B68032B0EDC86
:1078200000F02AFD00214FF4F03000F0E9FC0422C2
:10783000C8214FF4F03000F0EDFC04B010BDBDF8ED
:107840000C100E4A0E4B0420D3F80435CDE900216C
:107850000C4940F2351206F0BDFEE1E7084B0A4A3A
:10786000D3F804350749009204204FF4957206F0CE
:10787000B1FEC7E7802E00207C2E0020DC600400D3
:1078800000100140735F0400C060040030B585B093
:107890001B211A2000234FF0CC7502240091019087
:1078A0000D4A0E488DF80F306946ADF80D3002953F
:1078B0008DF80C4014F00AF820B9094814F038F992
:1078C00005B030BD074A522115F000FA044814F003
:1078D0002FF905B030BD00BFA5730200946104000C
:1078E00098610400345F040000B58DB0FFF7CEFF4F
:1078F00061481DF021FD1BF0B9FB002866D15F4AED
:107900005F4801211BF01AFC002840F08E805D4D7D
:107910005D4A5E4C05214FF4103006F04BFE2B689B
:107920005A0403D52368032B00F384801BF09EFBCD
:10793000002874D100F0B0FC554800F0DDFC0028B0
:1079400067D100F0C1FE00F0E5FE00F00DFF20223F
:10795000002103A81EF0C0F80122072306218DF89C
:107960000C208DF80F304B4A4B4B8DF8141003A8A8
:107970004A4907920B930AF035FB20B10B2865D1D9
:107980002B685B0468D44648642100F0B5FB434B88
:107990001B785BB301F008F800F014FD0AF0A0FAC0
:1079A000F0B900214FF4F03000F02AFC0222C82187
:1079B0004FF4F03000F02EFC3A48002241F69A11C4
:1079C0001BF0CEFB38B9FFF7EBFCFCE7364A9C21F5
:1079D00015F07CF993E7344A932115F077F9F2E733
:1079E000314A40F27D1115F071F9DAE72F4D0FCDD4
:1079F00003AC0FC495E8030084E8030003A800F07B
:107A00001DFB0028C6D0284A4FF4BC7115F05EF962
:107A1000C0E7254A4FF4AF7115F058F991E7224AB3
:107A20004FF4AD7115F052F984E71F4AA22115F009
:107A30004DF96CE71E4B1F4AD3F804351E490092DE
:107A400004204FF4AC7206F0C5FD6FE7164A4FF400
:107A5000A97115F03BF996E72368032B93DD144BCE
:107A6000164AD3F8043514490092042040F24D120E
:107A700006F0B0FD87E700BF94610400B573020013
:107A800090610400802E002089E502007C2E0020F9
:107A90003D750200217602002D760200D12E0020D5
:107AA00015760200002F0020345F0400746104008A
:107AB00000100140F4600400735F040024610400BE
:107AC00030B5036B044683B018681BF0A3FB636CEE
:107AD0008BBB236C6BB34FF400424FF4FA70002160
:107AE000E2FB030100234FF47A721DF093FEB0F124
:107AF000807F236B3AD2042831D8186822460521AA
:107B00001BF02EFB05461BF095FBA0648DB11B4BB3
:107B10001B685B040DD51A4B1B68002B09DD194B44
:107B2000194AD3F80435194900920120682206F059
:107B300051FD03B030BD4FF400424FF4FA70002104
:107B4000E2FB03014FF47A7200231DF063FE236B06
:107B50000146224618681BF003FB0546D6E701469E
:107B6000224618681BF0FCFA0546CCE71868224646
:107B70006FF07F411BF0F4FA0546C4E7802E002029
:107B80007C2E00200010014000620400F36104001C
:107B900030B5204B1B685B0483B00446154603D503
:107BA0001D4B1B68032B26DCA36B04F13C01204614
:107BB000984794F83C302B7094F83D306B70236CF0
:107BC0000BB1626C12B16B6003B030BD1BF032FBC5
:107BD000A16C1BF035FB4FF47A73226C03FB00F0B1
:107BE000B2EBD03F4FEAD03310D3B0F5004F0DD3F6
:107BF000D21A6A60E8E7094B094AD3F80435094903
:107C000000920420AA2206F0E5FCCDE700236B6079
:107C100003B030BD802E00207C2E002000100140DB
:107C200020620400F361040070B5436C88B0044620
:107C300023B9026C90F83D3052B14BB91B4B1B6815
:107C40005B0403D51A4B1B68042B19DC08B070BD0C
:107C500084F83C3006A920468DF818308DF819308C
:107C600007921AF0FFFE94F84C30002BE6D1636BBC
:107C700094F83C1020469847012384F84C30DDE707
:107C800094F83D0094F83C10266C656C094B0A4A48
:107C9000D3F804350092CDE90110CDE90356074928
:107CA0008422052006F096FC08B070BD802E0020CE
:107CB0007C2E0020001001402C620400F3610400BF
:107CC000F0B51C49096883B01D464B04089F044663
:107CD000164603D5184B1B68032B1EDC337884F83B
:107CE0003D30002384F84C30A5B1D5E90032C4E919
:107CF00010322046FFF798FF2046FFF7E1FE3FB124
:107D000094F83C303B7094F83D307B70236C7B6082
:107D100003B0F0BDC4E91055EBE71178074B084AF2
:107D2000D3F804350420CDE900210649CC2206F021
:107D300051FCD3E7802E00207C2E00200010014053
:107D40006C620400F361040070B5466C0446CEB961
:107D5000056C95B14FF400434FF4FA700021E3FB3A
:107D600005014FF47A7200231DF054FDB0F1807FBD
:107D700011D36FF4FF731D4425642046BDE87040A5
:107D8000FFF79EBE00234364FFF74EFF2046BDE889
:107D90007040FFF795BE20462664FFF745FF20465A
:107DA000BDE87040FFF78CBE10B5044682B000F10C
:107DB0003C01836B9847226B94F83C3084F83D304B
:107DC00000231068C4E910331BF024FA94F83C1027
:107DD00094F83D20236C8DF80010204669468DF8FC
:107DE000012001931AF03EFE02B010BDA0B1436B1A
:107DF0000A4A10B50446C26263B1836B53B11AF0EC
:107E000005FE00B110BD0146054A206BBDE81040DB
:107E10001BF094B90E2010BD0E2070477C62040048
:107E2000497D020010B5304C227884B01AB1012887
:107E30000CD0032801D004B010BD14F07FFC002842
:107E4000F9D02A4A9B2114F041FFF4E7002302A94C
:107E5000029314F0B9FB002841D102A814F00AFCE7
:107E6000002837D1012303A90DF1060003930FF079
:107E7000F1FC50BBBDF806000FF040FA0DF1050112
:107E80000FF092FBE0B90BF0D5FA9DF80510002039
:107E90000BF000FC80B903F07DFF40B9144B1B6868
:107EA00000222270002BC6D0984704B010BD0F4AA4
:107EB0008E2114F00BFFF1E7784600F035FDEAE77C
:107EC0000A4A7E2114F002FFDDE7084A7D2114F002
:107ED000FDFECFE7054A752114F0F8FEC2E7034A1C
:107EE000722114F0F3FEB8E7232F0020846204000F
:107EF000242F002008B503781C2B00D008BD084BA8
:107F00001B78002BFAD014F059FC20B9BDE80840CA
:107F1000044803F0A1BF044A5E2114F0D7FEF5E740
:107F2000232F0020502E00208462040010B5074942
:107F3000074815F0C7FA00B110BD064B0246196993
:107F40000548BDE81040032315F0BEBA3C2F0020C1
:107F5000A8320020242F00207431002010B50378AF
:107F6000023B082B0FD8DFE803F00F381D0E0E2A56
:107F70000E0E0500D0E9021009F0C8FF002849D113
:107F8000274B01221A7010BD254B1B78002B31D1D5
:107F9000244AD26812B124490B709047BDE81040C2
:107FA000FFF7C4BF1F4B9B68002BECD01E4A117813
:107FB0000029E8D00021BDE8104011701847194B86
:107FC0001A485969102215F0F1FA0028DBD0BDE8F3
:107FD0001040174AF52114F079BE124B5B68002B54
:107FE000D1D0007A0028CED00F4A0121BDE8104040
:107FF000117018470F4B104801221A7003F02AFF26
:1080000003F00EFF0028BED0BDE81040084AAE21A4
:1080100014F05CBE064AFB2114F058FEB0E700BF26
:10802000222F0020242F0020212F00207431002037
:1080300084620400232F0020502E0020F0B51F4B37
:108040001F4F044693E8070087B003AE03C64FEA0C
:10805000124C26F8022B0FCC3D460FC594E80300C6
:1080600085E803007B6986F800C023B3154B0093B5
:10807000154A1649164803AB15F0EAF908B107B0DE
:10808000F0BD144816F04AFE0146114815F004FAF6
:108090000028F4D1104816F0CBFF0028EFD10E488D
:1080A00016F0F8FF01460A4815F0F6F90028E6D167
:1080B000FFF73CFFE3E7072007B0F0BDD8620400FC
:1080C000242F00205D7F02003C2F0020A8320020DA
:1080D000743100205C2F00202431002010B5054CA5
:1080E000236813B905E02368984711F0A1FF002821
:1080F000F9DA10BDE832002038B5184B184A0546A9
:108100000C4618481D6001211BF018F808BB610CD3
:108110000023E00341F26F728B4208BF82420BD210
:108120004FF47A7200231DF075FB002201460E48C1
:108130001BF016F838B938BD0B48052100221BF09A
:108140000FF80028F7D0BDE83840084A4B2114F05A
:10815000BDBD064A4A2114F0B9FDD8E7E832002037
:10816000DD80020030630400EC320020E462040091
:1081700070B5124D2868D0B14FF0A044104ED4F81D
:108180000435326801385340C4F80435286000B122
:1081900070BD0C481BF03EF80B4A3168D4F804352A
:1081A000126823EA01031343C4F8043570BD074A7B
:1081B000642114F08BFD2868DEE700BF0C3300203B
:1081C00010330020143300203C33002034630400BB
:1081D0004FF0A0420123D2F8042503FA00F0104228
:1081E0000CBF18460020704701234FF0A04203FA4D
:1081F00000F011B1C2F80C057047C2F808057047CD
:108200004FF0A04311B1C3F80C057047C3F808053F
:10821000704700BF0AB1132900D87047F8B5520063
:10822000114B124D124F2860013A4FF0A0441A60D2
:10823000D4F804354FF4004618404FF4FA72002386
:10824000E6FB012338601946104600234FF47A728A
:108250001DF0E0FA0022014606481AF081FF10B92D
:108260002B68C4F80C35F8BD0C3300201033002007
:108270003C3300201433002008B505481AF0CAFF2B
:10828000044A4FF0A0431268C3F8082508BD00BF98
:10829000143300201033002038B54FF0A0430320E2
:1082A0004FF480424FF400414FF400554FF48034B6
:1082B000C3F83407C3F80855C3F83807C3F80825CE
:1082C000C3F83C07094AC3F80815C3F84007012161
:1082D0000748C3F808451AF031FF00B938BDBDE8BA
:1082E0003840044AAF2114F0F1BC00BF7181020094
:1082F0008063040034630400E8B1104B104A114954
:1083000030B418604FF0A0430F4CC3F82C274FF047
:108310000045C3F830270020C3F86027C3F864275E
:10832000C022C4F804534023C4F87C0181F806231A
:1083300030BC0B6070470E20704700BF3433002004
:108340000C00030000E100E0006000402DE9F8436C
:10835000174C184B184F194EDFF864900022C3F8E1
:108360007C2104F1FF38E51C0B224FF0A0410123D2
:10837000D1F8101593408B4343F2333C10D03B6847
:10838000D6F80425991A48BFD11A6FEA080061454A
:10839000204405D9D6F80425D9F800303A6098472A
:1083A000AC4202D014F8012BDFE7BDE8F88300BF30
:1083B0008563040000600040383300200010014055
:1083C00034330020002855D0F0B52B4E33685A04C2
:1083D000CFB04DD5294F3B68032B49DD284B0DF11C
:1083E000340E1C6805467346411E0DF1540C11F8FD
:1083F000012F100902F00F02205C1870A25C5A7065
:1084000002339C45F3D11F491F4C204A00238EF8AC
:108410002030D4F804350092CDE9011E41221C49D8
:10842000042006F0D7F833685B0421D53B68032BA2
:108430001EDDD4F80435EC7AA87A697A2A7A079492
:10844000EC880690A888059129680492114ACDE924
:108450000204CDE90021EA7BA87B6E7B2C7B0C49D2
:108460000B920A9042220420CDE9084606F0B2F8A9
:108470004FB0F0BD704700BF802E00207C2E002042
:10848000842E0020D863040000100140EC63040037
:10849000C7630400F463040072DF704773DF704742
:1084A00074DF70472DE9F047DFF800E1384E9EF8A1
:1084B0000030384D384C03F1010CA2B00027C3EB5B
:1084C00043130CF0010C1D448EF800C033444FF0F0
:1084D0001F0C06468846914639463C2204A8E760B0
:1084E0006760A360A4F80CC0A4F804C004F1040AF7
:1084F00025601DF0F1FA01233946ADF80060ADF8B2
:1085000004603C2213A8062701AE8DF80230ADF8B6
:1085100020308DF83C30ADF80890CDF80C808DF807
:108520001370CDF824D00E961DF0D6FA02232946FA
:10853000524604A88DF84C3013F0EEFD18BBA1682C
:10854000164A13A813F0E8FDC0B9154A1249154898
:10855000FFF7A2FF082803D048B922B0BDE8F08792
:108560000D4910480022FFF797FF0028F5D00E4A6A
:10857000932114F0ABFB22B0BDE8F0870A4A8321B7
:1085800014F0A4FBE1E7084A822114F09FFBD6E730
:1085900094330020443300208433002090330020A3
:1085A000602E00205C2E0020346404004033002044
:1085B000B0F5202F08D20A4BA3FB0023DB0848B9F3
:1085C000084B988199607047064B4FF6FF70988171
:1085D00099607047012B38BF012398B2F0E700BFC4
:1085E000CDCCCCCC602E002008B50A4B01211878E8
:1085F000FFF754FF20B9BDE80840002004F046BB57
:10860000054AAD2114F062FBBDE80840002004F0EB
:108610003DBB00BF5C2E00203464040008B5064B4F
:108620001878FFF73DFF00B908BDBDE80840034AD0
:10863000B82114F04BBB00BF5C2E00203464040052
:1086400076DF70477ADF70477CDF7047014A6E2122
:1086500014F03CBB8064040003F000BC00B5037858
:1086600083B0BBB1012B02D003B05DF804FB104B0B
:108670001B685B04F8D50F4B1B68032BF4DD0E4B16
:108680000E4AD3F804350E4900920420682205F002
:10869000A1FFE9E740883B21FFF7D2FF0028E3D0A4
:1086A000084A642103B05DF804EB14F00FBB00BF6F
:1086B000802E00207C2E002000100140D864040091
:1086C000BF6404008064040000B583B014F036F881
:1086D00068B9002301A90120019313F075FF90B937
:1086E00001A813F0C7FF38B903B05DF804FB084ACE
:1086F000752114F0EBFAECE7054A7F2114F0E6FA55
:1087000003B05DF804FB024A7B2114F0DFFAE7E7CF
:108710008064040000B585B0112310498DF8043041
:10872000122201A8FFF790FF58B90D4B029302A83F
:108730004FF0C8730393FFF785FF38B905B05DF8B4
:1087400004FB084AB72114F0C1FAEEE7054ABD213F
:1087500014F0BCFA05B05DF804FB00BF046504002A
:108760007800C8008064040070B58AB00023134C00
:108770001349144A069301A807934FF0C8768DF861
:108780001C30ADF81A3040F6CD45019403234FF468
:108790008034039003A8CDE90454CDE90812029671
:1087A0008DF8183014F070F908B90AB070BD064A97
:1087B000D42114F08BFA0AB070BD00BF7800C80055
:1087C0005D8602004D86020080640400062070472A
:1087D00030B544F20104A04287B00D4665D003468F
:1087E0001FD801284DD041F20100834235D1444BBE
:1087F0001B685C0473D44FF0A0434FF4F032C3F80D
:108800001825C3F80C25EFF3108372B64DF6AD6C46
:108810003C4A13781BB130BF1378002BFBD107B053
:1088200030BD44F20200834217D1354B1B68580417
:10883000E1D5354B1B68002BDDDD344B1188D3F8B7
:10884000043503915168324A0092CDE90151692201
:108850003049012005F0BEFECDE7294B1B685B04C3
:10886000C9D5294B1B68002BC5DD2B4A274B29494D
:10887000D3F804350120CDE900257B2205F0AAFEBE
:10888000B9E71F4B1B685B04B5D51F4B1B68002B5A
:10889000B1DD1E4B2149D3F804350091CDE90152D9
:1088A0001C49602205F096FEA5E7154B1B6859048C
:1088B000A1D5154B1B68002B9DDD144B1168D3F817
:1088C000043504915168CDE902519168144A0120A0
:1088D000CDE900210F49732205F07CFE8BE70A4B9E
:1088E0001B68002B87DD094B0E48D3F80435094976
:1088F0000090CDE901520120632205F06BFE7AE77A
:10890000802E0020782E00207C2E002000100140B8
:10891000A865040057650400EC6504006865040060
:10892000C86504008465040000B583B00022064BCE
:10893000ADF8002001466A4644F202000193FFF7B9
:1089400047FF03B05DF804FBE865040010B403467C
:10895000044C59689A680068DB680FC45DF8044BE2
:10896000704700BFD433002010B40C490C4B0D4AA3
:1089700003C983E8030092E8030003F1080282E8D8
:108980000300D9791A7A0424022064F3071160F3F2
:1089900087125DF8044BD9711A727047600000109D
:1089A000D4330020A400001000487047D4330020C6
:1089B000064B002203F580715A805A6003F8082B99
:1089C0008B42F9D1024B1A60704700BFE43300209C
:1089D000E43400200D4BF0B41B680D4D07462022F7
:1089E0006BB1013B15F8330005EBC30428B1668871
:1089F000BE4206D0013AF3D11046F0BC70471F23A7
:108A0000F0E764688C42F5D1F0BC7047E434002094
:108A1000E43300200A4A70B413680A4C04EBC3051F
:108A200001261F2B04F83360696003EB060108BFC1
:108A30000023688018BF116070BC08BF13607047C6
:108A4000E4340020E433002000B58DB008B9991C4F
:108A500006D1084B186804F0B7FB0DB05DF804FBB5
:108A6000012101A8CDE902328DF8041001F030FB9C
:108A7000EFE700BF803500202DE9F0410D468EB0B4
:108A800016461C46074600283CD0002D3FD0A27851
:108A9000E378606AA2F10802002B0DF10408B2FA33
:108AA00082F214BF0121022100F1020C5209434657
:108AB00004F10C00CDF814C004F0FAFC237BA2787A
:108AC000CDF8188015FA86F1022BCDE90B510797E6
:108AD000ADF820608DF8342008D0002305A8ADF84B
:108AE000283004F0E1FC0EB0BDE8F081236993B1B9
:108AF000099305A81023ADF8283004F0D5FC0EB07A
:108B0000BDE8F0817846FFF70FFF002DBFD1784612
:108B1000FFF70AFFBBE77846FFF706FF2369E7E7A1
:108B200010B590F84830012B044602D07846FFF784
:108B3000FBFE03F0B9FC237B012B074B09BFA17D92
:108B4000D968D3E9033202FB0131014404F130005A
:108B5000BDE8104003F07ABC84350020B2F5C07F38
:108B60002DE9F84F17468246894645D8DFF8C88078
:108B70000025434693F84860703336B10135042D23
:108B8000F8D100242046BDE8F88F384609F096F960
:108B9000C5EBC50408EB04144FEAC50BE0660028DA
:108BA000EFD0D646BEE80F00A446ACE80F00BEE802
:108BB0000F00ACE80F009EE80F00B9F1010F8CE840
:108BC0000F00E664A4F84A701AD06FF00103164A49
:108BD000A362164B84F8686024662464A265A363CC
:108BE000ABEB050508EB0518012002F0C7FC88F87F
:108BF00048902046BDE8F88F7846FFF795FEB5E728
:108C00000B4BA4F852601B7D84F8513084F85060FF
:108C1000DAF82820074B62656FF00102A4F858606B
:108C20002464A262A363DBE719980200A58D020009
:108C300084350020AD8D02009C35002010B504461F
:108C4000C06E09F03DF904F1300003F0E5FB94F843
:108C50004830022B0BD02046702200211CF03CFF34
:108C6000002084F84800BDE8104002F087BC04F101
:108C7000500003F0D1FBEEE710B590F84830012B1F
:108C80008CB0044602D07846FFF74EFE636D029327
:108C9000012201A88DF8042001F01AFA2046FFF7FE
:108CA000CDFF0CB010BD00BF2DE9F0430E4691B0D2
:108CB000044600285AD094F84830022B1CD02C22AD
:108CC000002105A8656D1CF007FF102305A88DF88D
:108CD000143006958DF81C6001F0FAF92046FFF774
:108CE000ADFF294B1B685B0703D5284B1B68032B83
:108CF0002ADC11B0BDE8F0836378E1889A0739D4A3
:108D0000D4E90607C0F30C058D4238BFA0F500502A
:108D1000401B1F4DB4F814C0014428684FEA1729BE
:108D20004FEA07681B4F00F0070318EB010807EB39
:108D300003124FEA031349F100090130C2E9028925
:108D400027F803C02860BAE794F84810124B134A7A
:108D5000D3F804350092CDE9011640F2F312104920
:108D6000042005F037FC11B0BDE8F0837846FFF72A
:108D7000DBFDA0E7A08A00221BF01CFE94F848301F
:108D8000022B9CD1E188BBE7802E00207C2E0020A6
:108D900068350020E83400200010014038660400E7
:108DA0002B66040008460021FFF77EBF10B591F83E
:108DB0004830012B0C4602D07846FFF7B5FD94F8F9
:108DC00051305BB10B49013B002284F8513084F8EB
:108DD00050200868BDE8104004F0F6B9217B012955
:108DE000204603D0BDE81040FFF746BFBDE8104065
:108DF000FFF75ABF80350020C37D002B42D00B788F
:108E0000C27823F07F0302F07F0213430B700278D5
:108E100003F07F0343EAC2130B700378002B41D0A9
:108E200030B484784B788A78A4F10804B4FA84F4D6
:108E3000640903F07F0343EAC4134B70C58802F052
:108E40000302C5F3861442EA850223F07F0323431D
:108E5000D2B28A704B70CB78057A03F01F03C5F34A
:108E6000C10443EA451322F003022243DBB2CB7074
:108E70008A70427A23F01F0302F01F02134330BCB2
:108E8000CB7070470A78C37822F0400242EA83121E
:108E9000D2B20A70037922F03F0203F03F0313437A
:108EA0000B70B4E7704700BF2DE9F04F834689B0DF
:108EB000884609B100220A609BF850409BF80900DF
:108EC00084427DD80BF10C03012701934FF0000A77
:108ED00004E00134E2B29042E4B271D3DBF84C20FA
:108EE00007FA04F11142F4D19BF81720DBF828109F
:108EF000019B8BF80840002A0CBF0C2508258442F2
:108F00009BF80020029305FB04F908BFBBF84A5008
:108F10008DF818A008BFA5EB0905002A14BF042688
:108F20000126AA19049202A8DBF82C2003910592CD
:108F300004F07CFC10B109B0BDE8F08F07990E4435
:108F400054B99BF853203AB9DBF818208BF85370CA
:108F5000C2F30C02ABF806209BF8172092B99BF8DD
:108F600052207AB984BBDBF86C10BBF84AC09BF87E
:108F700002200846ACEB02025B46FFF77DFD079935
:108F80008BF852705846FFF737FFDBF86C102A4613
:108F9000304649441CF077FD02A804F073FCB8F198
:108FA000000F04D0D8F800200132C8F800200134A6
:108FB0009BF80900E2B290428BF85020E4B28DD2C7
:108FC000002009B0BDE8F08F7846FFF7ADFCCAE796
:108FD000F0B5C37D8578002B14BF4FF480734FF438
:108FE000C0731544AB42C7B06CD33E4B16460F4618
:108FF00003F5E07293F84840012C1ED070339A427A
:10900000F8D12A460121FFF7A9FD0546002861D0C5
:1090100032463946C06E1CF036FD002304A92846AE
:109020000493FFF741FF30F0040304460FD02846B5
:10903000FFF704FE204647B0F0BD9C8A818A8C422F
:10904000DCD1DC89C1898C42D8D10824F2E7049BA9
:10905000002B43D1244B1C6814F00404EAD0234BAA
:109060001B68032B32DDB5F84A30802B1E4605AF56
:1090700028BF802693B11E4B05AF186839460022E1
:10908000EB6E9B5C1C0903F00F03045D0C70013256
:10909000C35C4B70964201F10201F1D8002407F83D
:1090A00016401449144B154AD3F804350092CDE903
:1090B000011740F251521249042005F08BFA204664
:1090C00047B0F0BD0924204647B0F0BD002420463B
:1090D00047B0F0BD0424204647B0F0BD2846FFF756
:1090E0001FFDB7E79C350020802E00207C2E00203D
:1090F000842E00205C66040000100140EC63040034
:109100002B66040010B50446808A02F043FD012856
:1091100013D1237B8BB194F91620002A1BDBE27D4F
:109120006AB1022B09D094F90330002B13DBA3782A
:10913000002B0CBF0020072010BD102010BDE278CE
:109140003AB123784BB9A378042B0CBF0020072039
:1091500010BD012BF5D0072010BD002010BD00BFB1
:1091600070B503788CB0044653B1D0E90612C388B9
:10917000808A06F081FC054655B928460CB070BDC2
:10918000D0E90612808A06F073FC0546002DF4D063
:10919000E669A48A2C22002101A81CF09DFC06F09F
:1091A000010601A80F23ADF80A60ADF808408DF85C
:1091B000043000F08DFF28460CB070BD00B585B0BE
:1091C00000238DF80F3088B10230086008460DF199
:1091D0000F0104F06BF99DF80F0038B10C4B1B68C0
:1091E0005B0703D50B4B1B68032B02DC05B05DF856
:1091F00004FB094B094AD3F80435094900920420BD
:1092000040F2064205F0E6F99DF80F00EEE700BFD8
:10921000802E00207C2E0020001001406C6604008F
:109220002B6604002DE9F04714461278D4F818A0F4
:10923000F2B080460D461E4652B1E288CAF30C03D6
:1092400093423ABFAAF5005152185244D31AA3616F
:10925000A278E378A2F10802002B0DF10C0904F1C9
:109260000C07B2FA82F214BF0121022152093846DA
:109270004B4604F01DF9A378E0788DF83C30ADB290
:10928000EA1A92B208EB020C002112ABC4F818A043
:10929000CDF82090CDF82480CDF838C0ADF8282046
:1092A0000D93ADF83010002830D0884604F1240921
:1092B0004FF0100A237B022B03D12369ADF830A0B5
:1092C0000B93C4F824804A4605E007A9FFF776FF10
:1092D0004A46002836D1206A21790EF0FDFD606AE9
:1092E0000028F2D1237B022B05D1E08939460EF00C
:1092F000C9FE0028DED12F4B1B685B0703D52E4B20
:109300001B68052B47DC72B0BDE8F087237B012B7F
:10931000F1D104F1240860624146E089B4F8149068
:109320000EF022FE606A07A9FFF748FF50B960629D
:10933000414648460EF018FE606A07A9FFF73EFF57
:109340000028D8D02046FFF70BFF03460028DAD1CB
:10935000A278B4F814C08DF81C3097E80300AD1A59
:1093600012AA08920CAA82E80300D4E90812A77D89
:109370000B9307A80123CDE90E121196ADF82450E6
:10938000ADF82AC08DF828308DF8407000F0A0FEAE
:1093900072B0BDE8F087094B094AD3F80435094992
:1093A0000092062040F2F26205F014F972B0BDE8B6
:1093B000F08700BF802E00207C2E0020001001408E
:1093C000806604002B6604002DE9F04F80468FB0C4
:1093D0001046934689469A46FFF7C2FE00283DD1C3
:1093E0009BF803C00446BCF1000F40D06B4B1968DA
:1093F000A1B36B4A5368A3B3176800243D4603E04A
:109400009C4205F108052CD017F83460664504F13C
:109410000104F5D16B680BB3DBF820400B94BBF86B
:109420001440DBF81010DBF80C00ADF822409BF87C
:1094300016409BF800508DF8304009AADBF82C400C
:109440008DF814C082E80300CDF81880CDF81C9088
:109450008DF820500D94514605A898470FB0BDE8EF
:10946000F08F0130884202F10802C3D1F6E7B9F16A
:10947000060FF3D198F8000098F80110494D8301C8
:1094800003F4FE5343EA91012B4693F84820012A46
:1094900018D00134042C03F17003F6D1424B1B6841
:1094A0005B07DBD5414B1B68012BD7DD404B414AA5
:1094B000D3F804354049009202204FF4CD6205F004
:1094C00089F8CBE79E8ABBF80E209642E1D1DA8874
:1094D0008A42DED1B3F858201AB1BBF81460964224
:1094E000D7D10006D8F8023020D4C4EBC40205EB73
:1094F0000212BBF81400D28982424FEAC4081FD07E
:10950000294B1B685907A9D5284B1B68012BA5DDE2
:10951000274B2A4CD3F8043527490094CDE9012084
:1095200040F26C62022005F055F897E7C4EBC402E4
:1095300005EB0212BBF81410A2F858104FEAC40849
:10954000A8EB040205EB02161BBAF76C1F431201CD
:10955000F764B3B1AB5CEBB1727A01231A44934068
:10956000013B9F4212D0A8EB040405EB0415002137
:10957000304685F85010FFF797FC3046FFF7D0FAD9
:109580006CE730460321FFF78FFB67E73046FFF7B4
:1095900073FB63E77846FFF7C7F9DDE76C3500201A
:1095A000703500209C350020802E00207C2E00206D
:1095B00000100140AC6604002B660400DC66040069
:1095C0002DE9F0410446C07DA3781546002814BF5C
:1095D0000B220F222B44934286B02CD822460F46F2
:1095E00012F80C1B0092002914BF4FF004084FF032
:1095F00001084344A16AE26A02936846002301918C
:1096000003928DF8103004F011F9064678B90599E7
:1096100020468844FFF7F0FBE37D8BB923462A46BA
:1096200041463846FFF728FA684604F02BF93046E1
:1096300006B0BDE8F0810926304606B0BDE8F081ED
:109640002A46394640461CF01EFAEDE770B583689D
:10965000027890B004460B2B4FF000008DF81320D9
:109660000D900A4602D8217B002948D00733DB0839
:109670000021013B01208DF819308DF810008DF884
:1096800012108DF81810D4E9040107AB83E8030029
:109690000123E689A5690E928DF82730227F236A7F
:1096A000ADF8246004A80C958DF826200F931BF0CC
:1096B00013F940B19DF81C30012B16BF0F9B2023DE
:1096C00043F020030F93184B1B685B0703D5174B20
:1096D0001B68062B18DC04A8D4E90154FFF712FD1F
:1096E00038B99DF810302246294604A81BB1FFF76F
:1096F0006FFC10B070BDFFF763FF10B070BD8DF848
:1097000010108DF81210BEE7A0692178084B094AA5
:10971000D3F804350092CDE9011040F2F472064905
:10972000072004F057FFD6E7802E00207C2E002073
:1097300000100140206704002B660400037B012B0E
:1097400001D000207047F0B52D4B1B689B058FB0F2
:1097500004460D460ED52B4B1B68032B0ADD2A4B06
:109760002A4AD3F804352A490092042040F26222A2
:1097700004F030FF6178E388A07DA68AADF826600A
:10978000A1F10201B1FA81F1C3F38612490942EA5B
:10979000C1129B008DF809308DF80820002302AA21
:1097A000290E8DF81230CDF80E300A938DF8143052
:1097B0008DF8203006922B0C06226DBA8DF80A1017
:1097C0000127E1898DF80B300792236AE26AADF830
:1097D0000C508DF824700B93ADF822100D9248B9FF
:1097E0008DF830004BB16FF0010105A8FFF72EFF97
:1097F0000FB0F0BD074A507DF2E70E20F8E700BF3A
:10980000802E00207C2E0020001001404C670400B8
:109810002B6604008435002010B591F84830022BE7
:109820000C4609D181F86830E16C2046FFF786FFCD
:1098300008B984F8680010BD7846FFF775F894F809
:1098400048300222934284F86820EDD010BD00BF5A
:10985000F0B5194C83B0002704F5E076254695F85D
:109860004830012B19D07035B542F8D194F8483002
:10987000022B05D07034B442F8D1012003B0F0BD02
:1098800094F86830022BF5D1E16C2046FFF756FFC3
:109890000028EFD184F86800ECE701A92846019779
:1098A000FFF702FB0428284602D0019B002BDAD0E8
:1098B000FFF736F9D7E700BF9C35002038B54FF4E5
:1098C000E07200211448154D1CF006F9002406F042
:1098D000B3F8134B13481C60214680221CF0FCF89F
:1098E000114B12491960124A5A6040F604014CF2B9
:1098F000503299820F489C75DD609A601A6103F0BE
:1099000043FC0D4B0D4902460C601A600C48BDE843
:10991000384006F055BB00BF9C35002020A1070051
:1099200068350020E83400208435002080969800B7
:10993000F049020051980200803500206C3500206B
:10994000498A020006F08CB82DE9F04F9DB000283E
:1099500000F0AF809046002A00F0AB800D46002951
:1099600000F0A280516804461E461068D8F80C30FA
:10997000926894F900C013AF0FC7BCF1000FD8F87C
:109980001000D8F814102378B4BF0422012203C7B2
:1099900095424FEADC704FF000018DF840008DF8E1
:1099A0004110C0F081809DF85700002840F086806B
:1099B000C3F38011BCF1000F03F03F038DF8431097
:1099C0008DF844306ADA94F901206378002AACBF3C
:1099D000042208228DF84220A078E1789B01C20081
:1099E00003F4FE5302F0180242EA511243EA9003D4
:1099F00001F01F01ADF846308DF848208DF8491070
:109A000033780022032B199262D8C64A10A852F864
:109A100023301B93FFF776FB0746002845D110A89B
:109A20001AF05AFF28B19DF8413043F002038DF837
:109A300041300023B8F8020003A9CDE903330EF04A
:109A400021FB28B19DF8413043F001038DF84130EE
:109A5000D8E90312B8F8080006F08CF89DF84130F8
:109A600000283AD003F0FE038DF84130EBB19DF8A9
:109A70004020002A38D1990700F14C819DF84130EF
:109A8000DA0712D59DF85730601C691E002B00F0D4
:109A90007E81334610AAFFF797FC06E004320423C8
:109AA00095428DF84230ABD2092738461DB0BDE84B
:109AB000F08F0E2738461DB0BDE8F08F03F07F030E
:109AC0008C458DF843308DF8421099DA637883E73E
:109AD0007846FEF729FF337897E7002BE5D0D807C3
:109AE00044BF049A1492C2E7DDE916C2BDF84630BD
:109AF000BDF85400CCF30C0199423ABFACF5005EBE
:109B00009E440CEB030EAEEB010E4FEA0268864951
:109B100018EB0E084FEA122949F1000901F1800EF5
:109B200002E010318E450AD031F808AC8245F8D1F8
:109B3000D1E900ABD94508BFD045F2D1B5E7DFF890
:109B4000F4A10021D6469EF848B0BBF1020F00F008
:109B5000B880013104290EF1700EF4D1614606F08F
:109B600053F8002840F06481BDF8540042464B464B
:109B70001AF040FF002840F077819DF849209DF8B9
:109B800057300132002B00F03081D2004FF4807347
:109B90009342C0F03681022110A8FEF7DFFF824613
:109BA000002800F06E81614B1B685B0704D5604B99
:109BB0001B68032B00F30A819AF84830022B02D06D
:109BC0007846FEF7B1FEDFF87081D8F8009002F019
:109BD0006BFC09EB00010AF1300002F037FC9AF847
:109BE0000C30012B00F0AA809DF84810DAF84C20C8
:109BF00001238B401A427FF458AF9DF8570013435E
:109C0000CAF84C30A5F10409002800F0B5809AF894
:109C100009204FEAC10C8A42634600F0C88008233D
:109C2000994540F0E880DAF81820169B9A420BD24A
:109C30000DF14C08B8E80F000AF10C0EAEE80F0069
:109C400098E803008EE80300DAF86C004A466044A6
:109C5000211D1BF018FF9DF841309B0700F1AF80DC
:109C60009AF80030DAF84C50002B00F0A4809AF8F3
:109C700009300124234404FA03F3013B9D427FF49D
:109C800014AFDAF84C105046FFF758FD9DF84130FC
:109C90009D0700F10B819AF80130D8070CD59AF88E
:109CA0001730DAF86C00BAF84A10002B00F0068181
:109CB00033465246FFF788FB5046FEF7BFFF0027AA
:109CC000F3E6BEF814B083457FF443AFC1EBC101A6
:109CD0000AEB011ADAE9061EBAF806C0C1F30C0055
:109CE00060454FEA1E234FEA0E6210D2A1F50051E3
:109CF0006144091A521843F100034B4508BF42451D
:109D00004AD3994508BF9045BFF44DAFCDE66144B5
:109D1000091AEFE7012310AAE9B220461AF042FD22
:109D2000ACE600BF80670400F0340020802E0020E5
:109D30007C2E00209C350020843500209AF8683065
:109D4000002B7FF451AF9AF84830022B02D07846AE
:109D5000FEF7EAFDD8E9012198F8153001FB032848
:109D600002F0A2FB08EB00010AF1500002F06EFBCA
:109D700001238AF8683037E79AF8092001EB410C93
:109D80004FEA8C0C8A42634611D00C2348E73346D5
:109D900010AAFFF747FA88E650460521FEF784FF30
:109DA000DDE916C2BDF85400BDF84630D6E64B4496
:109DB000AAF84A3037E77846FEF7B6FD57E710AA0B
:109DC000E9B2204601231AF0EDFC49E79DF848105E
:109DD000414A424B0420D3F80435CDE900214049E3
:109DE0004FF4657204F0F6FBE6E602EB42029200E5
:109DF0004FF4C073CCE650460421FEF755FF002710
:109E000053E6384B1B6859077FF54FAE364B1B683E
:109E1000002B7FF74AAE3548304B3149D3F8043533
:109E2000CDE900024FF45C72012004F0D3FB3CE664
:109E3000DDE91612BDF84630BDF8540005F060FFAC
:109E400000283FF432AE9DF84030002B3FD09DF803
:109E5000493001210B449940013910A8FFF76EFCED
:109E600010A8FFF77DF920E69DF840305BB39DF820
:109E7000493001210B44994010A80139FFF75EFCDD
:109E800013E6514610A8FFF759FC05A82C225146AD
:109E90001BF022FE1022022305A8CDF818A08DF891
:109EA00014208DF81C3000F013F9FEE5BDF84610C3
:109EB000BDF8540022461AF07DFDECE633465246CA
:109EC000FFF7B0F9F8E67846FEF72EFDCFE77846C3
:109ED000FEF72AFDBBE700BF7067040000100140D9
:109EE0002B660400802E00207C2E00205C6704007E
:109EF000002800F0848070B503698CB00446002B04
:109F00006FD0C269002A6CD08569002D69D01178A4
:109F1000838A50788DF8040081F001010B2B8DF8B5
:109F20000310099251D9227B0121022A8DF80010D9
:109F30005AD0002A5CD1042211461344334A8DF8CA
:109F400002100B33A2FB0323DB08013B00228DF838
:109F500009308DF8082094E8030003AB83E8030080
:109F6000226A2689A17A08950020DF238DF8170040
:109F70002046CDE90A23ADF814608DF816100EF0D6
:109F800049FA28B12378012B14BFFF2320230B9318
:109F900068461AF0A1FC40B19DF80C30012B16BFA9
:109FA0000B9B202343F020030B9368462569A48A6A
:109FB000FFF7A8F8B0B99DF8003022462946684658
:109FC000CBB1FFF705F80CB070BDE27A002AAAD138
:109FD000217B012915D004238DF800208DF8023053
:109FE000B9E70E200CB070BD094A927D002AA2D0BC
:109FF00008221146A1E7FFF7E3FA0CB070BD0E206E
:10A00000704708228DF80010114696E7ABAAAAAA5D
:10A010008435002028B142681AB183690BB1FFF77B
:10A0200015BB0E20704700BF00284AD02DE9F0472D
:10A03000DFF894A0DAF800E0BEF1010F35D8DFF8C0
:10A040008C9031B3D9E900674FF0000C00F104089F
:10A0500058F83C307BB310F93C3010F83C50002BE2
:10A060002CDB2DB3BEF1000F0FD077B132460023A9
:10A0700003E0BB4202F1080207D016F83340AC42BD
:10A0800003F10103F5D1536893B90CF1010C61455B
:10A09000DED109EBCE020EF1010349F83E0051601A
:10A0A000CAF800300020BDE8F0870420BDE8F08742
:10A0B0000F20BDE8F0870E20BDE8F0870B20BDE83B
:10A0C000F0870E20704700BF6C35002070350020EF
:10A0D000F8B5054610B3134F3C6874B1124E012316
:10A0E00033702379284613B954F8043C9847246800
:10A0F000002CF6D13378022B00D0F8BD3C6834B187
:10A10000084D214624680B7923B9002CF9D100238E
:10A110003370F8BD284604F0D7F9F6E77846FEF725
:10A1200003FCD8E7603700205C37002010B50446F8
:10A1300038B100232372211D0448BDE8104004F00B
:10A140008DB97846FEF7F0FBF3E700BF60370020DB
:10A1500010B5044678B10A4A1378013B012B04D8A4
:10A16000022101231170237210BD211D0548BDE895
:10A17000104004F0A9B97846FEF7D6FBEBE700BF24
:10A180005C3700206037002070B5054616460C4647
:10A1900000294BD000284ED0B4F1005F36D94FF0E3
:10A1A0008053D3F80C3103F50023B4EB832F30D266
:10A1B000731E2344B3F1005F13D94FF08052D2F8DD
:10A1C0000C2102F50022B3EB822F0DD2042E19D9F7
:10A1D00000232E80AC606B80AB80321FA370228086
:10A1E00070BDB3F5000F08D94FF08052D2F80C21A2
:10A1F00002F50052B3EB822FE8D37846FEF794FBCA
:10A20000042EE5D87846FEF78FFBE1E7B4F5000FA2
:10A2100008D94FF08053D3F80C3103F50053B4EB59
:10A22000832FC5D37846FEF77FFBC1E77846FEF75C
:10A230007BFB002DF6D17846FEF776FBACE700BF3E
:10A2400038B5044648B36288A36813449B78012B51
:10A250001FD0EFF3108072B6A388A268D118897856
:10A26000032906D0002393706380A38000B962B6EF
:10A2700038BDD15A2588073121F003010B449BB228
:10A28000291F8B4294BFD218002300216380917054
:10A29000ECE77846FEF748FBDBE77846FEF744FB41
:10A2A000D1E700BFF8B50E461546044600283DD05C
:10A2B000002E40D06288A36813449B78012B2ED0D7
:10A2C000002D31D02388043B9BB29D422CD8EFF364
:10A2D000108172B66088A288EB1D23F003039042C0
:10A2E0009BB20CD2121A934231DCA36803440122C0
:10A2F0001D809A700020336001B962B6F8BD1ED986
:10A3000027883F1A9F42F0D2934220D8A368032F98
:10A3100082BFC0180422827000226280E7E778467C
:10A32000FEF702FB002DCDD10920F8BD7846FEF7DF
:10A33000FBFA002EBED17846FEF7F6FABAE7A3681C
:10A340001A4492781AB99A706280A280CFE70420EA
:10A35000D2E700BFF8B50D4616460446002831D0B6
:10A36000002D34D0AB78012B02D07846FEF7DCFA12
:10A370002B88B3421DD30EB3EFF3108772B60223BE
:10A38000AB702E806288A0682188835A073323F03F
:10A39000030313449BB20A1FA188934288BF002382
:10A3A0009942638002D0034400229A7007B962B6D2
:10A3B000F8BD7846FEF7B8FA002EDDD17846FEF7F4
:10A3C000B3FAD9E77846FEF7AFFA002DCAD178463E
:10A3D000FEF7AAFAC6E700BF70B50D46044600288E
:10A3E0002FD0002D32D0EFF3108672B6A388A0686C
:10A3F000C1188A78042A0ED1C25A2188073222F065
:10A40000030213449BB20A1F934292BFC118014634
:10A410000023A3808A78022A0CD0032A06D178462A
:10A42000FEF782FA002006B962B670BD0520002E44
:10A43000FBD1F9E703238B7000202960002EF4D1B3
:10A44000F2E77846FEF770FA002DCCD17846FEF799
:10A450006BFAC8E738B50446E0B1EFF3108572B681
:10A46000A388A268D118887804280BD1D15A2088F3
:10A47000073121F003010B449BB2011F8B4298BFAF
:10A48000D2189078A0F10200B0FA80F0400905B926
:10A4900062B638BD7846FEF747FADEE738B50446BF
:10A4A00018B3EFF3108572B6A168A2880A449378B6
:10A4B000D81E012811D82488043C501A83B20A46B9
:10A4C000CB5A073323F0030303449BB2A34298BF44
:10A4D000CA189378D81E0128EFD9A3F10200B0FA68
:10A4E00080F0400905B962B638BD7846FEF71CFA1F
:10A4F000D7E700BFF8B50D460446002837D0002D39
:10A500003AD0EFF3108672B6AB78012B24D0032B30
:10A510001ED1A168A3880B449D4203D07846FEF764
:10A5200003FAA1680027AF70A3882088CA5A0732AF
:10A5300022F0030213449BB2021F93428CBF3B469E
:10A54000C918A3808B78042B1AD006B962B6F8BD5F
:10A550007846FEF7E9F9F8E76288A36813449D425C
:10A5600002D07846FEF7E0F90023AB70EDE77846BD
:10A57000FEF7DAF9002DC4D17846FEF7D5F9C0E729
:10A580000023A380E1E700BF10B4EFF3108472B69C
:10A59000828881688B189B78042B0BD18B5A00889A
:10A5A000073323F003031A4492B2031F9A4298BF61
:10A5B00089188B78B3FA83F0400904B962B65DF864
:10A5C000044B7047054B002298689A61C3E900224A
:10A5D000C3E90222C3E9042204F0A4BF64370020C7
:10A5E00010B50A4B0A4ADB6884B00224019369461D
:10A5F0004FF4805301208DF80040029301F0ECF9F4
:10A60000B0FA80F0400904B010BD00BF64370020EC
:10A610008037002010B50A4B0A4A1B6884B0022418
:10A62000019369464FF4805301208DF80040029356
:10A6300001F0D2F9B0FA80F0400904B010BD00BFBB
:10A64000843700208037002070B50D4B0D4D1B68FE
:10A65000E9680D4A84B001240191043340F6FC7688
:10A660002046694603938DF80040029601F0B4F944
:10A6700018B920462C7604B070BD002004B070BD1F
:10A6800084370020643700208037002010B50A4B43
:10A690000A4C1B680A4A84B00120019369460423CE
:10A6A000CDE902348DF8000001F096F9B0FA80F09F
:10A6B000400904B010BD00BF84370020703700206F
:10A6C00080370020F0B5114E114FF1683B680D78CE
:10A6D000104A85B00124043303912046694602954F
:10A6E00001938DF8004001F077F960B9F3683A689A
:10A6F000197805F0FC05043515440B4420467561B6
:10A70000336105B0F0BD002005B0F0BD6437002016
:10A71000843700208037002070B5204CE368002B80
:10A7200037D0237E002B30D16368092B28D81C4DED
:10A7300055F82330984702284FF0000612D003281E
:10A7400014D0012800D070BD63680133092B636009
:10A750000ED8237E002BF6D1636855F82330984736
:10A760000228ECD1237E3BB1207070BD6660F0E71B
:10A770007846FEF7D9F8ECE7BDE87040FFF722BF56
:10A780007846FEF7D1F86368D1E77846FEF7CCF853
:10A79000CAE77846FEF7C8F8C3E700BF6437002071
:10A7A0000068040070B5174DEB68187884B003F5A5
:10A7B000805118444FF6FF7205F0C4FBF0B1EB680E
:10A7C0001A781344984219D06E7E0F490F4B0190AE
:10A7D0000124002E08BF0B460D4A03930426204691
:10A7E00069468DF80040029601F0F6F810B100209D
:10A7F00004B070BD20462C7604B070BD012004B0BA
:10A8000070BD00BF64370020446A0400486A040039
:10A810008037002070B5144DEB6818795A79801A8A
:10A8200000F57F2000F6FF70040384B016D10F4BB3
:10A830000F491B6801930126042303910D4A8DF8EB
:10A84000006030466946029301F0C6F810B1204618
:10A8500004B070BD02202E7604B070BD03F58053A5
:10A860000320EB6004B070BD643700208437002003
:10A8700088370020803700200B78032B094B1A788B
:10A8800007D0012A00D070471B7E002BFBD1FFF7B9
:10A8900043BF0021012A1976F9D0022AF3D1FFF72C
:10A8A00091BE00BF6437002010B50E4CE3681878E5
:10A8B00003F580511844002205F044FB08B1012043
:10A8C00010BDE268137951795B1A03F57F2303F613
:10A8D000FF731B0304D002F58052E260032010BD19
:10A8E000022010BD643700202DE9F04FDFF85081C1
:10A8F000D8F80C6033797279591E8A4285B000F01D
:10A900008F8006F580519B1A91F800B049488B441E
:10A910000768BBF8022097F804A0511E89B247F6D9
:10A92000FE69494506EB033642D839463B1DDFF840
:10A930001491414D0AEB0307384601F5805105F0AB
:10A9400001FB074600285AD0012004233B4ACDF8DA
:10A9500004B06946CDF80C9088F818008DF8000016
:10A96000029301F039F8002856D15C4647F6FE6A9A
:10A9700016E004EB830304EA050233EA050102F55D
:10A98000805237D06088B0F5FE4F33D01C46A642C7
:10A9900034D9A34532D26288531E9BB2534534D971
:10A9A0002388002BE5D17846FDF7BEFF2388E0E73A
:10A9B000214D5C4616E004EB830304EA050233EA0A
:10A9C000050102F5805224D06188B1F5FE4F20D0F8
:10A9D0001C46A64212D9A34510D26288531E9BB2D0
:10A9E0004B4523D92388002BE5D17846FDF79CFF02
:10A9F0002388E0E714781444A642CAD8012701202E
:10AA000088F8197005B0BDE8F08F0A4BA3461968A5
:10AA100092E714781444DCE7002005B0BDE8F08F1D
:10AA2000012088F8190005B0BDE8F08F014BA3465E
:10AA300019687BE78437002000F0FFFF8037002093
:10AA400064370020406A04002DE9F04FDFF8888168
:10AA5000D8F8103087B0002B00F0A880D8F8140088
:10AA6000002800F0AB80D8F81090594EB9F80230A9
:10AA7000D8F80C50013B29796C7900EA06079BB2A3
:10AA800047F6FE6A091B3F1A534505EB013507F5EA
:10AA9000805728D94C4616E004EB830304EA0601EC
:10AAA00033EA060201F5805115D06088B0F5FE4FFB
:10AAB00011D01C46A54212D94C4510D96388013BE0
:10AAC0009BB253456AD92388002BE5D17846FDF720
:10AAD0002BFF2388E0E70C780C44A542ECD801203A
:10AAE00007B0BDE8F08F4D45F9D94C464FF0000B4B
:10AAF00005E0744434EA060226D0AC422BD2228808
:10AB0000DA460BEB820B5F454FEA820E24D989EAC5
:10AB10000400304223461FD16088013880B247F6D6
:10AB2000FE61884218D8002AE3D101937846FDF7E8
:10AB3000FBFE208804EB800030EA0603019B03D073
:10AB40006488B4F5FE4F41D1334003F580531C783F
:10AB50001C44AC42D3D3DA46BAF1000FBFD0D8F8C8
:10AB600014301C4ACDF81490012002A9CDF810A091
:10AB70008DF80800039300F02FFF28BBD8F814705D
:10AB800007EB0A00C8F8140054B16388C8F81040F5
:10AB900047F6FF729342A2D0A14669E7A146A4E717
:10ABA0007846FDF7C1FEC8F8104098E77846FDF7F3
:10ABB000BBFED8F8140000287FF455AF7846FDF7A7
:10ABC000B3FED8F814004EE7002089E7044694E766
:10ABD00000F0FFFF803700206437002010B540F6FA
:10ABE000F87384B019684A1C4FD0D9B94FF080531C
:10ABF00058691A6902FB00F22A4B2B4C1B68A2F51C
:10AC00008052DB02226003D5284B1B68062B0CDC2C
:10AC10001268531E033302D8C2F30B03CBB10020DA
:10AC200004B010BDA1F58052E6E7481C08BF2049DA
:10AC3000204B2148D3F8043508BF09680090CDE9BE
:10AC40000112072040F267221C4903F0C3FC22686E
:10AC5000DEE71B4C1B49E26001221B482383A360F3
:10AC6000227003E051F8042F824219D001330A2BDD
:10AC7000F8D17846FDF758FE1449012000F09AFEFD
:10AC8000FFF74AFD012004B010BD094B1A680132DC
:10AC9000ACD01A68002AA9D01A68A2F58052ABE796
:10ACA0006360E9E7802E0020843700207C2E00209E
:10ACB0001410001000100140CC670400B3670400BA
:10ACC0006437002000680400E1A5020079A80200B2
:10ACD00010B50446C0B10E4A107890B1E368D06850
:10ACE0005979A3EB013290420CD31A79521A02F52A
:10ACF0007F2202F6FF7203EB023398428CBF0020E2
:10AD0000012010BD002010BD7846FDF70DFEE2E7E2
:10AD100064370020024B1878003818BF01207047B4
:10AD20006437002038B50E4C23780546A3B92B783C
:10AD3000032B02D07846FDF7F7FDEA680949A560C4
:10AD400000230120E26020706360238300F032FE64
:10AD5000BDE83840FFF7E0BC7846FDF7E5FDE6E7E3
:10AD60006437002079A80200014B1868704700BFC3
:10AD70008437002010B50446B8B163681BB123685E
:10AD80000BB1A3681BB97846FDF7CEFDA3685A1E28
:10AD90001A4203D10023C4E9033310BD7846FDF7FE
:10ADA000C3FD0023C4E9033310BD7846FDF7BCFDA5
:10ADB000E3E700BF70B508B383680446DBB1EFF387
:10ADC000108572B6D0E9032393421AD051B1D0E96D
:10ADD0000120266801380340084602FB03611AF08F
:10ADE00052FE23690133236115B10025284670BD49
:10ADF00062B6284670BD0925284670BD0E25284636
:10AE000070BD15B962B60525F0E70525EEE700BF70
:10AE100010B4C0F30B042CBB49B3174A01F6FF7101
:10AE20000223090BC2F80435D2F80034002BFBD002
:10AE300061B1114A00EB0131C2F80805D2F80034C3
:10AE4000002BFBD000F580508142F5D10A4A002347
:10AE5000C2F80435D2F80034002BFBD020465DF850
:10AE6000044B7047102420465DF8044B70470924BA
:10AE700020465DF8044B704700E0014040EA0103C2
:10AE800070B49C0733D172B312F003062BD11A4C65
:10AE900001239208C4F80435D4F80034002BFBD009
:10AEA000B2B101EB8202151F134C0A1F03E0954259
:10AEB00000F104000CD052F8043F591CF7D0036095
:10AEC000D4F80034002BFBD0954200F10400F2D1FD
:10AED000094A0023C2F80435D2F80034002BFBD015
:10AEE000304670BC70470926304670BC704710264B
:10AEF000304670BC704700BF00E0014010B5030C45
:10AF000082B0012B0C46019002D07846FDF70CFD73
:10AF100007480849037822680A6043F0010383F078
:10AF20000202C2F34002037000200A7102B010BD99
:10AF3000203800201038002010B5030C82B0022BFE
:10AF40000C46019002D07846FDF7EEFC0749084B0D
:10AF50000A7820682479186042F0020200200A7002
:10AF60001C7158719871D87102B010BD2038002042
:10AF70000838002010B5030C82B0032B0C4601905A
:10AF800002D07846FDF7D0FC034B186820601B798F
:10AF9000237102B010BD00BF1038002010B5030CA3
:10AFA00082B0032B0C46019002D07846FDF7BCFC22
:10AFB0000649074A20680B7810602079107143F029
:10AFC000010300200B7002B010BD00BF203800202C
:10AFD0001038002010B5030C82B0042B0C460190F1
:10AFE00002D07846FDF7A0FC024B03CB20606160E5
:10AFF00002B010BD0838002030B5030C83B0042B1C
:10B000000C46019002D07846FDF78EFC054D206875
:10B010002A786168044B42F002022A7003C30020C0
:10B0200003B030BD203800200838002000B5030CE4
:10B0300083B0032B019002D07846FDF775FC034BDB
:10B0400000221A601A7103B05DF804FB103800206A
:10B0500000B5030C83B0042B019002D07846FDF7B5
:10B0600063FC034B0022C3E9002203B05DF804FB3C
:10B070000838002000B50B490A7B89688DB0012A89
:10B0800008BF01F1FF310346049101A802218DF8A8
:10B09000082003938DF80410FFF71AF80DB05DF83F
:10B0A00004FB00BFBC370020074A1378590702D5BC
:10B0B0000178122900D070470448054900684860AB
:10B0C0006FF382031370704720380020103800207F
:10B0D000BC37002000B5114B5B6885B003F5005309
:10B0E000B3F1807F029302D905B05DF804FB0C4AEE
:10B0F0000C49137809788DF80C1043F0040302A969
:10B100004FF44030137005F093FF0028ECD07846E0
:10B11000FDF70AFC05B05DF804FB00BFBC3700205A
:10B12000203800202138002030B50F4A0F4913780D
:10B1300088680D7B85B00133DBB20290002402A940
:10B140004FF4802013708DF80F308DF80C50ADF84F
:10B150000D4005F06DFF08B905B030BD7846FDF72C
:10B16000E3FB05B030BD00BF21380020BC37002014
:10B1700000B54FF4403083B005F0FEFF4FF480205F
:10B1800005F0FAFF0A480B4A0178002363F34511E2
:10B190000170C2E90033C2E9023313614B0704D4E2
:10B1A00003B05DF804EBFFF795BF03B05DF804FB57
:10B1B00020380020BC37002038B50C4D0024C5E9EC
:10B1C0000044C5E902442C6101F06EF9084A094BBC
:10B1D00011786C605860084D084864F3C301C3E9F6
:10B1E0000444C3E90250117038BD00BFBC370020D1
:10B1F00020380020983700209DB302000087930379
:10B20000F0B5274C2378DA0683B001D503B0F0BD42
:10B210002448254B036000F01DFE2448244B0360A6
:10B2200000F018FE237813F0200225D103F003016B
:10B23000032913D11F4A2049D079204E0870516844
:10B240001F4D3779C1F30F21298287421168127986
:10B25000A9602A7321D002BB2A6008E0184D2A6039
:10B26000AA602A732A82FFF75FFF2A6823786A6040
:10B270005B0701D4FFF72EFF4FF4803005F07CFF11
:10B280004FF4003005F078FF0E4801F099F823786C
:10B2900043F01003237003B0F0BD3268DCE700BF59
:10B2A00020380020B037002061B40200FC370020B5
:10B2B000A9B00200083800202138002010380020F2
:10B2C000BC3700209837002010B582B001F0E6FEB0
:10B2D000114B1A7B52B99A7B42B9198A41F28262A8
:10B2E00091420AD80D4A1278120706D4082001901C
:10B2F00001F018FF019802B010BD9A6801210A44BC
:10B3000000249A6019731C82FFF70EFF20460194F7
:10B31000FFF7B0FE0198EAE7BC3700202038002094
:10B3200010B501F0BBFE1B4B5C7BD4B19A7B0ABB12
:10B33000198A41F28262914217D91A7B0020587310
:10B34000EAB1012A1FD1C3E9000018731882FFF780
:10B3500091FEFFF7E9FE104B1B785B0701D4FFF766
:10B36000B9FE01F0DFFE204610BD0B4A127812F044
:10B370000802E2D1002401F0D5FE204610BDFFF7FF
:10B38000A3FF0028EDD07846FDF7CEFA01F0CAFE03
:10B39000204610BDBC3700202038002070B52D4C51
:10B3A000227B84B0E2B1012A26D07846FDF7BCFAB0
:10B3B000238A01339BB203EB031202EB02225242B7
:10B3C000C2F34E0141EAC23292B240F688018A428B
:10B3D000238222D9638A0BB1013B638204B070BD22
:10B3E000238A41F28262934203D81B4A12781107E2
:10B3F000DFD5FFF795FFEDE7238A41F282618B42AB
:10B4000021D8154A12781207D3D5FFF789FF0028F3
:10B41000E0D1637B002BDDD1CAE7104AA56816781E
:10B42000227BADF80D3002A94FF480208DF80F601B
:10B4300002958DF80C2005F0FBFD0028CAD0784657
:10B44000FDF772FAC6E742F2B0118B4288BF627311
:10B45000DBE700BFBC370020203800202138002067
:10B4600038B50378042B00D038BD43681B78002B17
:10B47000FAD01E4B44691A7B017E12BB5A8A32BB3A
:10B48000012999682FD14A1C944224D92A318C422F
:10B49000EAD89A7B002AE7D1154985689A81196113
:10B4A000C3E901241A60FFF73FFE124B1B785B07CC
:10B4B00001D4FFF70FFE05F11000BDE83840FFF79B
:10B4C000D9BD012AD0D10129CED09A6803E0012943
:10B4D000CAD19A6801329442C6D101225A73BDE89A
:10B4E0003840FFF71DBF8C42D0D838BDBC37002094
:10B4F0000000062D2038002070B51C4CD4E9002334
:10B500009A4229D2267B1A4905461A48012E08BFBD
:10B5100001468A4214D2403B934205D8164B1B7811
:10B520005A0701D4FFF7D6FDEFF3108072B62368F7
:10B530005A1C22602B6008B962B670BD002070BD35
:10B5400001236373FFF7ECFE0028EDD1D4E900235B
:10B55000403B9342E8D8E1E7074B1B785B0703D4F5
:10B56000FFF7B8FD0F2070BD0F2070BDBC37002065
:10B57000FFFF7F0000E0FF002038002038B10F4AB5
:10B580000F4913680120034413608873704710B596
:10B590000A4C23684BB1013B236003B110BD084A3C
:10B5A000BDE810409373FFF7BBBE7846FDF7BCF9CA
:10B5B0002368013B2360002BF0D1F0E78C3700209B
:10B5C000BC37002010B58CB00446032301A8ADF8A9
:10B5D000084003918DF810208DF80430FEF778FDB7
:10B5E0000CB010BD014B9868704700BFBC370020FD
:10B5F000034B1A7B9868012A08BF00F1FF3070479F
:10B60000BC370020044B9B685840C20748BF03F179
:10B61000FF331846704700BFBC370020014B187B32
:10B62000704700BFBC37002070B50F4C237813F073
:10B63000200501D0082070BD0C4E43F0200323707C
:10B64000B06031733582FFF76FFD2846FFF712FDBA
:10B65000237813F00404C6E9005503D1FFF73AFD3F
:10B66000204670BD284670BD20380020BC37002021
:10B670002DE9F0411F4C204F82B0002602212046C8
:10B6800002F0FEFC5FFA86F80146C8B1002554F8C6
:10B69000043C404613B134F80C2C984734F80C3C69
:10B6A00002210133204624F80C3C02F015FD022152
:10B6B000204602F0E5FC013501460028E7D145B9F6
:10B6C0000136032E04F1BC04D8D1012002B0BDE83C
:10B6D000F0810190204602F06BFD08280199EFD11E
:10B6E00054F8043C002BEBD00A46404639469847B4
:10B6F000E6E700BF383800203868040038B501217B
:10B7000004460C3002F0BCFC0546E0B11A4BC4F80C
:10B710009C300023C4F8A03002786168012A1AD056
:10B72000022A12D18268154B1548521A120B03FBDC
:10B7300002F303F5FA73834228BF0346C4E92A34AF
:10B74000012284F8B820284638BD7846FDF7ECF889
:10B750004FF4FA73F2E7836809485A1A22F0030398
:10B7600003EB9203DB0003EB920303F5FA738342CE
:10B7700028BF0346E2E700BFA5B70200084C01005E
:10B780006085010010B50446FFF7B8FF20B104F151
:10B790009C000DF089FB00B910BD7846BDE8104053
:10B7A000FDF7C2B82DE9F84F604B1B782DED028BE9
:10B7B0000D46002B40F0AD8001F10C03064601213F
:10B7C000184608EE103AD5F8A87002F059FC8346E6
:10B7D000002800F0A780DFF85C91DFF85C81A7F516
:10B7E000FA77002417E07846FDF79EF86C6800238E
:10B7F000A34237D001F072FB9BF80030841B48BF96
:10B80000341A012B72D0022B62D07846FDF78CF8E7
:10B8100023469F4261D39BF80030012BA7EB040421
:10B8200036D0022BDFD1A8FB04316C68DBF808307E
:10B83000090C1B1B09038B4228BF0B469A46002BA1
:10B840005BD0DBF8043024F0030018445146FFF7C6
:10B85000DFFA00284DD16C6854446C60DBF8083086
:10B86000A342C7D10DF064FB18EE100A012102F0CB
:10B8700033FC2F4A002310686B6085F8B83001F064
:10B88000A3FCBDEC028B2846BDE8F84FFFF77ABF5A
:10B89000A9FB0434D5F804A0DBF808306409A10042
:10B8A000A3EB0A048C4228BF0C4674B3DBF80C10DF
:10B8B000DBF804302AF00300014422461844FFF765
:10B8C000DDFAF0B969680C446C60DBF808308FE78A
:10B8D00004F5A63308339F429DD20DF029FBBDEC41
:10B8E000028B2846BDE8F84FFFF74CBF04F129034F
:10B8F0008FE77846FDF718F8ADE77846FDF714F8BE
:10B900009FE77846FDF710F8DCE77846FDF70CF87E
:10B91000CCE70DF00DFBBDEC028B002385F8B830B1
:10B92000BDE8F88F7846FCF7FFFF54E72838002081
:10B93000243800207D0CCEC7EB0661C570B51A48CF
:10B940001A4C01F021FC1A49054604F11C0204F1CD
:10B95000180341F2030604F10C000D600825C4E948
:10B960000432A681A57302F0EFFB04F1D80204F1C2
:10B97000D40304F1C800C4E93332A4F8C86084F8E1
:10B98000CA5002F0E1FB04F5CA7204F5C873C4E9B9
:10B99000623204F5C270A4F8846184F88651BDE86F
:10B9A000704002F0D1BB00BF71B602002C380020FD
:10B9B00024380020022838B504460D4605D805482D
:10B9C000BC2303FB0404A56038BD7846FCF7ACFF3C
:10B9D000F5E700BF2C38002002282DE9F84F054676
:10B9E0000C4692464ED8002C51D02378012B54D0CF
:10B9F000022B0AD16368C3F30B03002B7DD1A3682C
:10BA0000C3F30B02002A51D113B97846FCF78CFF1F
:10BA1000EFF3108972B6BC27DFF8ECB007FB05F72F
:10BA200007F10C08D8444046002102F029FB0646E5
:10BA3000002842D04046002102F04EFB2168626897
:10BA4000A368E068F06031607260B360BAF1000F23
:10BA500004D00BEB07035B88AAF80030BC2000FB86
:10BA600005B56B8895F8B80001336B8040B9254B5C
:10BA70001B7823B3B9F1000F00D162B6BDE8F88F8F
:10BA80000020F7E77846FCF74FFF002CADD1784651
:10BA9000FCF74AFF2378012BAAD16368980728D1C5
:10BAA000E368990721D1A3689A07ADD07846FCF7DF
:10BAB0003BFFA368002BABD1A7E70420DAE70BEB31
:10BAC0000700FFF71BFEB9F1000F00D162B628B1E5
:10BAD00007F19C0058440DF0E7F910B90020BDE8CB
:10BAE000F88F7846FCF720FFF8E77846FCF71CFF54
:10BAF000D9E77846FCF718FFD2E77846FCF714FF41
:10BB00007DE700BF283800202C38002070B5EFF307
:10BB1000108472B668B91A4D2B68DBB1013B2B60FB
:10BB200063B1003B174A18BF0123137004B962B612
:10BB300070BD134A136801331360F2E7124E96F892
:10BB4000B830C3B196F874318BB196F8303253B136
:10BB50002B68E6E77846FCF7E7FE2B68013B2B6095
:10BB6000002BEBD0DDE70948FFF70CFEF0E70848B3
:10BB7000FFF708FEE9E73046FFF704FEE2E700BF03
:10BB8000603A0020283800202C380020A4390020FA
:10BB9000E838002010B1024B800B185C704700BFE2
:10BBA0004868040012DF704700B583B001F0D6FE8C
:10BBB00038B10C4B1B685B0603D50B4B1B68012B84
:10BBC00002DC03B05DF804FB084A094B0949D3F8CD
:10BBD0000435CDE900206C22022002F0FBFC03B00A
:10BBE0005DF804FB802E00207C2E00207C68040081
:10BBF000001001406F68040070B58AB00DF0D2FEED
:10BC000048B300238DF81030064604460FCE05AD2C
:10BC10000FC533682B60627D052A04D9207D00F0B2
:10BC20000F03072B23D1184B1A688AB1237D617D3E
:10BC3000C3F3030304A806298DF80430039011D937
:10BC4000063904F11D038DF80510029301A89047F1
:10BC500020460DF087FE0DF0C3FE80F00100C0B25B
:10BC60000AB070BD00238DF805300293EEE7063A66
:10BC7000184604F11D0104AB0CF02CFC024B1A68B1
:10BC8000002AD3D1E4E700BF683A00200B4B1A78B2
:10BC9000032A00D0704710B58CB004242C22002158
:10BCA00001A81C7019F018FF1C230DEB04008DF87F
:10BCB0000430FEF70DFA0CB010BD00BF643A00204E
:10BCC000F0B5314E337883B0E3B90446002859D03B
:10BCD000077A0F2F01D0062F18D106F0EDF8E06893
:10BCE000002844D0FCF732FE0DF10700FFF75AFFA1
:10BCF000054620B99DF80730012B0BD002252846B8
:10BD000003B0F0BD0825284603B0F0BD072528463E
:10BD100003B0F0BDFCF74CFE00F03EFB384601F0EE
:10BD20006DF9E07800F07CF900F042FF0DF03EF88C
:10BD300016480DF00FFF0CF04DFD0CF09DFBFFF7CA
:10BD4000FDFD05F01DF900F019FD06F075F805F090
:10BD500049FE204601F054FDFDF7B0FD04F024FC3F
:10BD6000FCF734FD30B1062804D00546C7E7FCF7E0
:10BD7000FBFDB9E7064A0021012328461160337014
:10BD800003B0F0BD0E25BAE7643A0020F9BB02000B
:10BD9000683A002030B51C4D2B78012B83B00BD0B6
:10BDA000033B012B2CD80DF071F8044608B902238F
:10BDB0002B70204603B030BD0DF0B2FD01F02EFD1A
:10BDC000FDF7C0FDFCF702FD0446B0B1062814D013
:10BDD0000E4B1B685B04ECD50D4B1B68012BE8DD9B
:10BDE0000C4A0D4B0D49D3F80435CDE900204FF432
:10BDF000AF72022002F0EEFBDBE701F02DF9D2E793
:10BE00000824204603B030BD643A0020802E002074
:10BE10007C2E0020A8680400001001406F68040018
:10BE200008B5094B1A78022A01D0082008BD032260
:10BE300006481A700CF0DCFF0028F7D07846FCF7B3
:10BE400073FD002008BD00BF643A00208DBC0200D5
:10BE5000FEF74EB8FEF76AB9FEF77AB908B500F0FA
:10BE600071FE002008BD00BF07F094BB044B1868AA
:10BE70000130B0F1704F08BF01201860704700BF5B
:10BE80006C3A002010B5044618B10023C4E9003311
:10BE900010BD7846FCF748FD0023C4E9003310BD0F
:10BEA00038B50D46044678B19DB100236B60EFF3C1
:10BEB000108372B622682AB162685560656003B962
:10BEC00062B638BD2560F9E77846FCF72DFD002DF8
:10BED000EBD17846FCF728FDE7E700BF10B5044634
:10BEE00068B1EFF3108272B6206828B1436823600E
:10BEF00013B102B962B610BD00236360F9E778465A
:10BF0000FCF712FDEDE700BF10B5044608B120684C
:10BF100010BD7846FCF708FD206810BD38B50C460A
:10BF20000546A8B1CCB1236853B1EDB12B6843B13C
:10BF3000D4E900126B68596000236A60C4E90033D9
:10BF400038BD94E8030085E80300C4E9003338BD38
:10BF50007846FCF7E9FC002CE5D17846FCF7E4FCD8
:10BF60007846FCF7E1FCDEE77846FCF7DDFCDDE730
:10BF7000F0B5D0E90041231D994285B00AD00A6886
:10BF80001746636893421ED07B680B6001230372DF
:10BF900005B0F0BD23680A680194002502948DF86D
:10BFA0000C50264617462BB9EBE71E1D5B68012592
:10BFB000002BE6D09A42F8D105B1029601A8FFF70E
:10BFC000D7FF05B0F0BDA14203D00B1F63600F681F
:10BFD000DAE7002317464B60D6E700BF037A13B1B8
:10BFE00000230372704743681B6804334360704743
:10BFF00035DF704708B54FF0FF30FFF7F9FFBFF3AB
:10C000004F8F0549054BCA6802F4E0621343CB60C9
:10C01000BFF34F8F00BFFDE700ED00E00400FA051D
:10C0200007289ABF024B53F82000FA20704700BF40
:10C03000D0680400024B5868103840B2704700BF07
:10C0400000ED00E000280346B8BF00F11F030849D7
:10C050005B11424251F8233002F01F0200F01F0032
:10C0600058BF504223FA00F000F00100704700BFB3
:10C0700000E100E046DF70472DE9F04F044693B041
:10C0800093460068A2680E4698466168E36806AF6A
:10C090000BF10F053C460FC42B110BF00F0B03D017
:10C0A000BBF1000F00F081804FF000094FF0020A51
:10C0B000002238460193CDE90A22CDE90C22FFF790
:10C0C000D9FF019B0DF1470501219DF838409DF9ED
:10C0D00038C00EA86400E2B2027010F8014F42EAC4
:10C0E000D412A84200F8012CF4D19DF84720520048
:10C0F000D2B2BCF1000FB8BF82F087028DF84720A2
:10C100004A1C52454FF00201DFD903F1FF3AB9F161
:10C11000000F4ED04FEA0A1000F1100CB44402ACEC
:10C120000DF1170215F801191CF8013DA24281EA30
:10C130000301117002F1FF32F4D100239A45CDE9D9
:10C140000E33CDE910335EDD103606EB00090DF13C
:10C15000370507F10F0A2B4631461A7C11F8010DFD
:10C16000424003F801299A45F7D110363846FFF7C7
:10C1700081FFB145EFD13A4612F8013D297C944246
:10C1800083EA010305F80139F6D138460EACFFF712
:10C1900071FF0FCCC8F80000C8F80410C8F80820D8
:10C1A000C8F80C3013B0BDE8F08F4FF00109CA4653
:10C1B0007EE702AC5A4606EB0A11204619F063FCF2
:10C1C00012AB5B44802203F8402CBBF10F0F0BF144
:10C1D00001034FEA0A1018BF1B1903D003F8019B93
:10C1E000BB42FBD13B4613F8011D15F801299C42C7
:10C1F00082EA01021A70F6D100239A45CDE90E3386
:10C20000CDE91033A0DC0DF13705B4E7144938B59A
:10C210000B68044693B10B6840685B68C31A002B37
:10C220000CDB0B6803E05A68121A002A03DA1D4679
:10C230005B69002BF7D163616C6102E00B6863619D
:10C240000C608B8801339BB28B8013B10123237068
:10C2500038BD7846FCF768FB0123237038BD00BF6A
:10C26000743A002015490B68834210B5044619D072
:10C270000B682BB15A69A24205D01346002BF9D1A5
:10C280000023237010BD8A886069586193B25A1EDA
:10C2900092B28A80002BF3D17846FCF745FB00234D
:10C2A000237010BD43690B608B889BB25A1E92B2FB
:10C2B0008A80002BF0D00023237010BD743A002038
:10C2C000014B186800F080BF703A0020044B1A68D8
:10C2D00022B11B680349586800F078B900F0D2B960
:10C2E000743A0020C1C202002DE9F041294E00F04D
:10C2F000DBF83368002B33D033685B681B1A642B80
:10C3000005462DD54FF00008022706E033683BB301
:10C3100033685B685B1B642B22D534682378012B60
:10C3200002D07846FCF700FB63693360B388C4F839
:10C3300014809BB25A1E92B2B280EBB1A368B3B123
:10C34000284621692770984700F0AEF82378022B21
:10C350000546DBD1E2689AB922703368002BD7D149
:10C3600000F0A2F8FFF7B2FF0120BDE8F0817846A7
:10C37000FCF7DAFAA368E3E77846FCF7D5FADDE7DD
:10C3800063681344591B6429FBD463602046FFF79C
:10C390003DFFBBE7743A002008B5064B0648002273
:10C3A0001A605A6000F0F0FE044B1860BDE80840C7
:10C3B00000F06CB8743A0020E9C20200703A002024
:10C3C00010B5044601F010F880B1A4B1A368C3B160
:10C3D0002378012B1BD0002363612046FFF716FF53
:10C3E00000F062F8BDE81040FFF770BF7846FCF738
:10C3F0009BFA002CEAD17846FCF796FAA368002B4A
:10C40000E6D17846FCF790FA2378012BE3D1784601
:10C41000FCF78AFADFE700BF10B5044600F0E4FF3E
:10C4200058B17CB12046FFF71DFF0023636100F087
:10C430003BF8BDE81040FFF749BF7846FCF774FAB7
:10C44000002CEFD17846FCF76FFAEBE738B50446DD
:10C450000D4600F0C9FF78B19CB12046FFF702FFFE
:10C460000023636120466560FFF7D0FE00F01CF8F2
:10C47000BDE83840FFF72ABF7846FCF755FA002C94
:10C48000EBD17846FCF750FAE7E700BF08B516F0A5
:10C49000DBFE00B108BD16F0E9FD0028FAD07846B1
:10C4A000BDE80840FCF740BA10B4EFF3108072B654
:10C4B0000D4A0E4B1968D2F80435D2F80441012C0C
:10C4C00004BFD2F80435013100B962B608485DF8FE
:10C4D000044B43EA01614FF480420023E0FB012357
:10C4E000D00B40EA43407047001001407C3A0020E6
:10C4F00040420F000A4B10B54FF40032094CC3F80C
:10C500004823C3F80823236833B12468FFF7CCFF1E
:10C510002346BDE8104018477846FCF705FAF4E7D3
:10C5200000100140883A0020EFF3108172B6224BD0
:10C53000224A0020C3F8040113680133136001B9D3
:10C5400062B61F4B1A6802B970471A68013A1A603E
:10C550001B68002BF8D1184A1A4BD2F80405196849
:10C56000884210B51AD2EFF3108072B6D2F80415D3
:10C570001C680131A14228BFD2F804350E4A34BFED
:10C580001B680233C2F8443500B962B60A4B4FF457
:10C590000032C3F84423C3F8042310BD0A4C2368B7
:10C5A00033B12468FFF780FF2346BDE810401847E9
:10C5B0007846FCF7B9F9F4E7001001407C3A002016
:10C5C000803A0020843A0020883A002030B583B0B9
:10C5D000002304460D460193002943D0234B1D60E0
:10C5E000FFF762FF031B002B2DDB0220EFF310830C
:10C5F000019372B61E49D1F80435C3F1FF1202F55A
:10C600007F42824212D31B4D1B4C034400224FF445
:10C610000030C1F84435C1F84403C1F804032A606E
:10C620002260019B03B962B603B030BD03F17F43C2
:10C63000013303441A0E0F480F49013223F07F43A0
:10C6400002600B60EDE7241A0C480D4A4FF40043DA
:10C650000021E3FB0401002319F0DCF8022838BFB5
:10C660000220C3E77846FCF75FF9B7E7883A002075
:10C6700000100140803A0020843A002020A10700E9
:10C6800040420F0030B4084A084D094C09480023C5
:10C690004FF40031C2F84813C2F808132B6023602E
:10C6A00030BC0360704700BF00100140803A00209A
:10C6B000843A0020883A002030DF704731DF70472D
:10C6C00010B40346D0E901240068D968A0EB7210C9
:10C6D00082EAF4320C4401441044C3E901415DF89C
:10C6E000044BD8601A60704770B50D4682B006469C
:10C6F000D8B1C5B100240DF10700FFF7DDFF9DF8AB
:10C7000007100029F7D02B1B994288BFD9B206EB3E
:10C71000040088BF8DF80710FFF7D0FF9DF80730A1
:10C720001C44AC42E7D302B070BD7846FCF7FCF87D
:10C73000DFE700BFF0B5042183B0002307460DEB0F
:10C7400001000193FFF7D0FF019B0B4C1A461946DD
:10C750001425A4EB7316013D83EAF13402EB0103C7
:10C7600006EB020106EB0402F3D1C7E90043C7E977
:10C77000021203B0F0BD00BFED5EEAF1704700BFEA
:10C7800000B583B02948019004F0F6FC4FF48173A2
:10C79000ADF80630019804F0EFFC4FF48273ADF869
:10C7A0000630019804F0E8FC40F20113ADF80630C1
:10C7B000019804F0E1FC40F20313ADF80630019853
:10C7C00004F0DAFC40F20513ADF80630019804F0ED
:10C7D000D3FC4FF48373ADF80630019804F0CCFC21
:10C7E00040F20713ADF80630019804F0C5FC4FF491
:10C7F0000073ADF80630019804F0BEFC4FF40C73E2
:10C80000ADF80630019804F0B7FC4FF40873ADF8AA
:10C810000630019804F0B0FC4FF40473ADF8063014
:10C82000019803B05DF804EB04F0A6BC030000011E
:10C8300048DF704749DF70474ADF704730B4084A25
:10C8400008491568516143F2B06440F6D86303208B
:10C850009D4288BF2346107430BC8B60704700BF78
:10C86000B83A0020D83A0020124A38B51368124C62
:10C8700001210B44002513606171257400F054FB05
:10C880000CF0E0FB0D4B21681B680D480D4A283366
:10C8900001FB03F3A0FB030378392846A1EB934186
:10C8A00000F0E6FA00B938BD7846BDE83840FCF73C
:10C8B0003BB800BFEC3A0020B83A0020D43A002040
:10C8C00083DE1B433DC8020010B4264BC8B95A6929
:10C8D0009968012401315208A1425A6199601C747F
:10C8E00022D0022904D1D968022912D0012933D0DB
:10C8F0001B681D4913448B420FD95DF8044BFFF7A9
:10C90000B3BFDC6819685A6901341144DC601960EE
:10C91000DEE71968144A521A5A6140F6D7639A4200
:10C92000EBD95DF8044B7047B2F5FA7F09D040F6B9
:10C93000D8618A4206D91B680B491A448A42DCD85E
:10C94000EFE758B11A68084902F6D86240F6D86095
:10C950008A425861D1D8E4E70028C9D100225A613F
:10C96000CBE700BFB83A0020809698002DE9F0414F
:10C970006A4D6B4C2B78012222711BB1694E3778BE
:10C98000002F60D000232374042800F2BF80DFE86A
:10C9900000F012354D5303000120FFF795FF227C74
:10C9A000931EDBB2012B32D9022A38D000235E4815
:10C9B0002371BDE8F081DFF88881A079D8F80820DC
:10C9C000236822600021C4E9021100286FD0574972
:10C9D000002B08BF0B46981A0121B0F57A7F21740D
:10C9E00043D39A4241D843F2B06243F69823C8E950
:10C9F0000223606188F80510A171D7E700F0E6F91D
:10CA00000CF000FB227C931EDBB2012BCCD86379A7
:10CA1000444E002B37D10023022A3370C6D10123A4
:10CA20002376002340482371BDE8F0810CF0ACFA76
:10CA3000227C931EDBB2B5E70020FFF745FF227C86
:10CA4000931EDBB2AEE700F049FA2B782060022B90
:10CA500059D0032B3BD0012B4DD07846FBF764FF18
:10CA6000227C2F70931EDBB29CE701234FF47A7077
:10CA700043F2B06143F69822C8E90212606188F877
:10CA80000530A37192E70CF0FDFA294B20681B6872
:10CA9000284A283300FB03F3A2FB03237838A0EBDA
:10CAA000934000F085FA0023227C6371B3E7FFF71F
:10CAB000DBFE227C0121931E43F2B06088F8051052
:10CAC000A17143F69821C8E90201DBB26AE7DFF8F9
:10CAD0007080194A194BA771C8E9022388F80570BC
