:020000022000DC
:1070000000F003206D7302005573020057730200F5
:10701000597302005B7302005D7302000000000000
:107020000000000000000000000000005F7302008C
:1070300061730200000000006373020065730200C8
:1070400067730200677302006773020067730200D0
:107050006773020067730200BD7B02006773020062
:107060006773020067730200214E04006773020019
:1070700067730200677302006773020067730200A0
:107080006773020005400500290B030067730200C7
:107090007540050067730200B99D04006773020024
:1070A0006773020067730200677302006773020070
:1070B0006773020067730200000000000000000018
:1070C0006773020067730200677302006773020050
:1070D0006773020067730200677302006773020040
:1070E000677302006773020067730200000000000C
:1070F00000000000677302000000000067730200D8
:10710000000000000000000000000000000000007F
:10711000000000000000000000000000000000006F
:10712000000000000000000000000000000000005F
:10713000000000000000000000000000000000004F
:10714000000000000000000000000000000000003F
:10715000000000000000000000000000000000002F
:10716000000000000000000000000000000000001F
:10717000000000000000000000000000000000000F
:1071800000000000000000000000000000000000FF
:1071900000000000000000000000000000000000EF
:1071A00000000000000000000000000000000000DF
:1071B00000000000000000000000000000000000CF
:1071C00000000000000000000000000000000000BF
:1071D00000000000000000000000000000000000AF
:1071E000000000000000000000000000000000009F
:1071F000000000000000000000000000000000008F
:10720000344935480A1A02D0072291438D46334942
:1072100033480A1A06D00722914381F309880222D3
:1072200082F314882F483049304A00F042F8304841
:107230003049314A00F03DF830483149314A00F0D8
:1072400038F831483149324A00F033F83148324990
:10725000324A00F02EF832483249334A00F029F819
:1072600032483349334A00F024F833483349002286
:1072700000F02AF832483349002200F025F832485D
:107280003249091A082902DB0022026041601F48C6
:107290001F49884205D00268043003B4904703BCFC
:1072A000F7E700208646EC4600200021284A904758
:1072B000FEE7884207D0521A05D0037801300B70E0
:1072C0000131013AF9D17047884202D00270013091
:1072D000FAE7704700F0032000E8032000F00320E5
:1072E00000F00320B0680500002E0020802E002052
:1072F000A0730200A07302002A480500B0680500D0
:10730000002E0020002E00207C4B05007C4B050049
:107310007C4B05007C4B05007C4B05007C4B05003D
:107320007C4B05007C4B0500B0680500306905000A
:10733000802E0020802E0020802E00200D5A00205C
:10734000105A0020105A0020105A0020105E002011
:1073500065940200FEE7FEE7FEE7FEE7FEE7FEE7D4
:10736000FEE7FEE7FEE7FEE700F002B8FFF7FCBF2E
:1073700008484FF00701884385460748804707487B
:10738000016841F470010160BFF34F8FBFF36F8F4D
:10739000FFF736BF00F0032019A4040088ED00E0D9
:1073A00000B585B00190019B1B781C2B11D10B4BB4
:1073B0001B78002B0DD022F095FC0390039B002B33
:1073C00004D0074A5E21039823F004FA054807F029
:1073D00052FC00BF05B05DF804FB00BF802E00200A
:1073E0007C4B0500002E002000B591B003460091B3
:1073F0008DF807304A4B1B7883F00103DBB2002B7A
:1074000040F086809DF80730012B02D0032B71D00D
:1074100083E00023069306AB1946012022F06CF9A5
:107420000D900D9B0C930C9B002B04D03D4A7221B8
:107430000C9823F0CFF906AB184622F0EBF90D902B
:107440000D9B0B930B9B002B04D0364A75210B9898
:1074500023F0C0F90123049304AA0DF11603114689
:1074600018461BF01DFE0A900A9B002B04D02D4AE3
:107470007D210A9823F0AEF9BDF8163018461BF0AE
:1074800063F903461A460DF10F03194610461BF027
:1074900069FB0990099B002B04D0224A7E210998A0
:1074A00023F098F913F0E8FB9DF80F3019460020FF
:1074B00013F07AFD0346002B04D07B46089308980E
:1074C00001F0C2F807F02EFB0D900D9B0793079B70
:1074D000002B04D0134A8E21079823F07BF9104B20
:1074E00000221A70104B1B68002B13D00E4B1B6828
:1074F00098470FE022F0A2FB0F900F9B0E930E9B7C
:10750000002B09D0074A9B210E9823F063F903E072
:1075100000BF02E000BF00E000BF11B05DF804FB57
:10752000802E00207C4B05009C30002000B583B0ED
:107530000A4B01221A700A4807F093FB07F064FB1C
:107540000190019B002B04D0064AAE21019823F044
:1075500041F900BF03B05DF804FB00BF802E00209E
:10756000002E00207C4B050000B583B00023019362
:1075700001230193019B43F0020301930A490B4845
:1075800024F020F90090009B002B01D0009B07E025
:10759000074B1969019B0022064824F020F9034695
:1075A000184603B05DF804FB28320020E8310020C3
:1075B0009C300020B430002000B585B00190019BC4
:1075C0001B78023B082B73D801A252F823F000BFAE
:1075D00037760200F575020019760200B1760200D6
:1075E000B176020065760200B1760200B176020043
:1075F00087760200344B5B68002B5BD0019B1B7AC3
:10760000002B57D0314B01221A702F4B5B68019A27
:10761000127A104698474DE02B4B9B68002B4BD0BD
:107620002A4B1B78002B47D0284B00221A70264B80
:107630009B68984740E0264B1B7883F00103DBB240
:10764000002B0CD0204BDB68002B05D01F4B0022F9
:107650001A701D4BDB689847FFF786FF2FE0FFF796
:1076600065FF2CE0184B5B6910221946194824F07D
:107670004EF90290029B002B20D0174AF521029868
:1076800023F0A8F81AE0019BDA68019B9B68194671
:10769000104610F04DFE0390039B002B04D00E4AC1
:1076A000FB21039823F096F8094B01221A7006E09B
:1076B00000BF04E000BF02E000BF00E000BF00BF69
:1076C00005B05DF804FB00BF9C300020493200206B
:1076D00048320020B43000207C4B050030B58DB01E
:1076E0000390284A05AB07CA03C31A800233120C61
:1076F0001A70254A039B14461D460FCD0FC495E80A
:10770000030084E80300204B5B69002B01D10723B1
:1077100035E005AB1D4A00921D4A1E491E4823F064
:10772000CAFF0B900B9B002B01D00B9B27E01B4843
:1077300026F0A6FC03461946174824F01BF80A90C9
:107740000A9B002B01D00A9B19E0154826F032FF56
:107750000990099B002B01D0099B10E0104826F0EE
:107760006BFF034619460C4824F004F80890089B68
:10777000002B01D0089B02E0FFF7F6FE03461846F7
:107780000DB030BDD84B05009C300020B97502000B
:1077900028320020E8310020B4300020D42E002010
:1077A000842E002000B585B001900A4B1B68002B89
:1077B0000BD01FF083F90390039B002B04DB054BD8
:1077C0001B6803989847F4E700BF00BF05B05DF859
:1077D00004FB00BF4C320020F0B587B0039002914B
:1077E000224A039B1360224A012122482CF084FC88
:1077F0000590059B002B04D01F4A4A21059822F0D2
:10780000E9FF1E4B0193029B1A464FF00003550CF3
:10781000D40341F26F724FF00003AB4208BFA242A3
:1078200011D2029B1A464FF00003570CD6034FF4B7
:107830007A724FF00003304639462CF0F5FD0246CF
:107840000B46134600E005230022194601982CF050
:1078500083FC0490049B002B04D0074A4B2104981E
:1078600022F0B8FF00BF07B0F0BD00BF4C320020CF
:10787000A5770200E44B0500E84B050050320020DC
:1078800082B003468DF807309DF8073003F01F02E1
:1078900005499DF907305B09012000FA02F241F821
:1078A000232000BF02B0704700E100E082B0034631
:1078B00000918DF807309DF90730002B0CDA009B02
:1078C000DAB20C499DF8073003F00F03043B520174
:1078D000D2B20B441A7609E0009BDAB206499DF950
:1078E00007305201D2B20B4483F8002300BF02B02C
:1078F000704700BF00ED00E000E100E082B00190C1
:107900000091019A009BD31A002B03DA009A019B85
:10791000D31A02E0019A009BD31A184602B07047AE
:1079200000B585B001901D4B1B68002B14BF0123CF
:107930000023DBB20393039B002B04D1184A64217C
:10794000002022F047FF4FF0A043D3F80425154B49
:107950001B684FF0A0415340C1F804350F4B1B6822
:10796000013B0E4A13600D4B1B68002B12D10E4BCE
:1079700018462CF027FC4FF0A043D3F80425094B00
:107980001B68DB431A40094B1B684FF0A0411343AF
:10799000C1F8043500BF05B05DF804FB9832002043
:1079A000404C05009C32002078320020A03200209C
:1079B00082B001900B468DF803309DF80330002B08
:1079C00007D00122019B9A404FF0A043C3F80C2539
:1079D00006E00122019B9A404FF0A043C3F808251E
:1079E00000BF02B0704782B001900B468DF80330A3
:1079F0009DF80330002B05D04FF0A042019BC2F848
:107A00000C3504E04FF0A042019BC2F8083500BFDE
:107A100002B0704770B584B0039002910192019B4F
:107A2000002B3ED0029B132B3BD91F4A039B1360B4
:107A3000019B5B00013B1D4A13604FF0A043D3F84C
:107A40000425194B1B681340194A1360194E029BF9
:107A500018464FF000014FF000024FF00003CB0337
:107A600043EA5043C20312F5FA7443F100054FF4A0
:107A70007A724FF00003204629462CF0D5FC0246CE
:107A80000B4613460022194630462CF065FB034690
:107A9000002B07D14FF0A042034B1B68C2F80C35F6
:107AA00000E000BF04B070BD9C320020983200207E
:107AB000A03200207832002008B5064B18462CF082
:107AC00081FB054B1B6800211846FFF78CFF00BFA8
:107AD00008BD00BF783200209C32002000B583B082
:107AE0000D23019312E04FF0A042019B03F5E073D8
:107AF000032142F823104FF0A0420121019B01FA1B
:107B000003F3C2F80835019B01330193019B102B4D
:107B1000E9D9094A012109482CF0EEFA0090009BAE
:107B2000002B04D0064AAF21009822F053FE00BF7C
:107B300003B05DF804FB00BF217902003C4C050056
:107B4000404C050000B585B00190019B002B01D190
:107B50000E2327E0154A019B1360002303930DE0D9
:107B60004FF0A0421249039B0B441B7803F5E073CE
:107B7000104942F82310039B01330393039B032B0B
:107B8000EED90D4B4FF00042C3F804230A4B0022FC
:107B9000C3F87C2106210620FFF788FE0620FFF7A8
:107BA0006FFE0023184605B05DF804FB7432002018
:107BB0000C2E00200C0003000060004000B583B0D4
:107BC0001E4B0022C3F87C2100238DF807302CE0E7
:107BD0004FF0A043D3F81035DB439DF80720184938
:107BE0008A5C114601228A401340002B18D0154BA5
:107BF0001B68154AD2F8042511461846FFF77EFE89
:107C0000034643F2333293420AD90F4BD3F804357B
:107C10000C4A13600D4B1B689DF8072010469847CF
:107C20009DF8073001338DF807309DF80730032B9E
:107C3000CED900BF00BF03B05DF804FB0060004078
:107C40000C2E002070320020001001407432002001
:107C5000024BD3F804351846704700BF00100140AE
:107C6000F0B5D7B011AB186011AB1B68002B00F05A
:107C7000D58011AB1B6854936A4B1B6803F4804397
:107C8000002B67D0684B1B68032B63DD10235393D5
:107C9000539B802B28BF802353930023559324E0CC
:107CA00011AB1A68559B13441B788DF84B315F4B11
:107CB0001A689DF84B311B09DBB203F00F031A441D
:107CC000559B5B00117812AAD154584B1A689DF845
:107CD0004B3103F00F031A44559B5B0001331178BD
:107CE00012AAD154559B01335593559A539B9A42EE
:107CF000D6D3539B5B0012AA0021D1542F214C48AC
:107D00002CF0CBFC0346002B06D02F2148482CF04A
:107D1000C4FC03465C1C0EE05C2145482CF0BDFC15
:107D20000346002B06D05C2141482CF0B6FC0346EC
:107D30005C1C00E03E4CFFF78BFF024612AB029347
:107D40003C4B01933C4B00931346412221460420B7
:107D50000BF0BAF8334B1B6803F48043002B5ED062
:107D6000314B1B68032B5ADD2F2131482CF095FC39
:107D70000346002B06D02F212D482CF08EFC034605
:107D80005C1C0EE05C212A482CF087FC0346002B8B
:107D900006D05C2126482CF080FC03465C1C00E0E9
:107DA000234CFFF755FF0146549B1B68549A928859
:107DB00092B21046549AD28892B21546549A127AC8
:107DC0001646549A527A1746549A927A0C92549ABA
:107DD000D27A0D92549A127B0E92549A527B0F9241
:107DE000549A927B1092549AD27B0B92109A0A92D8
:107DF0000F9A09920E9A08920D9A07920C9A06927F
:107E0000059704960395029001930C4B00930B4643
:107E10004222214604200BF057F800E000BF57B083
:107E2000F0BD00BF342E0020382E0020302E002060
:107E3000984C0500F44C0500084D0500104D050058
:107E400072DF704700BF184673DF704700BF1846E7
:107E500074DF704700BF184600B5A9B00346009113
:107E6000ADF8063013468DF8053010220021484841
:107E70002CF054FC474B1B781A4613465B019B1AA7
:107E8000454A1344424A1360424B1B781A46134634
:107E90005B019B1A414A13443D4A93603C4B1F22AD
:107EA0009A803B4B1F229A813A4B1B780133DBB2FD
:107EB00003F00103DAB2374B1A7015AB3C220021F4
:107EC00018462CF02BFC06238DF85730BDF80630F1
:107ED000ADF8503001238DF852300123ADF86430F5
:107EE00014AB1A93BDF80630ADF844309DF8053058
:107EF0009BB2ADF84830009B139311AB1F93012345
:107F00008DF8803002AB3C22002118462CF006FC94
:107F100002238DF808301E4B196815AB204A18460D
:107F200021F048FA2690269B002B04D01D4A82217E
:107F3000269822F04FFC164B996802AB1A4A184655
:107F400021F038FA2590259B002B04D0154A832177
:107F5000259822F03FFC154A0D491548FFF770FFA0
:107F60002790279B082B05D1002209491048FFF7CD
:107F700067FF2790279B2493249B002B04D0094A5A
:107F80009321249822F026FC00BF29B05DF804FB61
:107F9000A432002032330020B4320020F43200201A
:107FA000A8320020504D0500B0320020142E0020D1
:107FB000102E002084B001900091019BB3F5202F7A
:107FC00005D2019B0C4AA2FB0323DB0801E04FF61C
:107FD000FF730393019B002B04D0039B002B01D163
:107FE00001230393039B9AB2044B9A81034A009B9B
:107FF000936000BF04B07047CDCCCCCC142E0020D1
:1080000000B583B00A4B1B7801211846FFF71CFF0F
:108010000190019B002B04D0064AAD21019822F06B
:10802000D9FB002008F036F900BF03B05DF804FB6F
:10803000102E0020504D050000B583B0084B1B7872
:108040001846FFF705FF0190019B002B04D0054A5D
:10805000B821019822F0BEFB00BF03B05DF804FB1D
:10806000102E0020504D050076DF704700BF1846E7
:108070007ADF704700BF18467CDF704700BF1846A4
:10808000024BD3F804351846704700BF001001407A
:1080900000B583B001900091019806F0F6FD00BF95
:1080A00003B05DF804FB000010B586B00390039B9D
:1080B0001B78002B11D1039B5B883B211846FFF7EF
:1080C000D3FF0590059B0493049B002B3AD01F4AD5
:1080D0006421049822F07EFB34E0039B1B78012B83
:1080E00030D11B4B1B6803F48043002B2AD0194B63
:1080F0001B68032B26DD2F2114482CF0CEFA0346F3
:10810000002B06D02F2111482CF0C7FA03465C1C27
:108110000EE05C210D482CF0C0FA0346002B06D07F
:108120005C210A482CF0B9FA03465C1C00E0074CBD
:10813000FFF7A6FF0346084A009268222146042062
:108140000AF0C2FE00BF06B010BD00BFA44D05007E
:10815000342E0020382E0020084E050000B583B0D4
:108160000190044A6E21019822F034FB00BF03B055
:108170005DF804FBA44D050000B587B021F05EFD5D
:108180000590059B0493049B002B04D0144A752191
:10819000049822F01FFB0023019301AB1946012034
:1081A00021F0AAFA0590059B0393039B002B04D0B2
:1081B0000B4A7B21039822F00DFB01AB184621F0FE
:1081C00029FB0590059B0293029B002B04D0044AD7
:1081D0007F21029822F0FEFA00BF07B05DF804FB91
:1081E000A44D050000B587B09DF80830012262F368
:1081F00003038DF808309DF80830012262F307135D
:108200008DF808301D482CF0DEFA03469AB202AB16
:108210001A491846FFF730FF0590059B0493049B0D
:10822000002B04D0164AB721049822F0D3FA6B46EB
:108230000822002118462CF071FA7823ADF800309E
:10824000C823ADF802300023ADF804304FF4C873F2
:10825000ADF806306B461846FFF70AFF0590059B00
:108260000393039B002B04D0054ABD21039822F001
:10827000B1FA00BF07B05DF804FB00BF344E050043
:10828000A44D050000B58DB001AB082200211846B1
:108290002CF044FA7823ADF80430C823ADF806304A
:1082A0000023ADF808304FF4C873ADF80A3003ABC3
:1082B0001C22002118462CF031FA01AB039340F642
:1082C000CD4304934FF48033059303238DF8183086
:1082D0000023ADF81A3000238DF81C300B4B0893A7
:1082E0000B4B099303AB184621F0B2FE0B900B9B8E
:1082F0000A930A9B002B04D0064AD4210A9822F044
:1083000069FA00BF0DB05DF804FB00BFA980020050
:108310005D810200A44D0500062318467047000049
:10832000024BD3F804351846704700BF00100140D7
:1083300082B04FF0A0434FF4F032C3F818254FF04D
:10834000A0434FF4F032C3F80C25EFF310830193F0
:1083500072B64DF6AD6C01E030BF00BF044B1B7828
:10836000DBB2002BF8D100BF00BF02B0704700BFE6
:108370002C2E002010B58CB0099008910792099B13
:1083800044F20202934200F08D80099B44F2020203
:10839000934200F20581099B44F20102934200F0EE
:1083A000C080099B44F20102934200F2F980099BCC
:1083B000012B05D0099B41F20102934239D0EFE035
:1083C000994B1B6803F48043002B00F01E81974BF0
:1083D0001B68002B40F319812F2195482CF05DF983
:1083E0000346002B06D02F2191482CF056F9034666
:1083F0005C1C0EE05C218E482CF04FF90346002BEC
:1084000006D05C218A482CF048F903465C1C00E049
:10841000874CFFF785FF0246079B0293089B019359
:10842000844B009313466022214601200AF04CFD44
:10843000EBE07D4B1B6803F48043002B00F0E780EA
:108440007A4B1B68002B40F3E2802F2178482CF0F8
:1084500024F90346002B06D02F2175482CF01DF976
:1084600003465C1C0EE05C2171482CF016F90346B3
:10847000002B06D05C216E482CF00FF903465C1CE3
:1084800000E06B4CFFF74CFF0246079B0293089BF2
:108490000193694B009313466322214601200AF0A1
:1084A00013FDB4E0079B0B935F4B1B6803F4804301
:1084B000002B00F0AE805D4B1B68002B40F3A980C1
:1084C0002F215B482CF0E9F80346002B06D02F2122
:1084D00057482CF0E2F803465C1C0EE05C2154483F
:1084E0002CF0DBF80346002B06D05C2150482CF022
:1084F000D4F803465C1C00E04D4CFFF711FF014629
:108500000B9B5B680B9A128803920293089B019362
:108510004A4B00930B466922214601200AF0D4FC05
:1085200077E0079B0A93404B1B6803F48043002BC2
:1085300071D03E4B1B68002B6DDD2F213C482CF089
:10854000ACF80346002B06D02F2139482CF0A5F8B3
:1085500003465C1C0EE05C2135482CF09EF8034677
:10856000002B06D05C2132482CF097F803465C1CA7
:1085700000E02F4CFFF7D4FE0A9B9B680A9A5268D2
:108580000A99096804910392089A029201932C4B6C
:10859000009303467322214601200AF095FC3AE03D
:1085A000214B1B6803F48043002B36D01F4B1B6804
:1085B000002B32DD2F211E482CF06FF80346002BD4
:1085C00006D02F211A482CF068F803465C1C0EE0F8
:1085D0005C2117482CF061F80346002B06D05C2183
:1085E00013482CF05AF803465C1C00E0104CFFF7CF
:1085F00097FE0246089B0193124B009313467B2281
:10860000214601200AF060FC07E000BF06E000BF41
:1086100004E000BF02E000BF00E000BFFFF788FEFB
:1086200000BF0CB010BD00BF342E0020382E00203B
:10863000484E0500A44E0500C04E0500E44E05005E
:10864000044F0500284F050000B585B001900023B8
:10865000ADF80830064B039302AB1A46019944F279
:108660000200FFF787FE00BF05B05DF804FB00BF06
:10867000444F050041DF704700BF1846024BD3F856
:1086800004351846704700BF0010014008B5024885
:108690002BF0A6FE00BF08BD9C33002000B583B0C0
:1086A0000A4B00224FF4803118462BF055FD019003
:1086B000019B0093009B002B04D0054A5B2100988E
:1086C00022F088F800BF03B05DF804FBB03300204F
:1086D000644F050000B585B02BF0D2FC0390039BDE
:1086E0000293029B002B04D00C4A6021029822F0D6
:1086F00071F80B4A01210B482BF0FEFC0390039B01
:108700000193019B002B04D0044A6621019822F0BA
:1087100061F800BF05B05DF804FB00BF644F0500C1
:108720008D8602006C52050010B586B0059004914C
:108730001346ADF80E301B4B1B6803F48043002B2F
:108740002DD0194B1B68032B29DD2F2117482BF047
:10875000A4FF0346002B06D02F2114482BF09DFFC9
:1087600003465C1C0EE05C2110482BF096FF03468C
:10877000002B06D05C210D482BF08FFF03465C1CBC
:1087800000E00A4CFFF77AFF0246049B0193084B76
:10879000009313467922214604200AF095FB00BF7E
:1087A00006B010BD342E0020382E0020644F050086
:1087B000B04F050010B584B003460291ADF80E30FD
:1087C000194B1B6803F48043002B2AD0174B1B68FE
:1087D000032B26DD2F2116482BF05FFF0346002BCD
:1087E00006D02F2112482BF058FF03465C1C0EE0E8
:1087F0005C210F482BF051FF0346002B06D05C2173
:108800000B482BF04AFF03465C1C00E0084CFFF7C6
:1088100035FF0346074A00927D22214604200AF0D4
:1088200053FB00BF04B010BD342E0020382E0020B2
:10883000644F0500D44F050000B583B003468DF8A2
:10884000073000214FF4F030FFF7CDF89DF80720F6
:1088500013469B0013445B001A4632214FF4C0308C
:10886000FFF7D8F800BF03B05DF804FB08B5FFF7C9
:1088700023F900BF08BD000010B584B03E4B1B6853
:1088800003F48043002B2AD03C4B1B68032B26DDCE
:108890002F213B482BF001FF0346002B06D02F2150
:1088A00037482BF0FAFE03465C1C0EE05C2134488E
:1088B0002BF0F3FE0346002B06D05C2130482BF052
:1088C000ECFE03465C1C00E02D4CFFF7D7FE034690
:1088D0002C4A00929622214604200AF0F5FAFFF76E
:1088E00081FCFFF7CFFC03AB184619F0DBFC224BF1
:1088F0001B6803F48043002B2DD0204B1B68032BF7
:1089000029DD2F211E482BF0C8FE0346002B06D080
:108910002F211B482BF0C1FE03465C1C0EE05C219E
:1089200017482BF0BAFE0346002B06D05C211448F2
:108930002BF0B3FE03465C1C00E0114CFFF79EFEDB
:108940000346BDF80C2001920F4A0092A122214655
:1089500004200AF0B9FAFFF7AFF800214FF4F03025
:10896000FFF741F80422C8214FF4F030FFF752F826
:1089700000BF04B010BD00BF342E0020382E0020F0
:10898000644F0500EC4F05000850050010B584B099
:1089900003460291ADF80E30194B1B6803F4804377
:1089A000002B2AD0174B1B68012B26DD2F211648E0
:1089B0002BF073FE0346002B06D02F2112482BF01C
:1089C0006CFE03465C1C0EE05C210F482BF065FE3C
:1089D0000346002B06D05C210B482BF05EFE0346BD
:1089E0005C1C00E0084CFFF749FE0346074A009272
:1089F000AB22214602200AF067FA00BF04B010BD86
:108A0000342E0020382E0020644F05002050050031
:108A100010B586B003460291ADF80E3013468DF8BE
:108A20000D309DF80D30022B73D0022B00F3A38084
:108A3000002B02D0012B34D09DE0594B1B6803F46E
:108A40008043002B00F0A280564B1B68032B40F3A1
:108A50009D802F2154482BF020FE0346002B06D08A
:108A60002F2151482BF019FE03465C1C0EE05C21BF
:108A70004D482BF012FE0346002B06D05C214A48DD
:108A80002BF00BFE03465C1C00E0474CFFF7F6FDA5
:108A90000346464A0092B922214604200AF014FAFD
:108AA00074E0062232214FF4F030FEF7B3FF3C4B66
:108AB0001B6803F48043002B6AD03A4B1B68032BDE
:108AC00066DD2F2138482BF0E8FD0346002B06D049
:108AD0002F2135482BF0E1FD03465C1C0EE05C21A4
:108AE00031482BF0DAFD0346002B06D05C212E48DE
:108AF0002BF0D3FD03465C1C00E02B4CFFF7BEFDC2
:108B000003462B4A0092BE22214604200AF0DCF9DB
:108B10003EE0234B1B6803F48043002B3AD0214BEB
:108B20001B68032B36DD2F211F482BF0B6FD0346B3
:108B3000002B06D02F211C482BF0AFFD03465C1CF8
:108B40000EE05C2118482BF0A8FD0346002B06D050
:108B50005C2115482BF0A1FD03465C1C00E0124C83
:108B6000FFF78CFD0346134A0092C22221460420DF
:108B70000AF0AAF90EE003230593059B002B0BD006
:108B8000094AC621059821F025FE05E000BF04E052
:108B900000BF02E000BF00E000BF00BF06B010BD94
:108BA000342E0020382E0020644F05004050050070
:108BB000605005008050050030B58BB009900891D9
:108BC0000792079B5B68002B41D03F4B1B6803F467
:108BD0008043002B74D03D4B1B68032B70DD2F218D
:108BE0003B482BF05AFD0346002B06D02F21384876
:108BF0002BF053FD03465C1C0EE05C2134482BF047
:108C00004CFD0346002B06D05C2131482BF045FD7E
:108C100003465C1C00E02E4CFFF730FD0246089B2B
:108C20005B881946079B1B781846079B5B781D4697
:108C3000079B5B680493039502900191254B009379
:108C40001346D222214604200AF03EF938E01E4B9A
:108C50001B6803F48043002B32D01C4B1B68032B92
:108C60002EDD2F211A482BF018FD0346002B06D0CD
:108C70002F2117482BF011FD03465C1C0EE05C21F0
:108C800013482BF00AFD0346002B06D05C21104848
:108C90002BF003FD03465C1C00E00D4CFFF7EEFCDF
:108CA0000246089B5B881946079B1B78029301913B
:108CB000094B00931346D722214604200AF004F9F9
:108CC00000BF0BB030BD00BF342E0020382E002076
:108CD000644F0500A4500500F850050010B582B09F
:108CE0001D4B1B6803F48043002B2AD01B4B1B68D1
:108CF000032B26DD2F211A482BF0CFFC0346002B37
:108D000006D02F2116482BF0C8FC03465C1C0EE051
:108D10005C2113482BF0C1FC0346002B06D05C21DC
:108D20000F482BF0BAFC03465C1C00E00C4CFFF72C
:108D3000A5FC03460B4A0092DE22214604200AF0DD
:108D4000C3F80322C8214FF4F030FEF763FE0FF0A2
:108D5000B3FB00BF02B010BD342E0020382E00201F
:108D6000644F05002451050000B583B00190019BBC
:108D70001B781C2B01D1FFF7B1FF00BF03B05DF8DA
:108D800004FB000010B58AB00390B44B1B6803F4D9
:108D90008043002B2DD0B24B1B68032B29DD2F21E4
:108DA000B0482BF07AFC0346002B06D02F21AD48AB
:108DB0002BF073FC03465C1C0EE05C21A9482BF0F1
:108DC0006CFC0346002B06D05C21A6482BF065FC0A
:108DD00003465C1C00E0A34CFFF750FC0246039BDB
:108DE0000193A14B00931346EE22214604200AF082
:108DF0006BF800230993039B032B13D801A252F8AD
:108E000023F000BF158E02001D8E0200158E020099
:108E10001D8E020001238DF81C3003E000238DF825
:108E20001C3000BF914B1B785A1CD1B28F4A117075
:108E30008DF81D303223069364230593874B1B68FE
:108E400003F48043002B2ED0854B1B68032B2ADDB7
:108E50002F2184482BF021FC0346002B06D02F2124
:108E600080482BF01AFC03465C1C0EE05C217D4818
:108E70002BF013FC0346002B06D05C2179482BF025
:108E80000CFC03465C1C00E0764CFFF7F7FB034646
:108E90009DF81C200192764A009240F20912214668
:108EA00004200AF011F8039B012B04D9039B023B19
:108EB000012B21D812E06F4B1B88184616F0AEFE2E
:108EC00005AA07AB19466B482AF056FA09909DF897
:108ED0001C3019460D20FEF76BFD0DE005AA07A911
:108EE000022365482AF09CFA09909DF81C30194627
:108EF0000E20FEF75DFD00BF099B112B00F29A804A
:108F000001A252F823F000BF4D90020035900200FC
:108F10003590020035900200518F0200359002001A
:108F200035900200C98F0200518F02003590020077
:108F30003590020035900200359002003590020015
:108F4000359002003590020035900200518F0200EA
:108F5000424B1B6803F48043002B2ED0404B1B6810
:108F6000032B2ADD2F213F482BF097FB0346002BD4
:108F700006D02F213B482BF090FB03465C1C0EE0F3
:108F80005C2138482BF089FB0346002B06D05C217E
:108F900034482BF082FB03465C1C00E0314CFFF7A9
:108FA0006DFB0246039B0193344B0093134640F242
:108FB00027122146042009F087FF062232214FF4B0
:108FC000F030FEF727FD46E0244B1B6803F4804396
:108FD000002B3DD0224B1B68032B39DD2F2121486C
:108FE0002BF05BFB0346002B06D02F211D482BF0F6
:108FF00054FB03465C1C0EE05C211A482BF04DFB31
:109000000346002B06D05C2116482BF046FB034696
:109010005C1C00E0134CFFF731FB0246039B0193FD
:10902000174B0093134640F233122146042009F0F7
:109030004BFF0DE0099B0893089B002B0AD0094ABF
:1090400040F23711089821F0C5FB03E000BF02E0B1
:1090500000BF00E000BF00BF0AB010BD342E0020EA
:10906000382E0020644F050040510500D133002008
:10907000545105003433002068330020705105003E
:109080008851050000B585B00190019B2F2B08DDAC
:10909000019B332B05DC019B303B03930398FFF7C7
:1090A00071FE00BF05B05DF804FB000010B586B08E
:1090B0004D4B1B6803F48043002B2BD04B4B1B689C
:1090C000032B27DD2F214A482BF0E7FA0346002B1C
:1090D00006D02F2146482BF0E0FA03465C1C0EE038
:1090E0005C2143482BF0D9FA0346002B06D05C21C3
:1090F0003F482BF0D2FA03465C1C00E03C4CFFF7E3
:10910000BDFA03463B4A009240F247122146042032
:1091100009F0DAFE002305933CE0374A059B342131
:1091200001FB03F313443033344A1A60324A059B7F
:10913000342101FB03F31344283300221A602E4A22
:10914000059B342101FB03F313442C3300221A70D6
:10915000294A059B342101FB03F313442D330022DC
:109160001A70059B342202FB03F3234A1344059A29
:10917000D2B2114618462AF0AFF80290029B002B9B
:1091800005D01B4A4FF4A871029821F023FB059BE0
:1091900001330593059B002BBFD0194B194A5A6028
:1091A000174B194A9A60012115482BF0E7F80490F3
:1091B000049B002B05D00E4A4FF4AA71049821F0AD
:1091C00009FB0F4B1B88184615F096F90390039B7B
:1091D000002B05D0064A40F25511039821F0FAFA07
:1091E00000BF06B010BD00BF342E0020382E002076
:1091F000644F0500B451050034330020705205005F
:109200009C33002029870200B587020010B58EB07C
:1092100003AB2422002118462BF080FA01238DF89D
:109220000C3007238DF80F3006238DF814302A4BAD
:1092300007932A4B0B9303AB294918460EF0FEFF08
:109240000D900D9B002B41D00D9B0B2B32D1254B4C
:109250001B6803F48043002B3AD0234B1B68032B7D
:1092600036DD2F2121482BF018FA0346002B06D0BB
:109270002F211E482BF011FA03465C1C0EE05C21E6
:109280001A482BF00AFA0346002B06D05C21174837
:109290002BF003FA03465C1C00E0144CFFF7EEF9D8
:1092A0000346134A009240F267122146042009F057
:1092B0000BFE0DE00D9B0C930C9B002B09D00B4A71
:1092C0004FF4B6710C9821F085FA02E000BF00E07F
:1092D00000BF00BF0EB010BD698D0200AD9002004E
:1092E000D0330020342E0020382E0020644F05009B
:1092F000D451050010B584B02E4A042146F2010075
:1093000009F0CCFD2C4B1B6803F48043002B2BD0C1
:109310002A4B1B68032B27DD2F2129482BF0BDF991
:109320000346002B06D02F2125482BF0B6F9034623
:109330005C1C0EE05C2122482BF0AFF90346002BA9
:1093400006D05C211E482BF0A8F903465C1C00E007
:109350001B4CFFF793F903461A4A009240F273122E
:109360002146042009F0B0FD2AF08AFE0390039BF9
:10937000002B05D0124A40F27511039821F02AFA09
:10938000FEF7ACFB1048FEF7DDFB0290029B002BC2
:1093900005D00B4A40F27911029821F01BFAFEF732
:1093A000EBFEFEF71FFFFEF76DFFFFF72FFF00BF7D
:1093B00004B010BD612E0300342E0020382E002092
:1093C000644F050024520500858D020030B589B038
:1093D00064212048FEF700FA1F4B1B7883F001033D
:1093E000DBB2002B16D01D4B6C461D460FCD0FC4B3
:1093F00095E8030084E803006B461846FEF76EF913
:109400000790079B002B05D0154A40F2971107984B
:1094100021F0E0F900F066F803461846FEF720FC5C
:109420000EF074FF0690069B002B05D00C4A4FF4FB
:10943000CE71069821F0CEF900214FF4F030FEF7FE
:10944000D2FA0222C8214FF4F030FEF7E3FA00BF4F
:1094500009B030BD85900200D03300205452050081
:10946000644F050008B5FFF735F9FFF743FFFFF735
:10947000ADFFFFF713F9FFF7FDF8FCE700B583B088
:1094800001901022019903482BF01FF900BF03B08F
:109490005DF804FBD433002000B583B008220D49E9
:1094A0000D482BF012F908220C490D482BF00DF94C
:1094B000094B0193019AD379042161F30713D37106
:1094C000019A137A022161F38713137200BF03B06C
:1094D0005DF804FB60000010D4330020A4000010ED
:1094E000DC330020014B1846704700BFD433002006
:1094F00082B00023019313E00E4A019BDB0013446A
:1095000000225A800B4A019BDB00134400225A6060
:10951000084A019B002102F83310019B013301939B
:10952000019B1F2BE8D9044B00221A6000BF02B038
:10953000704700BFE4330020E434002084B00346C9
:109540000091ADF806301A4B1B6803930023029379
:1095500027E0039B5A1E0392002B01D11F23039384
:10956000144A039B12F8333083F00103DBB2002B63
:1095700001D0002319E00F4A039BDB0013445B88F2
:10958000BDF806209A4209D10A4A039BDB00134426
:109590005B68009A9A4201D1012306E0029B0133E5
:1095A0000293029B1F2BD4D90023184604B07047A6
:1095B000E4340020E433002082B003460091ADF88B
:1095C0000630124B1B68124ADB001344BDF806201C
:1095D0005A800E4B1B680E4ADB001344009A5A60F7
:1095E0000A4B1B680A4A012102F83310074B1B681B
:1095F0000133064A1360054B1B68202B02D1034B35
:1096000000221A6000BF02B0704700BFE43400209F
:10961000E4330020024BD3F804351846704700BFEE
:109620000010014082B00190019B0433184602B043
:10963000704782B00190019B0133184602B0704719
:1096400082B00190019B1B7803F08003002BCCBFFC
:1096500001230023DBB2184602B0704782B00190AC
:109660000B468DF80330019B1B7803F07F03DAB2C1
:10967000019B1A70019B1B785AB29DF80330DB01E5
:109680005BB213435BB2DAB2019B1A7000BF02B047
:10969000704782B00190019B1B789B011BB203F4C1
:1096A000FE531AB2019B5B789B08DBB21BB21343DB
:1096B0001BB29BB2184602B0704782B001900B46B5
:1096C000ADF80230019B1B7823F07F03DAB2019BD7
:1096D0001A70019B1B785AB2BDF802309B099BB2ED
:1096E0005BB203F07F035BB213435BB2DAB2019B60
:1096F0001A70019B5B7803F00303DAB2019B5A7086
:10970000019B5B785AB2BDF802309B005BB21343F9
:109710005BB2DAB2019B5A7000BF02B0704782B0F0
:109720000190019B9B781A06019BDB781B041A436E
:10973000019B1B791B021343019A5279134318466C
:1097400002B0704782B001900091009B1B0EDAB20C
:10975000019B9A70009B1B0CDAB2019BDA70009B94
:109760001B0ADAB2019B1A71009BDAB2019B5A7193
:1097700000BF02B0704782B00190019B1B7803F0DC
:109780004003002BCCBF01230023DBB2184602B0FC
:10979000704782B001900B468DF80330019B1B7817
:1097A00023F04003DAB2019B1A70019B1B785AB276
:1097B0009DF803309B015BB203F040035BB213439F
:1097C0005BB2DAB2019B1A7000BF02B0704782B080
:1097D0000190019B1B7803F03F03DBB2184602B0F7
:1097E000704782B001900B468DF80330019B1B78C7
:1097F00023F03F03DAB2019B1A70019B1B785AB227
:109800009DF9033003F03F035BB213435BB2DAB25E
:10981000019B1A7000BF02B0704782B00190019B9B
:109820001B7803F08003002BCCBF01230023DBB2A5
:10983000184602B0704782B001900B468DF8033095
:10984000019B1B7803F07F03DAB2019B1A70019B26
:109850001B785AB29DF80330DB015BB213435BB255
:10986000DAB2019B1A7000BF02B0704782B001905B
:10987000019B1B7803F07F03DBB2184602B07047F0
:1098800082B001900B468DF80330019B1B7823F0CA
:109890007F03DAB2019B1A70019B1B785AB29DF9C3
:1098A000033003F07F035BB213435BB2DAB2019B78
:1098B0001A7000BF02B0704782B00190019B5B78C4
:1098C00003F08003002BCCBF01230023DBB218463A
:1098D00002B0704782B001900B468DF80330019BB7
:1098E0005B7803F07F03DAB2019B5A70019B5B78CF
:1098F0005AB29DF80330DB015BB213435BB2DAB2BC
:10990000019B5A7000BF02B0704782B00190019B6A
:109910005B789B011BB203F4FE531AB2019B9B7848
:109920009B08DBB21BB213431BB29BB2184602B0BA
:10993000704782B001900B46ADF80230019B5B7816
:1099400023F07F03DAB2019B5A70019B5B785AB215
:10995000BDF802309B099BB25BB203F07F035BB2A0
:1099600013435BB2DAB2019B5A70019B9B7803F000
:109970000303DAB2019B9A70019B9B785AB2BDF83F
:1099800002309B005BB213435BB2DAB2019B9A7068
:1099900000BF02B0704782B00190019B9B78DB0052
:1099A0005BB203F018035AB2019BDB785B09DBB2B0
:1099B0005BB213435BB2DBB2184602B0704782B0B1
:1099C00001900B468DF80330019B9B7823F0030335
:1099D000DAB2019B9A70019B9B785AB29DF80330D2
:1099E000DB08DBB25BB203F003035BB213435BB291
:1099F000DAB2019B9A70019BDB7803F01F03DAB2A5
:109A0000019BDA70019BDB785AB29DF803305B0151
:109A10005BB213435BB2DAB2019BDA7000BF02B0F3
:109A2000704782B00190019BDB7803F01F03DBB22B
:109A3000184602B0704782B001900B468DF8033093
:109A4000019BDB7823F01F03DAB2019BDA70019BE4
:109A5000DB785AB29DF9033003F01F035BB2134366
:109A60005BB2DAB2019BDA7000BF02B0704782B01D
:109A700001900B46ADF80230019BC3F30C02BDF818
:109A800002309A420AD2BDF80220019BC3F30C03B4
:109A9000D21A019B1344A3F5005307E0BDF802203E
:109AA000019BC3F30C03D21A019B1344184602B066
:109AB0007047F0B585B0039002911346ADF80630BB
:109AC000039B1A464FF00003150A1406BDF8063032
:109AD00019460298FFF7CBFF03461A464FF00003E2
:109AE000A61845EB030732463B461046194605B01B
:109AF000F0BD00231846704700B585B00190019B6A
:109B00001B7883F00103DBB2002B04D07B46039368
:109B10000398FEF799FD019B5B7A0133012202FA5B
:109B200003F3013B184605B05DF804FB00B58FB0A8
:109B30000346ADF806300B468DF8053013468DF818
:109B4000043003AB2C22002118462AF0E7FD0F2336
:109B50008DF80C30BDF80630ADF810309DF80530AA
:109B600003F00103DAB29DF8123062F300038DF8BE
:109B700012309DF804308DF8133003AB184602F014
:109B800065F900BF0FB05DF804FB00B585B001902A
:109B9000019B1B78002B0BD0019B988A019B996934
:109BA000019BDA69019BDB880BF014F8039009E054
:109BB000019B988A019B9969019BDB691A460AF00F
:109BC000F5FF0390039B002B0BD0019B988A019B10
:109BD000DB69DBB203F00103DBB200221946FFF7B9
:109BE000A5FF039B184605B05DF804FB00B58FB0D8
:109BF00001900B468DF8033003AB2C220021184650
:109C00002AF08CFD10238DF80C30019B04939DF8F5
:109C100003308DF8143003AB184602F017F900BF7B
:109C20000FB05DF804FB000082B003468DF80730EA
:109C3000054B5A68044B9B689DF8071001FB03F322
:109C40001344184602B07047E834002082B003463F
:109C50008DF80730054BDA68044B1B699DF8071037
:109C600001FB03F31344184602B07047E8340020A8
:109C700086B00146CDE900230B46ADF80E30002337
:109C800005931AE0104A059B1B0113441B88BDF87D
:109C90000E209A420ED10C4A059B1B011344083337
:109CA000D3E90023DDE90001994208BF904201D1C8
:109CB000012306E0059B01330593059B072BE1D9A2
:109CC0000023184606B07047C836002000B587B09C
:109CD0000190019BD869019B9969019BDB881A4619
:109CE000FFF7E7FECDE904010B4B1B685A1C0A493C
:109CF0000A6003F007031B01084A13440393019B06
:109D00009A8A039B1A800399DDE90423C1E902239F
:109D100000BF07B05DF804FBC0360020C836002045
:109D200000B589B003900B4601928DF80B309DF879
:109D30000B30022B08D09DF80B30012B04D07B4652
:109D400005930598FEF780FC019BB3F5C07F04D90D
:109D50007B4604930498FEF777FC002307930023C7
:109D600006931CE03F49069A1346DB009B1A1B0131
:109D70000B4448331B78002B0ED1069A1346DB00A8
:109D80009B1A1B01374A1344079301980EF032FACD
:109D90000246079BDA6605E0069B01330693069BA5
:109DA000032BDFD9079B002B03D0079BDB6E002B17
:109DB00001D1002352E0079B3022039918462AF074
:109DC00084FC079B0022DA64019B9AB2079BA3F8EC
:109DD0004A209DF80B30012B23D1234B1A7D079B82
:109DE00083F85120079B002283F85220079B002212
:109DF00083F85320079B002283F85020039B9A6A24
:109E0000079B5A65079B0022A3F85820079B6FF019
:109E100001029A62079B154A9A63079B079A1A6484
:109E200013E0079B6FF001029A62079B002283F800
:109E30006820079B0E4A9A65079B079A1A66079B3C
:109E40000C4A9A63079B079A1A64012003F0CEFF1D
:109E5000079B9DF80B2083F84820079B184609B004
:109E60005DF804FB00350020E8340020B5B902009D
:109E70007FB90200E3B9020000B583B00190019BF5
:109E8000DB6E18460EF0C1F9019B3033184605F021
:109E900070FB019B93F84830022B04D1019B503397
:109EA000184605F066FB7022002101982AF036FC66
:109EB000019B002283F84820002003F097FF00BF99
:109EC00003B05DF804FB000010B588B005900B46A8
:109ED0008DF81330059B002B04D17B460793079820
:109EE000FEF7B2FB059B9A69059BDB881946104675
:109EF000FFF7BDFD0690059B93F84830022B02D179
:109F00000598FFF7E3FE059B5B6D9DF81320114656
:109F10001846FFF76BFE0598FFF7AEFF1E4B1B6858
:109F200003F00403002B34D01C4B1B68032B30DDE3
:109F30002F211B482AF0B1FB0346002B06D02F210E
:109F400017482AF0AAFB03465C1C0EE05C2114486B
:109F50002AF0A3FB0346002B06D05C2110482AF010
:109F60009CFB03465C1C00E00D4CFFF753FB0246D4
:109F7000059B93F8483019469DF8133002930191E0
:109F8000084B0093134640F2F3122146042008F0D8
:109F90009BFF00BF08B010BD342E0020382E0020DB
:109FA0008C520500BC52050000B58FB00190019B9A
:109FB00093F84830012B04D07B460D930D98FEF7A3
:109FC00043FB01238DF80830019B5B6D039302ABCB
:109FD000184601F03BFF0198FFF74EFF00BF0FB09E
:109FE0005DF804FB10B584B00190019B93F84830F4
:109FF000022B04D07B4603930398FEF725FB0C4B02
:10A000005B7D1846FFF710FE0290019B03F15004A0
:10A0100005F0AEFB0246029B13441946204605F0AC
:10A02000D0FA019B012283F8682000BF04B010BD64
:10A03000E834002010B584B00190019B93F84830BB
:10A04000022B04D07B4603930398FEF7FDFA094BDD
:10A050001B680293019B03F1300405F089FB024663
:10A06000029B13441946204605F0ABFA00BF04B02A
:10A0700010BD00BFE834002000B585B00190019B01
:10A0800093F84830012B04D07B4603930398FEF7E6
:10A09000DBFA05F06DFB0290019B1B7B012B06D1C7
:10A0A000019B9B7D1846FFF7D1FD034603E000208E
:10A0B000FFF7CCFD0346029A13440293019B303311
:10A0C0000299184605F07DFA00BF05B05DF804FB63
:10A0D00000B583B001900091019BDB7D002B06D081
:10A0E000019BDB7819460098FFF7CAFB0BE0019B48
:10A0F000DB7819460098FFF74CFB019B1B7919464A
:10A100000098FFF76EFB019B1B7819460098FFF73C
:10A1100092FB019B1B78002B1CD0019B9B78082B8A
:10A120000CBF01230023DBB219460098FFF7D2FBD6
:10A13000019BDB8819460098FFF7FBFB019B1B7A0C
:10A1400019460098FFF73BFC019B5B7A1946009883
:10A15000FFF771FC00BF03B05DF804FB00B587B0EA
:10A160000390029101920093039B1B78002B01D076
:10A17000042300E001230593059A019B1A44029BE6
:10A180009A60039B03F10C02029B1A60039B9A6A7C
:10A19000029B5A60039BDA6A029BDA60029B0022F0
:10A1A0001A74029807F0BBFB0490049B002B05D1A6
:10A1B000029B5A69059B1A44009B1A60049B18462F
:10A1C00007B05DF804FB000010B592B00390029157
:10A1D00000231193039B1B7B012B40F08180424B9A
:10A1E0001B6803F40073002B2BD0404B1B68032B20
:10A1F00027DD2F213E482AF050FA0346002B06D0D7
:10A200002F213B482AF049FA03465C1C0EE05C21F2
:10A2100037482AF042FA0346002B06D05C21344826
:10A220002AF03BFA03465C1C00E0314CFFF7F2F9E0
:10A230000346304A009240F262222146042008F090
:10A2400043FE0EAB0B22002118462AF067FA039B4F
:10A25000DA880EAB11461846FFF72FFA0EAB0299BB
:10A260001846FFF76FFA039B5B78022B0CBF0123A4
:10A270000023DBB21A460EAB11461846FFF7EEF983
:10A280000623079301238DF82430039B9B8AADF8A6
:10A29000263000230A9300238DF814300EAB06936A
:10A2A000039B1B6A0B9300238DF82030039BDB89F3
:10A2B000ADF82230039BDB6A0D93039B9B7D002B43
:10A2C00003D100238DF8303003E00B4B5B7D8DF81C
:10A2D000303005AB6FF00101184601F0D5FC11904C
:10A2E000119B184612B010BD342E0020382E0020CD
:10A2F0008C520500E0520500E834002000B583B020
:10A300000190019B1B7B012B04D101210198FFF7D8
:10A31000DBFD02E00198FFF747FE00BF03B05DF8E8
:10A3200004FB000000B583B00190019B93F851300D
:10A33000002B11D0019B93F85130013BDAB2019B05
:10A3400083F85120019B002283F85020064B1B68A4
:10A35000184606F0E7FC02E00198FFF7CFFF00BFC8
:10A3600003B05DF804FB00BF4837002084B00190C3
:10A370000B46ADF802300023039347E02749039AC8
:10A380001346DB009B1A1B010B4448331B78012B3F
:10A3900039D12249039A1346DB009B1A1B010B4457
:10A3A00014331A88019BDB899A422CD11B49039AEA
:10A3B0001346DB009B1A1B010B4406331B88BDF8B8
:10A3C00002209A421FD11549039A1346DB009B1ABB
:10A3D0001B010B4458331B88002B0CD00F49039AE8
:10A3E0001346DB009B1A1B010B4458331A88019B50
:10A3F0009B8A9A4207D1039A1346DB009B1A1B01E2
:10A40000064A134406E0039B01330393039B032B8B
:10A41000B4D90023184604B0704700BF00350020AF
:10A4200084B001900023039322E01549039A134658
:10A43000DB009B1A1B010B4448331B78022B14D101
:10A440000F49039A1346DB009B1A1B010B4414337C
:10A450001A88019B9B8A9A4207D1039A1346DB0014
:10A460009B1A1B01064A134406E0039B0133039326
:10A47000039B032BD9D90023184604B0704700BFB3
:10A480000035002000B585B003468DF80730002365
:10A4900003931AE01149039A1346DB009B1A1B0130
:10A4A0000B4448331B78022B0CD1039A1346DB0074
:10A4B0009B1A1B01094A13449DF8072011461846B0
:10A4C000FFF702FD039B01330393039B032BE1D9A9
:10A4D00000BF00BF05B05DF804FB00BF00350020E1
:10A4E00010B58CB00390039BD869039B9969039BBB
:10A4F000DB881A46FFF7DDFACDE90A01039B998A4A
:10A50000DDE90A230846FFF7B3FB0346002B01D021
:10A51000002302E10398FFF783FF0990099B002BBA
:10A5200060D0099BD869099B9969099BDB881A4609
:10A53000FFF7BFFACDE90601DDE90A23DDE90601EF
:10A54000994208BF904206D205210998FFF7BCFC4A
:10A550000023099346E0DDE90A01DDE9062399427B
:10A5600008BF90423CD2FFF7C4FA0346002B35D017
:10A570006B4B1B6803F00403002B2FD0694B1B6847
:10A58000012B2BDD2F2168482AF087F80346002B8A
:10A5900006D02F2164482AF080F803465C1C0EE0A8
:10A5A0005C2161482AF079F80346002B06D05C2133
:10A5B0005D482AF072F803465C1C00E05A4CFFF735
:10A5C00029F80246039BDB880193584B00931346FE
:10A5D0004FF44A722146022008F076FC00239CE0EA
:10A5E000099B9AE0039B988A039B9969039BDA690C
:10A5F000039BDB880AF068FB0346002B19D0039B02
:10A60000988A039B9969039BDA69039BDB880AF0AC
:10A61000ABFB0346002B0AD00398FFF76DFA034605
:10A6200019460398FFF7D0FD0398FFF7AEFA002311
:10A6300073E0FFF75EFA0346002B02D00520FFF718
:10A6400021FF039B5B7A5A1C039BDB7D002B01D00F
:10A65000082300E00C2302FB03F30593039BDB7D3F
:10A66000002B02D04FF4807201E04FF4C072059BC2
:10A670009A4236D22A4B1B6803F00403002B2ED0DB
:10A68000284B1B68002B2ADD2F2127482AF005F8CC
:10A690000346002B06D02F21234829F0FEFF034656
:10A6A0005C1C0EE05C21204829F0F7FF0346002BDC
:10A6B00006D05C211C4829F0F0FF03465C1C00E03A
:10A6C000194CFEF7A7FF0246059B0193184B009318
:10A6D00013464FF45C722146012008F0F5FB00237D
:10A6E0001BE0059A02210398FFF71AFB0990099BCA
:10A6F000002B11D1FFF7FDF90346002B04D07B4658
:10A7000004930498FDF7A0FF00210398FFF75CFD78
:10A7100002210020FFF76AFA099B18460CB010BD11
:10A72000342E0020382E00208C520500F0520500F7
:10A730001C53050030B58BB0059004910392029331
:10A740000398FFF7CDFE0990099B002B00F0D58000
:10A750006C4B1B6803F00403002B2FD06A4B1B6863
:10A76000032B2BDD2F21694829F097FF0346002B8F
:10A7700006D02F21654829F090FF03465C1C0EE0AF
:10A780005C21624829F089FF0346002B06D05C213A
:10A790005E4829F082FF03465C1C00E05B4CFEF73C
:10A7A00039FF0246039B1B7A0193594B00931346D2
:10A7B0004FF465722146042008F086FBFFF799F9F3
:10A7C000034683F00103DBB2002B0ED00998FFF79C
:10A7D00031FC099B1B7B012B07D1099B93F8683047
:10A7E000002B02D10998FFF7FDFB099BDA6C039B54
:10A7F0001B7A194601238B401340002B7FD1099B04
:10A80000DA6C039B1B7A194601238B401A43099B80
:10A81000DA64049B043B0893039B1B7A1A46039B50
:10A82000DB7D002B01D0082300E00C2302FB03F3A7
:10A830000793039B1A7A099B5B7A9A4209D1079B7B
:10A840009AB2089B9BB213449AB2099BA3F84A2080
:10A850000EE0039BDB7D002B01D0082200E00C22E0
:10A86000089B9A4204D004210998FFF72DFB47E08A
:10A87000099B9A69039B9B699A420BD2099A039B95
:10A8800002F10C0403F10C050FCD0FC495E8030091
:10A8900084E80300099BDA6E079BD4180598FEF73D
:10A8A000C1FE0346089A1946204629F00EFF099B6F
:10A8B000DC6C099B1846FFF71FF903469C421FD129
:10A8C000FFF717F9034683F00103DBB2002B06D034
:10A8D000099A099BDB6C19461046FFF775FC099B2A
:10A8E000D86E099BB3F84A301946099A029B01F0C9
:10A8F00025F80998FFF7C0FA02E000BF00E000BFAA
:10A900000BB030BD342E0020382E00208C520500B4
:10A910003053050000B585B0039002910192009379
:10A920000398FEF786FE029B591E009B019A01F0D8
:10A9300005F800BF05B05DF804FB000010B586B057
:10A940000390029100238DF81730039B002B3FD01A
:10A95000039B9A1C029B1A600DF11703194602987B
:10A9600006F094FB9DF81730002B31D01B4B1B6871
:10A9700003F00403002B2BD0194B1B68032B27DD9E
:10A980002F21184829F089FE0346002B06D02F21DD
:10A99000144829F082FE03465C1C0EE05C2111483D
:10A9A00029F07BFE0346002B06D05C210D4829F0E0
:10A9B00074FE03465C1C00E00A4CFEF72BFE0346C7
:10A9C000094A009240F206422146042008F07CFA2F
:10A9D0009DF81730184606B010BD00BF342E002079
:10A9E000382E00208C5205004053050000B597B06A
:10A9F0000390029101920093039B002B04D17B46AC
:10AA000015931598FDF720FE029B002B04D17B4681
:10AA100014931498FDF718FE009B002B04D17B467D
:10AA200013931398FDF710FE009B5B6A02330993A2
:10AA3000009B03F10C00009BDB78002B01D001216F
:10AA400000E00221009B9B78082B0CBF0123002310
:10AA5000DBB21A4605AB06F025FB05AB0A93039B58
:10AA60000B93019B9BB2ADF83030029B0F930F9B71
:10AA7000BDF8302013441093009B9B788DF8443030
:10AA8000009B1B7B022B0FD1009B1B69002B04D169
:10AA90007B4612931298FDF7D7FD009B1B690D931F
:10AAA0001023ADF8383002E00023ADF8383009ABA0
:10AAB000184606F0E1FA00BF17B05DF804FB82B05B
:10AAC00003468DF807309DF80730002B01D1042391
:10AAD00000E00823184602B07047000000B585B0BA
:10AAE00001900091009BDB695A78019B1A71009BD1
:10AAF000DB691B78002B14BF01230023DBB283F03A
:10AB00000103DBB203F00103DAB2019BDA70009BB0
:10AB1000DA69019B5A62009B9B8A0B2B07D8009B2A
:10AB2000DB7A002B03D1009B1B7B012B01D101237E
:10AB300000E0002303F00103DAB2019B1A70019BCD
:10AB40001B78002B27D0009B1B7B022B02D12C4BA8
:10AB50009B7D01E0009B1B7B1846FFF7B0FF03467F
:10AB60001A46019B9A70009B9B8A1A46019B9B7810
:10AB700013440B33234A82FB03125210DB17D31A00
:10AB80000393039BDBB2013BDAB2019B5A72019B38
:10AB900000221A7202E0019B04229A70019B00229B
:10ABA000DA75019B009A0C3392E8030083E80300F6
:10ABB000009B9A69019B1A62009B1A89019B9A82E9
:10ABC000009B9A7A019B9A75009B1A6A019B9A6274
:10ABD000019BDF22DA62009B184619F00BF803464E
:10ABE000002B08D0009B1B78012B01D0FF2200E036
:10ABF0002022019BDA6200BF05B05DF804FB00BFB4
:10AC0000E8340020ABAAAA2A86B0039002910192F0
:10AC1000029B1A78039BDA70039B00225A62029B04
:10AC20009B680B2B03D8029B1B7B002B01D00123BD
:10AC300000E0002303F00103DAB2039B1A70039BC8
:10AC400000229A70039B1B78002B0DD0029B9B68FF
:10AC50000733DB080593059BDBB2013BDAB2039BAC
:10AC60005A72039B00221A72039B0122DA75039B1E
:10AC7000029A0C33103292E8030083E80300029B2F
:10AC8000DA89039B9A82029B9A69039B1A62029B50
:10AC90001A7F039B9A75029B1A6A039BDA62039BD5
:10ACA000019A9A6200BF06B0704700B58DB003905C
:10ACB00002910192039B9B781A46019B1344039ACD
:10ACC000D27D002A01D00B2200E00F229A4201D24D
:10ACD000092328E0039B9B781A46019B1A4404AB86
:10ACE00005A90398FFF73AFA0B900B9B002B19D19B
:10ACF0000A9B19460398FFF7EBF9039BDB7D002BBA
:10AD000006D0049B019A0299184629F0DEFC05E062
:10AD10000499039B019A0298FFF768FE05AB184659
:10AD200006F036FE0B9B18460DB05DF804FB00B52F
:10AD30008FB001900091019BDB7D002B01D0082397
:10AD400000E00C230D930D9B009A02FB03F30C9380
:10AD5000019B5B7A1A46009B934206D1019BB3F894
:10AD60004A301A460C9BD31A0D93009BDAB2019B12
:10AD70001A72019803AB04A90D9AFFF7EFF90B9033
:10AD80000B9B002B53D1009B002B13D1019B93F8FD
:10AD9000533083F00103DBB2002B0BD0019B9B6986
:10ADA0009BB2C3F30C039AB2019BDA80019B012290
:10ADB00083F85320019BDB7D83F00103DBB2002B82
:10ADC00022D0019B93F8523083F00103DBB2002BB9
:10ADD0001AD0009B002B04D07B460A930A98FDF7FB
:10ADE00033FC019BD86E019BD96E019BB3F84A30AE
:10ADF0001A46019B9B78D31A1A46019BFFF7F6FD72
:10AE0000019B012283F85220019B099A11461846A2
:10AE1000FFF75EF90398019BDA6E0C9B13440D9AC1
:10AE2000194629F052FC04AB184606F0B1FD0B9B05
:10AE300018460FB05DF804FB00B585B00190009195
:10AE400000230393009B002B02D0009B00221A607A
:10AE5000019B93F850308DF80B3027E0019BDA6CA2
:10AE60009DF80B30012101FA03F31340002B18D198
:10AE70009DF80B3019460198FFF759FF0390039B8B
:10AE8000002B1AD1009B002B04D0009B1B685A1C7E
:10AE9000009B1A609DF80B300133DAB2019B83F8F6
:10AEA00050209DF80B3001338DF80B30019B5B7AFD
:10AEB0009DF80B209A42D1D900E000BF039B1846B1
:10AEC00005B05DF804FB000010B5D2B007AB186008
:10AED00006AB196005AB1A6007AB1B689B781A4676
:10AEE00005AB1B6813444F9307AB1B68DB7D002B3E
:10AEF00002D04FF4807201E04FF4C0724F9B9A422F
:10AF000001D20923D0E0002351932BE06849519AE4
:10AF10001346DB009B1A1B010B4448331B78012BA3
:10AF20001DD16349519A1346DB009B1A1B010B4448
:10AF300014331A8807AB1B689B8A9A420FD15C496D
:10AF4000519A1346DB009B1A1B010B440E331A88DF
:10AF500007AB1B68DB899A4201D10823A4E0519B0F
:10AF600001335193519B032BD0D907AB4F9A012149
:10AF70001868FEF7D5FE4E904E9B002B01D104239E
:10AF800092E04E9BD86E05AA06AB1268196829F0AC
:10AF90009CFB00234A934AAB19464E98FFF74CFF9F
:10AFA0004D904D9B002B02D04D9B042B78D14A9B9A
:10AFB000002B02D04E98FFF75FF83E4B1B6803F062
:10AFC0000403002B6AD03C4B1B68032B66DD4E9BB1
:10AFD000B3F84A304C934C9B802B28BF80234C9372
:10AFE0000023509324E04E9BDA6E509B13441B7851
:10AFF0008DF82F31314B1A689DF82F311B09DBB2C8
:10B0000003F00F031A44509B5B00117809AAD15436
:10B010002A4B1A689DF82F3103F00F031A44509BF6
:10B020005B000133117809AAD154509B013350932E
:10B03000509A4C9B9A42D6D34C9B5B0009AA0021A4
:10B04000D1542F211E4829F028FB0346002B06D09F
:10B050002F211B4829F021FB03465C1C0EE05C21DC
:10B06000174829F01AFB0346002B06D05C21144830
:10B0700029F013FB03465C1C00E0114CFEF7CAFAF2
:10B08000024609AB02930F4B01930F4B00931346FB
:10B0900040F251522146042007F016FF002303E03E
:10B0A0004E98FEF7E9FE4D9B184652B010BD00BF0A
:10B0B00000350020342E0020382E0020302E0020B5
:10B0C0008C520500545305006453050000B585B04B
:10B0D000002303932CE01A49039A1346DB009B1AC2
:10B0E0001B010B4448331B78012B1ED10023019315
:10B0F000039A1346DB009B1A1B01114A134401AA51
:10B1000011461846FFF798FE0290029B042B02D0CE
:10B11000019B002B09D0039A1346DB009B1A1B01ED
:10B12000074A13441846FEF7A7FF039B0133039316
:10B13000039B032BCFD900BF00BF05B05DF804FB14
:10B140000035002000B583B00190019B93F8483092
:10B15000022B12D1019B93F86830022B0DD1019A7A
:10B16000019BDB6C19461046FFF72EF80346002BB7
:10B1700003D1019B002283F8682000BF03B05DF873
:10B1800004FB000000B583B0002301930CE0019A9A
:10B190001346DB009B1A1B01074A13441846FFF7AE
:10B1A000D1FF019B01330193019B032BEFD900BF1A
:10B1B00000BF03B05DF804FB0035002008B5FFF7C1
:10B1C00085FFFFF7DFFF0123184608BD00B595B0E6
:10B1D0000390029101920093039B9B691293039B3E
:10B1E0001B78002B0AD0039B9A69039BDB881946C6
:10B1F0001046FEF73CFC0246039B9A61039B03F159
:10B200000C00039BDB78002B01D0012100E0022120
:10B21000039B9B78082B0CBF01230023DBB21A464B
:10B220000EAB05F03FFF039B129A9A610EAB06939B
:10B23000029B0793019B9AB2039B9B789BB2D31A04
:10B240009BB2ADF82030079BBDF8202013440C932F
:10B25000009B0B93039B9B788DF834300023ADF853
:10B260002830039BDB78002B3FD0039B1B7B022BFA
:10B2700005D11023ADF82830039B1B690993039B6C
:10B2800000225A62039B186A039B1979039B24339B
:10B290001A4618F02FFB14E0039B5B6A05AA1146BF
:10B2A0001846FFF74BFB0346002B01D000234DE06F
:10B2B000039B186A039B1979039B24331A4618F0E1
:10B2C00019FB039B5B6A002BE6D1039B1B7B022BC4
:10B2D0003BD1039BDA89039B0C331946104618F0C7
:10B2E00029FC0346002BC0D12FE0039B1B7B012BC5
:10B2F0002BD1039BDB89ADF81030039B9B8AADF803
:10B300001230002313931DE0039B00225A62139B0B
:10B310005B0014AA134433F8402C039B24331946D2
:10B32000104618F01AFB039B5B6A05AA11461846E3
:10B33000FFF704FB0346002B01D0002306E0139B1C
:10B3400001331393139B012BDED90523184615B047
:10B350005DF804FB00B583B00190019B9B8A184601
:10B3600003F068FA0346012B03D1019B1B7B002BE2
:10B3700001D1102336E0019B9B7D5BB2002B01DAEB
:10B3800007232FE0019BDB7D002B10D0019B1B7B53
:10B39000022B01D1102325E0019BDB785BB2002B4F
:10B3A00003DB019B9B78002B1BD007231AE0019B3A
:10B3B000DB7883F00103DBB2002B05D0019B1B7B04
:10B3C000012B01D007230DE0019B1B7883F00103C3
:10B3D000DBB2002B05D0019B9B78042B01D0072307
:10B3E00000E00023184603B05DF804FB00B587B009
:10B3F0000390029101920093029B002B01D109233B
:10B400008EE0089B0C3318220199184629F05DF94B
:10B41000089B00225A700398FEF7FFF90346002BA1
:10B4200014BF01230023DAB2089B1A70089B1B7813
:10B43000002B01D0042300E001230593029A059B11
:10B440009A4201D209236BE0089BDB7D002B0AD0D6
:10B450000398FEF70BFA03461A46089BDA70089B1E
:10B4600000229A702EE00398FEF785F90346002B20
:10B4700014BF01230023DAB2089BDA700398FEF7A9
:10B48000A6F903461A46089B1A71089B1B78002BE5
:10B490000BD00398FEF710FA0346002B01D00822C8
:10B4A00000E00422089B9A700CE0089B04229A702A
:10B4B000089B9B781A46059B1344029A9A4201D234
:10B4C00009232DE0089B1B78002B14D00398FEF76E
:10B4D0001CFA03461A46089BDA800398FEF75BFACB
:10B4E00003461A46089B1A720398FEF79AFA034617
:10B4F0001A46089B5A72089B00225A62009B1B78CE
:10B50000032B04D97B4604930498FDF79DF8009B18
:10B510001B781A46044B53F82220089BDA6200235A
:10B52000184607B05DF804FB3854050010B58CB020
:10B530000790069105920493069B062B40F0CB8062
:10B540000798FEF7A6F80346ADF82E300798FEF7E9
:10B55000E6F80A900798FEF773F80346002B14BF2D
:10B56000012300238DF82730BDF82E3019460598A9
:10B57000FEF7FCFE0890089B002B34D1584B1B684B
:10B5800003F00403002B00F0A980564B1B68012B2D
:10B5900040F3A4802F21544829F07FF80346002B64
:10B5A00006D02F21504829F078F803465C1C0EE0A5
:10B5B0005C214D4829F071F80346002B06D05C2130
:10B5C000494829F06AF803465C1C00E0464CFEF747
:10B5D00021F80346454A00924FF4CD6221460220ED
:10B5E00007F072FC7AE09DF8273083F00103DBB2AC
:10B5F000002B40D0089BDA89059B9B8A9A423AD05F
:10B60000374B1B6803F00403002B66D0354B1B68D7
:10B61000012B62DD2F21344829F03FF80346002B2F
:10B6200006D02F21304829F038F803465C1C0EE084
:10B630005C212D4829F031F80346002B06D05C210F
:10B64000294829F02AF803465C1C00E0264CFDF747
:10B65000E1FF0246089BDB891946059B9B8A029302
:10B660000191234B0093134640F26C622146022065
:10B6700007F02AFC31E09DF82730002B04D0059B11
:10B680009A8A089BA3F85820089BDA6C0A9B1A43F5
:10B69000089BDA640A9B002B04D103210898FEF76B
:10B6A00013FC1BE0089BDC6C089B1846FEF724FA91
:10B6B00003469C4203D10898FEF776FC0EE0089BF7
:10B6C000002283F8502000210898FFF7B5FB089866
:10B6D000FEF7D2FC02E000BF00E000BF0CB010BDDE
:10B6E000342E0020382E00208C5205006C530500AB
:10B6F0009C53050086B003468DF807300023059360
:10B7000021E0059BDB00144A1344039300230493B8
:10B7100011E0039B1A68049BDB0013440293029B15
:10B720001B789DF807209A4202D1029B5B6810E0CB
:10B73000049B01330493039B5B68049A9A42E8D309
:10B74000059B01330593054B1B68059A9A42D8D394
:10B750000023184606B070474C37002054370020AD
:10B7600000B58FB003900291019200930198FEF70B
:10B770000CFA0346002B3AD1019BDB78002B06D153
:10B78000009B019A02990398FFF7D0FE32E0019BDB
:10B79000DB781846FFF7AEFF0D900D9B002B28D0ED
:10B7A000019BDB788DF81030019B1B6A0A93019B8B
:10B7B0009B8AADF81E30019A08AB0C3292E8030068
:10B7C00083E80300019B9B7D8DF82C30039B059340
:10B7D000029B0693019B1B788DF81C30019BDB6A52
:10B7E0000C9304AA0D9B00991046984701E000BFF6
:10B7F00000E000BF00BF0FB05DF804FB10B5F4B06F
:10B8000005AC206004A8016003A90A6002AA1360C5
:10B8100013AB04AA05A903A8126809680068FFF71A
:10B82000D5FC7390739B002B4BD103AB1868FEF7CC
:10B83000ACF90346002B76D111AB01221A7003AB91
:10B840001B689A8A11AB5A8011AB00225A6006AB72
:10B8500000221A7006AB13AA5A6004AB1B689AB296
:10B8600003AB1B689B789BB2D31A9AB206AB1A81C2
:10B8700006AB11AA0C3392E8030083E8030006AB81
:10B8800003AA126814330C3292E8030083E8030021
:10B8900003AB1B689A7D06AB83F8242003AB1B68BF
:10B8A0001A6A06ABDA6103AB1B685A6A06AB1A6206
:10B8B00006AB02AA12689A6206AB184600F0C6FAF6
:10B8C00031E01A4B1B6803F00403002B2BD0184BFC
:10B8D0001B68052B27DD2F21164828F0DEFE0346C6
:10B8E000002B06D02F21134828F0D7FE03465C1CFE
:10B8F0000EE05C210F4828F0D0FE0346002B06D056
:10B900005C210C4828F0C9FE03465C1C00E0094C91
:10B91000FDF780FE0346084A009240F2F26221469B
:10B92000062007F0D1FA00BF74B010BD342E0020FD
:10B93000382E00208C520500E053050000B585B07C
:10B940000390029101920093019B5B7803F0010345
:10B95000002B10D0019BDB7D002B06D0009B019AB1
:10B9600002990398FFF7FCFE05E0009B019A0299FB
:10B970000398FFF743FF00BF05B05DF804FB00B577
:10B9800085B001900091009B0393039B93F848308E
:10B99000022B04D07B4602930298FCF755FE039BD2
:10B9A000022283F868200398FFF7CCFB00BF05B0A4
:10B9B0005DF804FB00B585B001900091009B0393F6
:10B9C000039B93F84830012B04D07B4602930298E6
:10B9D000FCF73AFE0398FEF7A5FC00BF05B05DF842
:10B9E00004FB00B585B001900091009B03930021FA
:10B9F0000398FEF769FA00BF05B05DF804FB00008C
:10BA000000B591B002910192009303468DF80F307A
:10BA10009DF80F30002B0ED1009B13F1020F0AD0BE
:10BA200001238DF81430009B0693019B079305AB0F
:10BA3000184600F00BFA044B1B68184605F072F923
:10BA400000BF11B05DF804FB4837002000B587B097
:10BA50000390029101920398FFF77CFC0590059BEF
:10BA6000002B01D0059B10E0039B1B78002B06D018
:10BA7000019A02990398FFF727FA034605E0019A15
:10BA800002990398FFF711F90346184607B05DF8CD
:10BA900004FB000008B54FF4E07200211A4828F0BA
:10BAA0003DFE09F06FF8194B00221A608022002138
:10BAB000174828F033FE174B174A1A60154B174AE0
:10BAC0005A60144B4CF250329A60124B144ADA60AE
:10BAD000104B4CF250321A610E4B04221A750D4B6A
:10BAE00000229A750B4B08225A750E4805F0E8F8AB
:10BAF00003460D4A13600D4B00221A600C4809F0F2
:10BB00007FFB00BF08BD00BF00350020C03600200D
:10BB1000C8360020E834002080969800F0490200E2
:10BB200020A10700BDB10200483700205437002093
:10BB300001BA020008B509F02FF800BF08BD00B532
:10BB400097B0059004910392029300231593059BEF
:10BB5000002B02D0039B002B01D10E2367E009AB21
:10BB60000093029B039A04990598FFF73FFC1590F8
:10BB7000159B002B01D0159B59E009AB1846FFF728
:10BB8000E9FB1590159B002B01D0159B4FE007ABEF
:10BB900008220021184628F0C1FD039B5B8807AAF4
:10BBA0001146184617F0C6FF0346002B06D09DF835
:10BBB000253043F00103DBB28DF82530039B188953
:10BBC000039BD968039B1B691A4609F043F8034697
:10BBD000002B0CD09DF8253023F00103DBB28DF84B
:10BBE00025309DF82530002B01D1159B1FE09DF8D5
:10BBF0002530002B01D1159B19E09DF8253003F06D
:10BC00000103002B01D0089B0D939DF82430002BDD
:10BC100006D009AA029B04990598FEF78BFD05E062
:10BC200009AA029B04990598FEF774FE00231846A2
:10BC300017B05DF804FB00B58FB001900091019B37
:10BC4000002B0BD0019B1B69002B07D0019BDB69EC
:10BC5000002B03D0019B9B69002B01D10E230EE02A
:10BC600002AB01991846FEF739FF019B1969019B48
:10BC70009B8A1A4602AB1846FFF7E8FE03461846B1
:10BC80000FB05DF804FB000010B592B00590049170
:10BC9000059B002B07D0059B5B68002B03D0059B01
:10BCA0009B69002B01D10E2349E006AB049A05994C
:10BCB0001846FEF7A9FF234B1B6803F00403002B73
:10BCC00033D0214B1B68062B2FDD2F211F4828F076
:10BCD000E4FC0346002B06D02F211C4828F0DDFC95
:10BCE00003465C1C0EE05C21184828F0D6FC034695
:10BCF000002B06D05C21154828F0CFFC03465C1CC5
:10BD000000E0124CFDF786FC0246059B1B781946A5
:10BD1000059B9B69029301910D4B0093134640F2E2
:10BD2000F4722146072007F0CFF8059B5B6819469F
:10BD3000059B9A6806AB1846FFF788FE034618462F
:10BD400012B010BD342E0020382E00208C52050079
:10BD50000C54050000B585B001900091019B002BAB
:10BD600001D10E2349E0274B1B68002B01D004238F
:10BD700043E00023039329E0039BDB00019A134473
:10BD80005B68002B01D10E2337E0039BDB00019A97
:10BD900013441B785BB2002B01DA0B232DE0039BCD
:10BDA000DB00019A13441B78002B0AD0039BDB00B5
:10BDB000019A13441B781846FFF79CFC0346002B9E
:10BDC00001D00F2319E0039B01330393039A009BD7
:10BDD0009A42D1D30B4B1B680B49019A41F833208F
:10BDE000084B1B68084ADB001344009A5A60054B55
:10BDF0001B680133034A13600023184605B05DF841
:10BE000004FB00BF543700204C37002000B585B03C
:10BE10000D4B1B6803930FE0039B043B0293039BB2
:10BE20001B680193029B1B7A002B03D003990648E1
:10BE300006F074FF019B0393039B002BECD100BF22
:10BE400000BF05B05DF804FB5837002000B587B08F
:10BE50000190019B002B04D17B4604930498FCF7CE
:10BE6000F3FB164B1B68002B23D0154B01221A70D5
:10BE7000124B1B68059310E0059B043B0393039B47
:10BE80001B7A83F00103DBB2002B03D0039B1B68FA
:10BE900001989847059B1B680593059B002BEBD1E8
:10BEA000074B1B78022B04D1FFF7B0FF044B002295
:10BEB0001A7000BF07B05DF804FB00BF58370020C0
:10BEC0005C37002000B585B00190019B002B04D1A8
:10BED0007B4603930398FCF7B7FB019B00221A7281
:10BEE000019B04331946034806F0D7FE00BF05B096
:10BEF0005DF804FB5837002000B585B00190019B28
:10BF0000002B04D17B4603930398FCF79DFB0D4B5C
:10BF10001B78012B03D00B4B1B78022B06D1094B4E
:10BF200002221A70019B01221A7206E0019B04335F
:10BF30001946054806F0F2FE00BF00BF05B05DF8E7
:10BF400004FB00BF5C3700205837002082B001900E
:10BF50000091019B9B68009AD31A9BB2184602B0CD
:10BF6000704782B001900B46ADF80230019B9A6891
:10BF7000BDF802301344184602B0704700B585B0D2
:10BF800001900091009B1B8819460198FFF7E9FF7B
:10BF900003461B880433ADF80C30009B1A88BDF8AB
:10BFA0000C3003339BB223F003039BB21344ADF870
:10BFB0000E30BDF80E20019B1B88043B9A4202D92B
:10BFC0000023ADF80E30009BBDF80E201A8000BF94
:10BFD00005B05DF804FB00B585B0019000910099B3
:10BFE0000198FFF7B3FF0346ADF80E300DF10E03D5
:10BFF00019460198FFF7C2FFBDF80E3019460198A7
:10C00000FFF7AFFF0346184605B05DF804FB00B527
:10C0100085B001900091019B9B68019A928813441E
:10C02000009A9A4204D07B4603930398FCF70CFBDA
:10C03000009B00229A70019B043319460198FFF778
:10C040009DFF019B9B8819460198FFF78AFF0346D5
:10C050009B78042B02D1019B00229A8000BF05B07F
:10C060005DF804FB00B585B001900091019B9B68D1
:10C07000019A52881344009A9A4204D07B46039353
:10C080000398FCF7E1FA009B00229A7000BF05B00C
:10C090005DF804FB82B00190019B1B88043B9BB2BE
:10C0A000184602B0704700B585B001900B46ADF858
:10C0B0000230019B5B8819460198FFF752FF0390FD
:10C0C000039BBDF802201A80039B01229A70039BF8
:10C0D000184605B05DF804FB00B583B0019000215F
:10C0E0000198FFF73EFF034600229A70019B002251
:10C0F0005A80019B00229A8000BF03B05DF804FBC8
:10C1000000B587B001900B46ADF80230BDF80230A3
:10C1100007339BB223F00303ADF81230019B5A881A
:10C12000019B9B889A420FD2BDF81220019B9B88ED
:10C130001946019B5B88CB1A9A4202DC00230593C7
:10C1400044E00423059341E0019B5A88019B9B88AE
:10C150009A4229D9019B1B881A46019B5B88D31AF6
:10C160000393BDF81230039A9A4202D30023059339
:10C170002CE0019B9B88BDF812209A4211D8039BAA
:10C18000032B08D9019B5B8819460198FFF7E9FE4C
:10C19000034604229A70019B00225A8000230593D3
:10C1A00014E00423059311E0019B9B881946019834
:10C1B000FFF7D7FE03469B78002B05D10198FFF7C8
:10C1C0008BFF0023059301E004230593059B18468C
:10C1D00007B05DF804FB00B58BB0039002911346E5
:10C1E000ADF80630029B002B04D17B4609930998D9
:10C1F000FCF72AFA039B002B04D17B46089308988E
:10C20000FCF722FA029BB3F1005F09D94FF080538B
:10C21000D3F80C3103F500239A02029B9A4212D8FC
:10C22000029BB3F5000F09D94FF08053D3F80C31BE
:10C2300003F500539A02029B9A4204D87B46079367
:10C240000798FCF701FABDF80630013B029A134447
:10C25000B3F1005F0ED9BDF80630013B029A1344DA
:10C260001A464FF08053D3F80C3103F500239B029C
:10C270009A421BD3BDF80630013B029A1344B3F532
:10C28000000F0ED9BDF80630013B029A13441A463E
:10C290004FF08053D3F80C3103F500539B029A42C0
:10C2A00004D37B4606930698FCF7CEF9BDF806301A
:10C2B000042B04D87B4605930598FCF7C5F9039B2E
:10C2C000BDF806201A80039B00225A80039B00229F
:10C2D0009A80039B029A9A6000210398FFF741FE1F
:10C2E0000490039B1B88043B9AB2049B1A80049B16
:10C2F00000229A7000BF0BB05DF804FB00B589B056
:10C300000190019B002B04D17B4607930798FCF713
:10C310009BF9019B5B8819460198FFF722FE0346B3
:10C320009B78012B04D17B4606930698FCF78CF989
:10C33000EFF31083059372B6019B9B881946019811
:10C34000FFF70FFE0490049B9B78032B0CBF012387
:10C3500000238DF80F309DF80F30002B10D004997A
:10C360000198FFF738FE049004990198FFF7EEFD5D
:10C3700003461A46019B5A80049B00229A7002E0F1
:10C380000198FFF7A9FE059B002B01D162B600BF03
:10C3900000BF09B05DF804FB00B58BB003900291BB
:10C3A0001346ADF80630039B002B04D17B4609935E
:10C3B0000998FCF749F9029B002B04D17B460893AE
:10C3C0000898FCF741F9039B5B8819460398FFF72F
:10C3D000C8FD03469B78012B04D17B460793079841
:10C3E000FCF732F9BDF80630002B08D00398FFF7B0
:10C3F00051FE03461A46BDF80630934201D909237F
:10C400001CE0EFF31083069372B6BDF806301946B0
:10C410000398FFF775FE0590059B002B08D1BDF82A
:10C42000063019460398FFF73EFE0246029B1A604B
:10C43000069B002B01D162B600BF059B18460BB0CE
:10C440005DF804FB00B58DB0039002911346ADF882
:10C450000630039B002B04D17B460B930B98FCF713
:10C46000F3F8029B002B04D17B460A930A98FCF751
:10C47000EBF8029B9B78012B04D07B46099309982B
:10C48000FCF7E2F8029B1B88BDF806209A4204D90B
:10C490007B4608930898FCF7D7F8BDF80630002BC8
:10C4A00004D17B4607930798FCF7CEF8EFF310838F
:10C4B000069372B6029BBDF806201A80029B0222E8
:10C4C0009A70039B023319460398FFF757FD039BAD
:10C4D0005A88039B9B889A4209D0039B5B88194624
:10C4E0000398FFF73EFD0590059B00229A70069B7E
:10C4F000002B01D162B600BF00BF0DB05DF804FB98
:10C5000000B589B001900091019B002B04D17B46BE
:10C5100005930598FCF798F8009B002B04D17B4607
:10C5200004930498FCF790F800230793EFF310832B
:10C53000039372B6019B9B8819460198FFF711FD82
:10C540000690069B9B78042B0CD1019B0433194663
:10C550000198FFF713FD019B9B8819460198FFF78F
:10C5600000FD0690069B9B78022B02D0032B07D080
:10C570000CE0069B03229A70009B069A1A6008E062
:10C580007B4602930298FCF75FF802E005230793CD
:10C5900000BF039B002B01D162B600BF079B18466A
:10C5A00009B05DF804FB00B587B00190019B002B3A
:10C5B00004D17B4604930498FCF746F8EFF310830C
:10C5C000039372B6019B9B8819460198FFF7C9FC3B
:10C5D0000590059B9B78042B04D105990198FFF7E2
:10C5E000FAFC0590059B9B78022B0CBF01230023CE
:10C5F0008DF80B30039B002B01D162B600BF9DF874
:10C600000B30184607B05DF804FB00B587B0019009
:10C61000019B002B04D17B4604930498FCF714F88B
:10C62000EFF31083039372B6019B9B881946019820
:10C63000FFF797FC059004E005990198FFF7CBFC04
:10C640000590059B9B78032BF6D0059B9B78042BCC
:10C65000F2D0059B9B78022B0CBF012300238DF8A1
:10C660000B30039B002B01D162B600BF9DF80B304D
:10C67000184607B05DF804FB00B587B00190009143
:10C68000019B002B04D17B4605930598FBF7DCFF4B
:10C69000009B002B04D17B4604930498FBF7D4FF46
:10C6A000EFF31083039372B6009B9B78012B06D0A7
:10C6B000032B09D100990198FFF7A9FC09E0009923
:10C6C0000198FFF7CFFC04E07B4602930298FBF74A
:10C6D000BBFF039B002B01D162B600BF00BF07B0B8
:10C6E0005DF804FB00B587B00190EFF3108304936D
:10C6F00072B6019B9B8819460198FFF732FC0590A2
:10C70000059B9B78042B04D105990198FFF763FCE6
:10C710000590059B9B78002B0CBF012300238DF80F
:10C720000F30049B002B01D162B600BF9DF80F3083
:10C73000184607B05DF804FB024BD3F804351846E1
:10C74000704700BF0010014000B589B0039002910E
:10C750000192009301238DF81030039B0593029BF7
:10C760000793019B069304AB009A1946012001F040
:10C77000F9FE0346184609B05DF804FB00B589B020
:10C7800003900291019202238DF81030039B0593D0
:10C79000029B069304AB019A1946012001F0E2FEC8
:10C7A0000346184609B05DF804FB82B00190019B76
:10C7B0005B791B035B42019A1344184602B0704731
:10C7C00082B00190019B1B791A46019B5B79D31AB9
:10C7D00003F57F2303F6FF731B03019A13441846E6
:10C7E00002B0704700B583B001900198FFF7E8FFF1
:10C7F000034603F58053184603B05DF804FB82B08E
:10C800000346ADF80630BDF80630002B06D0BDF863
:10C810000630B3F5FE4F01D2012300E0002303F000
:10C820000103DBB2184602B0704782B00190019B51
:10C830001B781A46019B1344184602B0704700B596
:10C8400085B00190019B1B88002B04D17B4603938C
:10C850000398FBF7F9FE019B1B889B00019A1A4481
:10C86000019B1B889B0001990B4423F47F6323F0F9
:10C870000F039A4204D0019B5B88B3F5FE4F0BD1A6
:10C88000019B23F47F6323F00F0303F580531846C5
:10C89000FFF7CBFF034604E0019B1B889B00019A36
:10C8A0001344184605B05DF804FB00B585B001904F
:10C8B0000091019B03930198FFF7C1FF0190019A3A
:10C8C000009B9A4203D2019A039B9A4201D800230B
:10C8D0000BE0019B5B881846FFF791FF034683F04E
:10C8E0000103DBB2002BE6D1019B184605B05DF8D1
:10C8F00004FB00B585B00390029101920093039B65
:10C9000000225A60029B5B881846FFF778FF0346B7
:10C9100083F00103DBB2002B0CD001990298FFF7E2
:10C92000C4FF0290029B002B04D1039B00221A60DB
:10C93000002330E0039B029A1A600BE0039B5A68C5
:10C94000029B1B889B001A44039B5A600298FFF7C6
:10C9500076FF0290029A019B9A421BD2039B5A686F
:10C96000029B1B889B001344009A9A4212D9039B96
:10C970001B681A46029B534023F47F6323F00F0386
:10C98000002B07D1029B5B881846FFF738FF034650
:10C99000002BD3D1029B184605B05DF804FB0000C4
:10C9A00010B5134BDB681846FFF73FFF104BDB68F1
:10C9B00003F580530022194608F0D3FB0346002BF1
:10C9C00013D10B4BDC680A4BDB681846FFF7F8FE07
:10C9D00003469C4201D1022308E0054BDB6803F5C6
:10C9E0008053034AD360032300E00123184610BD9F
:10C9F0006437002008B5084B1B68084A4FF4805183
:10CA00001846FFF7BBFE0346002B01D1012300E0CF
:10CA10000023184608BD00BF603700208037002083
:10CA200000B583B0134BDB681B780193124B1B6876
:10CA3000181D104BD968114B019AFFF785FE03466C
:10CA4000002B12D10C4B1A68019B9B089B001344CE
:10CA50000433084A5361074BDB681846FFF7E5FECD
:10CA60000346044A1361012300E00023184603B083
:10CA70005DF804FB64370020603700208037002019
:10CA800010B588B0344B1B69002B04D17B4606934C
:10CA90000698FBF7D9FD304B5B69002B04D17B4630
:10CAA00005930598FBF7D0FD00238DF81F3048E073
:10CAB000294B5B6923F47F6323F00F03264A5269F5
:10CAC0009B1A03F580530493234B1C69224BDB68AC
:10CAD0001846FFF787FE02466846049B2146FFF78B
