:020000022000DC
:1070000000F003206D7302005573020057730200F5
:10701000597302005B7302005D7302000000000000
:107020000000000000000000000000005F7302008C
:1070300061730200000000006373020065730200C8
:1070400067730200677302006773020067730200D0
:1070500067730200677302007978020067730200A9
:107060006773020067730200AD8E0300677302004E
:1070700067730200677302006773020067730200A0
:107080006773020019240400D9D20200677302005A
:107090000525040067730200A5BE030067730200A4
:1070A0006773020067730200677302006773020070
:1070B0006773020067730200000000000000000018
:1070C0006773020067730200677302006773020050
:1070D0006773020067730200677302006773020040
:1070E000677302006773020067730200000000000C
:1070F00000000000677302000000000067730200D8
:10710000000000000000000000000000000000007F
:10711000000000000000000000000000000000006F
:10712000000000000000000000000000000000005F
:10713000000000000000000000000000000000004F
:10714000000000000000000000000000000000003F
:10715000000000000000000000000000000000002F
:10716000000000000000000000000000000000001F
:10717000000000000000000000000000000000000F
:1071800000000000000000000000000000000000FF
:1071900000000000000000000000000000000000EF
:1071A00000000000000000000000000000000000DF
:1071B00000000000000000000000000000000000CF
:1071C00000000000000000000000000000000000BF
:1071D00000000000000000000000000000000000AF
:1071E000000000000000000000000000000000009F
:1071F000000000000000000000000000000000008F
:10720000344935480A1A02D0072291438D46334942
:1072100033480A1A06D00722914381F309880222D3
:1072200082F314882F483049304A00F042F8304841
:107230003049314A00F03DF830483149314A00F0D8
:1072400038F831483149324A00F033F83148324990
:10725000324A00F02EF832483249334A00F029F819
:1072600032483349334A00F024F833483349002286
:1072700000F02AF832483349002200F025F832485D
:107280003249091A082902DB0022026041601F48C6
:107290001F49884205D00268043003B4904703BCFC
:1072A000F7E700208646EC4600200021284A904758
:1072B000FEE7884207D0521A05D0037801300B70E0
:1072C0000131013AF9D17047884202D00270013091
:1072D000FAE7704700F0032000E8032000F00320E5
:1072E00000F00320584B0400002E00207C2E0020CC
:1072F000A0730200A0730200D62D0400584B0400B6
:10730000002E0020002E0020283104002831040027
:1073100028310400283104002831040028310400F9
:107320002831040028310400564B0400D44B0400DB
:107330007C2E00207C2E00207C2E0020E059002096
:10734000E0590020E0590020E0590020E05D0020D5
:1073500025870200FEE7FEE7FEE7FEE7FEE7FEE721
:10736000FEE7FEE7FEE7FEE700F002B8FFF7FCBF2E
:1073700008484FF00701884385460748804707487B
:10738000016841F470010160BFF34F8FBFF36F8F4D
:10739000FFF736BF00F003207DC1030088ED00E059
:1073A0002B4B1B78002B52D000B585B0012804D0A0
:1073B000032845D005B05DF804FB0023029302A921
:1073C000012014F0FFFB40BB02A814F065FC38BBA1
:1073D0000123039303A90DF1060010F049FB10BB34
:1073E000BDF8060010F044F80DF1050110F0C2F9E7
:1073F000E0B90BF039FC9DF8051000200CF024F9E1
:10740000B8B904F00DFDC0B9114B00221A70114B30
:107410001B68002BCED09847CCE714F0A9FFD3E728
:1074200014F0A6FFD4E714F0A3FFD9E714F0A0FFEF
:10743000DFE7784600F0ACFDE3E714F099FFE3E7FF
:1074400014F0A4FC0028B5D014F092FFB2E7704706
:107450007E2E0020802E002008B503781C2B00D043
:1074600008BD074B1B78002BFAD014F0D3FC18B9D9
:10747000044804F053FDF3E714F07AFFF8E700BF87
:107480007E2E0020002E002008B50749074815F081
:10749000A5FB00B108BD0323002205490969054881
:1074A00015F0B8FBF6E700BF982E0020043200204C
:1074B000802E0020D030002008B50378023B082B36
:1074C00049D8DFE803F01D05114848364848400018
:1074D000234B5B68002B3ED0007A00283BD0214A2A
:1074E00001211170984736E01D4B9B68002B32D06C
:1074F0001C4A12787AB31B4A0021117098472AE07F
:10750000194B1B784BB9164BDB681BB1154A002190
:1075100011709847FFF7B8FF1DE0144B01221A7055
:10752000134804F0F7FC04F0D9FCA0B114F020FFDC
:1075300011E010220A4B59690E4815F0D3FB50B1E7
:1075400014F016FF07E08168C0680AF095FA18B9D0
:10755000054B01221A7008BD14F00AFFF8E700BFBE
:10756000802E00207C2E00207D2E00207E2E0020EC
:10757000002E0020D030002070B586B004461F4A8F
:1075800003AB07CA03C323F8022B120C1A701C4E5C
:1075900035460FCC0FC594E8030085E803007369F6
:1075A00053B3184B009303AB174A1849184815F00A
:1075B000DCFA034610B1184606B070BD154817F046
:1075C00063F90146124815F0F3FA03460028F2D198
:1075D000114817F0E7FA03460028ECD10E4817F0DF
:1075E00017FB01460A4815F0E3FA03460028E2D1EA
:1075F000FFF74AFF0346DEE70723DCE728310400F4
:10760000802E0020B9740200982E00200432002041
:10761000D0300020B82E002080300020064B1B68A0
:107620004BB110B5044C01E02368984712F09AFD65
:107630000028F9DA10BD70474432002010B50C461E
:10764000144B1860144A012114481BF03FF9A0B9EB
:10765000610CE00341F26F7200238B4208BF82424B
:1076600010D24FF47A7200231BF0B4F901460022C5
:107670000B481BF041F938B910BD0A4A4A2114F0F1
:1076800085FEE5E70521F2E7064A4B2114F07EFE70
:10769000F2E700BF443200201D760200883104006A
:1076A000483200203431040008B5134B1B6873B115
:1076B0004FF0A042D2F80435104909684B40C2F897
:1076C00004350D4A1368013B136023B108BD002047
:1076D00014F04EFEECE70A481BF060F94FF0A042B0
:1076E000D2F804350549096823EA01030549096808
:1076F0000B43C2F80435E9E7683200206C32002001
:10770000703200209832002039B1012303FA00F0D2
:107710004FF0A043C3F80C057047012303FA00F0B3
:107720004FF0A043C3F80805704721B14FF0A043C4
:10773000C3F80C0570474FF0A043C3F80805704725
:107740005AB338B51346132900D838BD134A106010
:107750005B00013B124A13604FF0A043D3F804359D
:107760001840104B186000254C0CC8034FF47A7277
:10777000002310F5FA7044EB05011BF02BF90146CC
:107780002A4609481BF0B8F80028DED1034B1A68D6
:107790004FF0A043C3F80C25D7E770476C320020A8
:1077A00068320020983200207032002008B5054869
:1077B0001BF0F4F8044B1A684FF0A043C3F80825F7
:1077C00008BD00BF703200206C32002008B54FF0B9
:1077D000A0430322C3F834274FF40051C3F808151F
:1077E0000E49C1F800274FF48040C3F80805C1F8DE
:1077F00004274FF40040C3F80805C1F808274FF4E8
:107800008032C3F80825064A012106481BF05EF8BD
:1078100000B908BD14F0ACFDFBE700BF3800005014
:10782000A97602008C310400D8B10F4A10604FF0E5
:10783000A0430E4AC3F82C27C3F83027C3F86027AB
:10784000C3F864270A4B4FF00042C3F8042300201A
:10785000C3F87C01074BC02283F8062340221A603C
:1078600070470E20704700BF903200200C000300CC
:107870000060004000E100E02DE9F843174B0022D2
:10788000C3F87C21DFF8608008F104054446144FFA
:10789000144EDFF8589001E0AC421DD04FF0A043E9
:1078A000D3F8102514F8011B01238B409343F3D028
:1078B0003B68D6F80425991A48BFD11A43F23333EE
:1078C0009942E9D9D6F804353B606FEA0800D9F847
:1078D000003020449847DFE7BDE8F88300600040AF
:1078E00094320020001001409031040090320020BA
:1078F000002800F0878070B5CEB00546424B1B686B
:1079000013F4804F62D0414B1B68032B5EDD404B6C
:107910001868691E0DAB15AE11F8012F1409045D2E
:107920001C7002F00F02825C5A700233B342F3D132
:1079300000238DF854302F2136481BF084F900289D
:1079400046D02F2133481BF07EF9411C324BD3F82F
:1079500004350DAA0292314A0192314A0092412225
:10796000042006F0B5FD284B1B6813F4804F2DD082
:10797000264B1B68032B29DD2F2126481BF063F9BA
:10798000002832D02F2123481BF05DF9411C224BE7
:10799000D3F80435EA7B0B92AA7B0A926A7B0992A0
:1079A0002A7B0892EA7A0792AA7A06926A7A059264
:1079B0002A7A0492EA880392AA8802922A6801929B
:1079C000184A00924222042006F082FD4EB070BD9B
:1079D0005C2110481BF037F928B15C210D481BF0E1
:1079E00032F9411CB2E70B49B0E75C2109481BF0B2
:1079F0002AF928B15C2107481BF025F9411CC6E78C
:107A00000449C4E7704700BF302E00202C2E002010
:107A1000342E00209431040000100140F0310400A5
:107A2000043204000C32040072DF704773DF7047C9
:107A300074DF7047F0B5A3B005460E461746304CCC
:107A40001022002120461BF03FF92E480378C3EB9B
:107A5000431C2D49614421602C4A6244A2601F22CC
:107A6000A280A281013303F0010303703C220021B4
:107A700013A81BF029F906238DF84F30ADF84850B4
:107A800001238DF84A30ADF85C3012AA1892ADF897
:107A90003C50ADF8407011960FAA1D928DF87830C9
:107AA0003C22002168461BF00FF902238DF80030BC
:107AB000224652F8041B13A813F013FE88B9104B8A
:107AC00003F10C029968684613F00BFE60B9104A86
:107AD0000B491048FFF7A8FF082808D068B923B061
:107AE000F0BD14F045FCEAE714F042FCEFE7002299
:107AF00003490848FFF798FFF0E714F039FCEEE778
:107B0000E03200209C320020A0320020F032002021
:107B1000102E00200C2E0020B0F5202F3DBF074B6B
:107B2000A3FB0023DB084FF6FF7310B1012B38BF16
:107B30000123034A93819160704700BFCDCCCCCC28
:107B4000102E002008B50121054B1878FFF76EFFB5
:107B500018B9002005F0C4F808BD14F009FCF8E7D6
:107B60000C2E002008B5044B1878FFF761FF00B910
:107B700008BD14F0FDFBFBE70C2E002076DF7047FC
:107B80007ADF70477CDF704708B514F0F1FB08BD61
:107B900008B504F0C7F908BD00B583B0037823B178
:107BA000012B0BD003B05DF804FB3B214088FFF7AD
:107BB000E5FF0028F6D014F0DBFBF3E7144B1B685D
:107BC00013F4804FEED0134B1B68032BEADD2F21FB
:107BD00011481BF038F870B12F210F481BF033F813
:107BE000411C0E4BD3F804350D4A00926822042044
:107BF00006F06EFCD6E75C2107481BF024F828B19C
:107C00005C2105481BF01FF8411CEAE70249E8E740
:107C1000302E00202C2E00204C3204000010014099
:107C2000B032040000B583B014F0B0F868B9002396
:107C3000019301A9012013F0C5FF48B901A814F070
:107C40002BF840B903B05DF804FB14F091FBEEE7AC
:107C500014F08EFBF2E714F08BFBF3E710B584B061
:107C60009DF80C30012262F3030362F307138DF8D1
:107C70000C30144C20461BF07CF882B2214603A83D
:107C8000FFF780FFB8B90822002101A81BF01CF8FB
:107C90007823ADF80430C823ADF806300023ADF8E2
:107CA00008304FF4C873ADF80A3001A8FFF768FF39
:107CB00020B904B010BD14F05BFBE4E714F058FBEE
:107CC000F7E700BFDC32040030B58BB001AD08220D
:107CD000002128461AF0F8FF7823ADF80430C823B5
:107CE000ADF806300024ADF808404FF4C873ADF885
:107CF0000A301C22214603A81AF0E6FF039540F63D
:107D0000CD4304934FF48033059303238DF818304B
:107D1000ADF81A408DF81C40064B0893064B0993AA
:107D200003A814F0EDF908B90BB030BD14F020FB36
:107D3000FAE700BF997B0200897B020006207047AA
:107D400030B587B00D46144644F20103984200F066
:107D5000AD8026D801284CD041F20103984240F072
:107D6000D680814B1B6813F4804F4BD07F4B1B6830
:107D7000002B47DD2F217E481AF065FF00287BD0BD
:107D80002F217B481AF05FFF411C7A4BD3F8043552
:107D900002940195784A00926322012006F098FB34
:107DA00030E044F20203984240F0B1806E4B1B6811
:107DB00013F4804F26D06D4B1B68002B22DD2F2142
:107DC0006B481AF040FF002863D02F2168481AF052
:107DD0003AFF411C674BD3F804352288039262684E
:107DE00002920195654A00926922012006F070FB1B
:107DF00008E05D4B1B6813F4804F03D05B4B1B689E
:107E0000002B16DC4FF0A0434FF4F032C3F81825D6
:107E1000C3F80C25EFF3108372B64DF6AD6C584BDA
:107E20001B7823B1564A30BF1378002BFBD107B023
:107E300030BD2F214E481AF006FF80B12F214C484B
:107E40001AF001FF411C4B4BD3F804350294019505
:107E50004C4A00926022012006F03AFBD2E75C21F6
:107E600043481AF0F0FE28B15C2141481AF0EBFEBD
:107E7000411CE8E73E49E6E75C213D481AF0E3FE95
:107E800028B15C213A481AF0DEFE411C7DE73849F2
:107E90007BE75C2136481AF0D6FE28B15C213448D5
:107EA0001AF0D1FE411C95E7314993E72E4B1B6830
:107EB00013F4804FA6D02D4B1B68002BA2DD2F2181
:107EC0002B481AF0C0FEA8B12F2129481AF0BBFE9A
:107ED000411C284BD3F8043522680492626803924F
:107EE0000295A2680192284A00927322012006F0AE
:107EF000EFFA87E75C211E481AF0A5FE28B15C2145
:107F00001B481AF0A0FE411CE3E71949E1E7164BB4
:107F10001B6813F4804F3FF475AF144B1B68002BA4
:107F20007FF770AF2F2112481AF08DFE78B12F2104
:107F30000F481AF088FE411C0E4BD3F8043501950A
:107F4000124A00927B22012006F0C2FA5AE75C2115
:107F500007481AF078FE28B15C2105481AF073FE34
:107F6000411CE9E70249E7E7302E00202C2E0020D3
:107F7000F032040000100140683304008C33040028
:107F8000282E00204C330400AC330400D03304000E
:107F900000B583B001460023ADF80030044B0193D7
:107FA0006A4644F20200FFF7CBFE03B05DF804FB23
:107FB000CC33040041DF7047174B1B6813F4804F2C
:107FC00003D0164B1B68012B00DC704700B583B053
:107FD0002F2113481AF037FE80B12F2110481AF0D4
:107FE00032FE411C0F4BD3F804350F4A0092852214
:107FF000022006F06DFA03B05DF804FB5C2108482E
:108000001AF021FE28B15C2105481AF01CFE411C23
:10801000E8E70349E6E700BF302E00202C2E0020C1
:1080200008340400001001404C34040030B587B01F
:108030000D4614465368002B33D0314B1B6813F4A4
:10804000804F03D02F4B1B68032B01DC07B030BDE2
:108050002F212D481AF0F7FDB0B12F212A481AF030
:10806000F2FD411C294BD3F8043562680492627812
:108070000392227802926A880192254A0092AC22E9
:10808000042006F025FAE1E75C211F481AF0DBFD29
:1080900028B15C211C481AF0D6FD411CE2E71A49C0
:1080A000E0E7174B1B6813F4804FCFD0154B1B68CC
:1080B000032BCBDD2F2114481AF0C5FD90B12F21E1
:1080C00011481AF0C0FD411C104BD3F8043522783A
:1080D00002926A8801920F4A0092B122042006F0AF
:1080E000F7F9B3E75C2108481AF0ADFD28B15C212F
:1080F00005481AF0A8FD411CE6E70349E4E700BF84
:10810000302E00202C2E00200834040000100140E6
:108110006C340400C034040000B583B0012A34D0AC
:10812000022A62D03AB1464AA021032014F02EF967
:1081300003B05DF804FB434B1B6813F4804FF7D08A
:10814000414B1B68032BF3DD2F213D481AF07BFDCB
:1081500070B12F213A481AF076FD411C3B4BD3F801
:1081600004353B4A00929322042006F0B1F9DFE780
:108170005C2133481AF067FD28B15C2130481AF0C1
:1081800062FD411CEAE72E49E8E7062232214FF45E
:10819000F030FFF7D5FA2B4B1B6813F4804FC7D094
:1081A000294B1B68032BC3DD2F2125481AF04BFDFB
:1081B00070B12F2122481AF046FD411C234BD3F801
:1081C0000435244A00929822042006F081F9AFE792
:1081D0005C211B481AF037FD28B15C2118481AF0C1
:1081E00032FD411CEAE71649E8E7164B1B6813F419
:1081F000804F9DD0144B1B68032B99DD2F21104815
:108200001AF021FD70B12F210D481AF01CFD411C00
:108210000E4BD3F80435104A00929C22042006F03D
:1082200057F985E75C2106481AF00DFD28B15C215D
:1082300003481AF008FD411CEAE70149E8E700BFDE
:1082400008340400302E00202C2E002000100140A5
:10825000EC3404000C3504002C35040030B587B034
:108260000446834B1B6813F4804F03D0814B1B687B
:10827000032B05DC032C28D8DFE804F0244C244C25
:108280002F217D481AF0DFFC78B12F217A481AF0AF
:10829000DAFC411C794BD3F804350194784A0092FA
:1082A000C822042006F014F9E4E75C2172481AF0B1
:1082B000CAFC28B15C2170481AF0C5FC411CE9E7F2
:1082C0006D49E7E701238DF814306E4A1378591C85
:1082D00011708DF815303223049364230393644B9B
:1082E0001B6813F4804F03D0624B1B68032B15DC13
:1082F000012C37D9A31E012B5FD8022303AA05A99D
:10830000614819F077FF05469DF814100E20FFF71D
:10831000FBF936E000238DF81430D6E72F215648BC
:108320001AF091FC88B12F2153481AF08CFC411CA3
:10833000524BD3F804359DF814200192534A009211
:10834000E322042006F0C4F8D2E75C214A481AF080
:108350007AFC28B15C2148481AF075FC411CE7E71B
:108360004549E5E74A4D28880DF030FE03AA05A9E6
:10837000284619F0E1FE05469DF814100D20FFF780
:10838000C3F9112D6AD8DFE805F018696969096930
:10839000693D09696969696969696909344B1B68DB
:1083A00013F4804F03D0334B1B68032B07DC0622EA
:1083B00032214FF4F030FFF7C3F907B030BD2F2161
:1083C0002D481AF040FC80B12F212B481AF03BFCBD
:1083D000411C2A4BD3F8043501942E4A009240F2F6
:1083E0000112042006F074F8E1E75C2122481AF03B
:1083F0002AFC28B15C2120481AF025FC411CE8E742
:108400001D49E6E71A4B1B6813F4804FD5D0194B72
:108410001B68032BD1DD2F2117481AF014FC80B103
:108420002F2115481AF00FFC411C144BD3F80435CA
:108430000194194A009240F20D12042006F048F807
:10844000BBE75C210C481AF0FEFB28B15C210A480E
:108450001AF0F9FB411CE8E70749E6E7002DACD02C
:10846000054A40F21111284613F090FFA5E700BF1E
:10847000302E00202C2E0020083404000010014073
:108480005035040099330020643300206435040023
:10849000303300208035040098350400303803283C
:1084A00000D9704708B5FFF7D9FE08BD00B583B005
:1084B0002A4B1B6813F4804F03D0294B1B68032BF6
:1084C0001DDC2848284B03630023836280F82C308E
:1084D00080F82D30012119F0F9FD90BB2148224B85
:1084E00043660023C36580F8603080F86130022164
:1084F000343019F0EBFD50BB03B05DF804FB2F21C5
:108500001A481AF0A0FB78B12F2118481AF09BFBEB
:10851000411C174BD3F80435164A009240F2211241
:10852000042005F0D5FFCCE75C2110481AF08BFB46
:1085300028B15C210D481AF086FB411CE9E70B4984
:10854000E7E70A4A4FF4957113F020FFC6E7074AA0
:108550004FF4957113F01AFFCEE700BF302E0020C4
:108560002C2E002030330020CC36040008340400C8
:1085700000100140C435040003781C2B00D0704764
:1085800000B583B01A4B1B6813F4804F03D0194B0E
:108590001B68032B0ADC0322C8214FF4F030FFF7DD
:1085A000CFF809F031FB03B05DF804FB2F2112482E
:1085B0001AF049FB70B12F210F481AF044FB411CFF
:1085C0000E4BD3F804350E4A0092B822042005F071
:1085D0007FFFE0E75C2108481AF035FB28B15C21F9
:1085E00005481AF030FB411CEAE70349E8E700BF01
:1085F000302E00202C2E00200834040000100140F2
:10860000E435040010B5044600214FF4F030FFF7C4
:108610008CF804EB8404620032214FF4C030FFF781
:108620008FF810BD08B5FFF7C1F808BD00B585B0DB
:10863000364B1B6813F4804F03D0354B1B68032B5C
:108640001FDCFFF70BFBFFF73FFB03A80EF07AFDE3
:108650002E4B1B6813F4804F03D02D4B1B68032B4C
:1086600030DCFFF7A3F800214FF4F030FFF75DF89E
:108670000422C8214FF4F030FFF762F805B05DF82E
:1086800004FB2F2123481AF0DEFA70B12F21214874
:108690001AF0D9FA411C204BD3F804351F4A009236
:1086A0007022042005F014FFCBE75C2119481AF072
:1086B000CAFA28B15C2117481AF0C5FA411CEAE74A
:1086C0001449E8E72F2113481AF0BDFA88B12F2189
:1086D00010481AF0B8FA411C0F4BD3F80435BDF816
:1086E0000C2001920E4A00927B22042005F0F0FE3D
:1086F000B7E75C2107481AF0A6FA28B15C210548C3
:108700001AF0A1FA411CE7E70249E5E7302E002004
:108710002C2E002008340400001001400036040014
:108720001C36040000B58DB0674A042146F20100F2
:1087300005F0B2FE654B1B6813F4804F03D0644B09
:108740001B68032B50DC1AF059F800286ED1FFF794
:108750003DF86048FFF768F800286DD1FFF762FA2E
:10876000FFF77CFAFFF7B0FA2022002103A81AF0E5
:10877000ABFA01238DF80C3007238DF80F30062358
:108780008DF81430544B0793544B0B93544903A862
:1087900009F0F4F950B10B2876D14C4B1B6813F457
:1087A000804F03D04A4B1B68032B4BDC64214D48A0
:1087B000FEF744FF4A4B1B78002B6BD000F0C6F845
:1087C000FFF796F809F04AF9002876D100214FF416
:1087D000F030FEF7AAFF0222C8214FF4F030FEF776
:1087E000AFFFFFF7E7FBFCE72F213F481AF02BFA1A
:1087F00078B12F213C481AF026FA411C3B4BD3F8A4
:1088000004353B4A009240F24912042005F060FE14
:1088100099E75C2134481AF016FA28B15C213248F5
:108820001AF011FA411CE9E72F49E7E72E4A40F216
:108830004B1113F0ABFD8AE72B4A40F24F1113F0B6
:10884000A5FD8BE72F2128481AF0FDF978B12F21DB
:1088500025481AF0F8F9411C244BD3F80435254A71
:10886000009240F23D12042005F032FE9EE75C21AA
:108870001D481AF0E8F928B15C211B481AF0E3F909
:10888000411CE9E71849E7E7174A4FF4A17113F0D3
:108890007DFD8BE703AC184D0FCD0FC495E80300A9
:1088A00084E8030003A8FEF767FE002886D00E4A7E
:1088B0004FF4B67113F06AFD80E70B4A40F2711174
:1088C00013F064FD82E700BF6DE40200302E00204B
:1088D0002C2E00205D82020079850200AD8402000A
:1088E000983300209D8402000834040000100140E9
:1088F0003436040064360400B436040008B501467A
:10890000102202481AF0B7F908BD00BF9C330020BE
:1089100010B50B4C08220B4920461AF0ACF908227E
:108920000949A0181AF0A7F9E379042262F30713A2
:10893000E371237A022262F38713237210BD00BF12
:108940009C33002060000010A40000100048704715
:108950009C330020064B03F5807100225A805A6038
:1089600003F8082B8B42F9D1024B00221A607047A2
:10897000AC330020AC34002070B406460E4B1B68AC
:1089800020220E4C0AE01F2314F8330088B104EBB8
:10899000C3056D88B54205D0013A09D0002BF2D04D
:1089A000013BF1E704EBC3056D688D42F4D100E0B3
:1089B000002070BC704700BFAC340020AC330020F6
:1089C00010B4094B1B68094A02EBC3046080616064
:1089D000012102F833105A181F2B034B08BF002245
:1089E0001A605DF8044B7047AC340020AC330020B3
:1089F000C37D002B42D00B7823F07F03C27802F0B6
:108A00007F0213430B700B7803F07F03027843EA75
:108A1000C2130B700378002B40D030B48378082B3E
:108A200014BF002201224B7803F07F0343EAC213F4
:108A30004B70C588C5F3861423F07F0323434B7026
:108A40008A7802F0030242EA8502D2B28A70057A7D
:108A5000C5F3C10422F0030222438A70CB7803F0ED
:108A60001F0343EA4513DBB2CB70427A02F01F02C8
:108A700023F01F031343CB7030BC70470B7823F0F7
:108A80004003C27843EA8213DBB20B70027902F032
:108A90003F0223F03F0313430B70B4E7704700001D
:108AA0000D4B1B688BB170B40C4B5D6895B10B4BD3
:108AB0001C682246002314F83310814207D001338A
:108AC0000832AB42F7D1002002E000207047506826
:108AD00070BC70470020FBE734350020383500209B
:108AE00000B58DB010B913F1020F06D1074B18680D
:108AF00004F006FB0DB05DF804FB01218DF80410B5
:108B00000293039201A801F0DDFAEFE7403500205F
:108B10002DE9F0418EB00E4615461C4680460028D1
:108B20002ED0002E30D0002C32D0636A0233059351
:108B3000E378002B14BF0121022101AFA2783B464C
:108B4000082A14BF0022012204F10C0004F039FCB1
:108B50000697CDF81C80ADF820500B9616FA85F5D7
:108B60000C95A3788DF83430237B022B14D000238E
:108B7000ADF8283005A804F01CFC0EB0BDE8F0816B
:108B80007846FFF705FACCE77846FFF701FACAE71F
:108B90007846FFF7FDF9C8E723692BB123690993EC
:108BA0001023ADF82830E5E77846FFF7F1F9F5E74F
:108BB0002DE9F04F89B00546894609B100230B60C5
:108BC00095F850406A7A944278D84FF0010805F140
:108BD0000C03019327E0E86EB5F84A10AA782B46FB
:108BE0008A1A0146FFF794FF85F8528007992846B4
:108BF000FFF7FEFEE96E3246594450461AF03BF844
:108C000002A804F0D7FDB9F1000F04D0D9F8003064
:108C10000133C9F80030631C85F850300134E4B2E8
:108C20006A7AA24245D308FA04F3E96C0B42F5D103
:108C30002746EB7D002B14BF08260C2606FB04FB01
:108C4000944204BFB5F84A60A6EB0B062C722B7851
:108C5000002B14BF4FF0040A4FF0010A06EB0A0381
:108C60000493019B0293AB6A0393EB6A05934FF065
:108C700000038DF8183002A804F076FD0346C8B949
:108C8000079B9A4444B995F853302BB9AB69C3F3A9
:108C90000C03EB8085F85380EB7D002BA6D195F873
:108CA0005230002BA2D1002F95D07846FFF770F9F3
:108CB00091E70023184609B0BDE8F08F0023F9E7DB
:108CC00010B5044690F84830012B0CD103F0DAFBC4
:108CD000237B012B0BD0094BD968014404F13000F0
:108CE00003F0AAFB10BD7846FFF752F9EEE7034BFD
:108CF000A17D1A69DB6802FB0131EEE744350020F3
:108D000010B50446808A02F079FF01281FD1237B29
:108D1000FBB194F91620002A1DDBE27D5AB1022B2B
:108D20001BD094F90330002B19DBA378002B0CBF68
:108D3000002007200CE0E2780AB9012B11D123783A
:108D40008BB9A378042B0CBF0020072000E0102073
:108D500010BD1020FCE70720FAE71020F8E70720F5
:108D6000F6E70720F4E70020F2E770B58CB0044680
:108D7000037853B1C388C2698169808A06F026FDF1
:108D800005464DB928460CB070BDC2698169808A1C
:108D900006F016FD0546F4E7A68AE4692C220021B8
:108DA00001A819F091FF0F238DF80430ADF8086089
:108DB0004FF0000364F300038DF80A3000238DF8B0
:108DC0000B3001A801F07EF9DCE700002DE9F0414D
:108DD00080460F461646314B002493F848502DB17B
:108DE00001347033042CF8D1002535E0C4EBC40500
:108DF0002A4B03EB0515304608F01BFEE8660028F9
:108E000049D030224146284619F035FFC4EBC4034F
:108E1000224A02EB03130022DA64A3F84A60012F0E
:108E20001DD0C4EBC4031D4A02EB03136FF0010213
:108E30009A62002283F86820194A9A651D66194AC9
:108E40009A631D64012002F0D3FBC4EBC404134BEE
:108E500003EB041484F848702846BDE8F081C4EBA5
:108E6000C4030E4A02EB03130F4A127D83F851200C
:108E7000002283F8522083F8532083F85020D8F83A
:108E800028105965A3F858206FF001029A62074A2A
:108E90009A631D64D6E70546DEE700BF5C35002017
:108EA000299B020081920200443500208D9202002D
:108EB00000B585B000228DF80F20A0B10B46024608
:108EC00002320A600DF10F01184604F076FA9DF89F
:108ED0000F3043B1174B1B6813F0040F03D0164B30
:108EE0001B68032B04DC9DF80F0005B05DF804FB44
:108EF0002F21124819F0A7FE78B12F210F4819F041
:108F0000A2FE411C0E4BD3F804350E4A009240F2EB
:108F10000642042005F0DCFAE5E75C21074819F079
:108F200092FE28B15C21054819F08DFE411CE9E74D
:108F30000249E7E7302E00202C2E0020E8360400FE
:108F400000100140183704002DE9F04FF3B005463A
:108F50000E4614469B469769137853B1C7F30C032A
:108F6000D28893423ABFA7F500515218D219D31AAA
:108F7000A36104F10C08E378002B14BF0121022146
:108F80000DF10C09A2784B46082A14BF00220122D9
:108F9000404604F016FAA761CDF820900995B6B2C4
:108FA000A378F01A80B2ADF8280005440E9512AAF5
:108FB0000D928DF83C300023ADF83030E37863B388
:108FC0004FF0100A4FF00009237B022B20D02546DA
:108FD00045F8249F2A462179206A0FF025F9606A16
:108FE00060B107A9FFF764FF00283CD12A46217928
:108FF000206A0FF019F9606A0028F2D1237B022B56
:109000000ED14146E0890FF0F5F90028DCD107E0E8
:10901000ADF830A023690B93D9E7237B012B07D050
:10902000374B1B6813F0040F44D173B0BDE8F08FC9
:10903000E089B4F814802546002345F8243F2946EA
:109040000FF03EF907A9606AFFF732FF58B9002315
:109050006362294640460FF033F907A9606AFFF7BB
:1090600027FF0028DCD02046FFF77FFE0028DCD158
:10907000A18A00228DF81C2012AB0893A378F61A5F
:10908000ADF8246001238DF82830ADF82A100B923A
:109090000CAB2169E06883E80300A37D8DF84030C4
:1090A000236A0E93636A0F93CDF844B007A801F0CA
:1090B00009F8BAE7134B1B68052BB6DD2F211248C0
:1090C00019F0C1FD78B12F210F4819F0BCFD411CEA
:1090D0000E4BD3F804350E4A009240F2F26206209D
:1090E00005F0F6F9A1E75C21074819F0ACFD28B1BD
:1090F0005C21054819F0A7FD411CE9E70249E7E7B3
:10910000302E00202C2E0020E836040000100140F4
:109110002C37040010B50446C06E08F08EFC04F134
:10912000300003F076F994F84830022B0AD0702210
:109130000021204619F0C8FD002084F8480002F004
:1091400057FA10BD04F1500003F063F9EFE710B5D2
:109150008CB0044690F84830012B0CD101238DF8D7
:109160000430636D029301A800F0ACFF2046FFF7C6
:10917000D1FF0CB010BD7846FEF70AFFEEE7000005
:10918000F0B591B00D46044600B394F84830022B78
:1091900020D0666D2C22002105A819F095FD102322
:1091A0008DF8143006968DF81C5005A800F08AFF43
:1091B0002046FFF7AFFF2B4B1B6813F0040F03D0C3
:1091C000294B1B68032B26DC11B0F0BD7846FEF757
:1091D000DFFEDAE7A369C3F30C02E688E769390A20
:1091E0003806B24238BFA3F5005333449E1A1F4AD3
:1091F00013685F1C176003F00703B4F814C01C4A1F
:109200001F0102EB031322F807C0801941F100018E
:10921000C3E90201BDE72F21164819F014FD98B1EA
:109220002F21144819F00FFD411C134BD3F80435BE
:10923000029594F848200192104A009240F2F312ED
:10924000042005F045F9BFE75C210A4819F0FBFC52
:1092500028B15C21074819F0F6FC411CE5E70549F7
:10926000E3E700BF302E00202C2E002030350020F8
:10927000B0340020E83604000010014058370400E4
:1092800008B508460021FFF77BFF08BD10B50C4666
:1092900091F84830012B0DD194F8513073B1013B56
:1092A00084F85130002384F850300A4B186803F0DA
:1092B00027FF10BD7846FEF76BFEEDE7237B012B01
:1092C00003D02046FFF743FFF3E701212046FFF7D5
:1092D00057FFEEE7403500202DE9F0438FB01446EC
:1092E000527812F0010F00F0EC8007460E461D4642
:1092F000E37D002B00F0E1802046FFF736FD80463D
:10930000002840F0DE8094F80390B9F1000F40F09F
:10931000B580062E40F0D5803E78B30103F4FE53AD
:10932000797843EA9101784B06E008F1010870333F
:10933000B8F1040F00F0C88093F84820012AF4D156
:109340009D8AE2899542F0D1DA888A42EDD1B3F85C
:10935000582012B1A08A9042E7D197F802C0FB785A
:1093600038797D7916F0800F4BD1C8EBC802664979
:1093700001EB0212D189A28A91424AD0634B1B6849
:1093800013F0040F00F09D80614B1B68012B40F32C
:1093900098802F215F4819F056FC28B32F215D4893
:1093A00019F051FC411C5C4BD3F80435A28A02929F
:1093B000C8EBC808544A02EB0812D2890192574AF6
:1093C000009240F26C62022005F082F879E05C21A4
:1093D000504819F038FC28B15C214E4819F033FC94
:1093E000411C86E04B4984E05C214A4819F02BFC83
:1093F00028B15C21474819F026FC411CD3E74549B8
:10940000D1E7A48AC8EBC8013F4A02EB0112A2F8D7
:1094100058401B0443EA0C632B4343EA00233A4AB7
:10942000C8EBC804210102EB0414E56C1D43E5649C
:10943000BBB1535CD3B1637A5A1C01239340013B07
:109440009D4217D0C8EBC8082F4B03EB081800212A
:1094500088F850102046FFF7ABFB2046FFF730FCA2
:109460002FE003212046FFF78BFE2AE07846FEF727
:109470008FFDE0E72046FFF76AFE22E04846FFF74F
:109480000FFB0246E8B18DF81490236A0B93A38A70
:10949000ADF8223009AB2169E06883E80300A37DC1
:1094A0008DF830300697079623788DF82030E36AE0
:1094B0000D93294605A8904703E02B462246FFF767
:1094C00043FD0FB0BDE8F083104B1B6813F0040F91
:1094D000F7D00F4B1B68012BF3DD2F210D4819F03E
:1094E000B2FB00283FF473AF2F210A4819F0ABFB01
:1094F000411C094BD3F80435094A00924FF4CD6260
:10950000022004F0E5FFDCE75C350020302E00206F
:109510002C2E0020E836040000100140AC37040077
:109520007C370400F0B5C7B0154683789A18C37D20
:10953000002B14BF4FF480734FF4C0739342C0F0FC
:1095400083800F46444B03F5E07602E07033B3426C
:109550000ED093F84840012CF8D1B3F814C0848A97
:10956000A445F3D1DC89C1898C42EFD108246CE099
:109570000121FFF72BFC0646002869D02A46394610
:10958000C06E19F078FB0023459345A93046FFF7DC
:109590000FFB044630F0040503D03046FFF7BAFD58
:1095A00053E0459B002B3ED12C4B1C6814F0040467
:1095B0004BD02B4B1B68032B4CDDB6F84A301F46B3
:1095C000802B28BF802783B1264B186804A92A4620
:1095D000F36E9B5C1C09045D0C7003F00F03C35C0D
:1095E0004B70013202319742F2D804AB002203F8EB
:1095F00017202F211C4819F026FBC0B12F211A4833
:1096000019F021FB411C194BD3F8043504AA02922E
:10961000174A0192174A009240F25152042004F076
:1096200057FF2C4611E03046FFF74AFBBCE75C21B0
:109630000D4819F008FB28B15C210B4819F003FB19
:10964000411CE0E70849DEE70924204647B0F0BDA9
:109650000424FAE72C46F8E75C350020302E002081
:109660002C2E0020342E0020E8360400001001408B
:10967000F0370400043204002DE9F04186B00446BE
:109680000F461646FFF73CFB054638B923784BB129
:10969000324639462046FFF745FF0546284606B0C4
:1096A000BDE8F081A3783344E27D002A14BF0B2289
:1096B0000F22934229D80133029304F10C03009343
:1096C000A36A0193E36A039300238DF81030684680
:1096D00004F04AF805460028E0D1059901F1010897
:1096E0002046FFF785F9E37D43B1324639464046CF
:1096F00019F0C1FA684604F05DF8CFE72346324618
:1097000041463846FFF704FAF4E70925C6E70000AA
:1097100010B54FF4E0720021134819F0D5FA06F0A5
:10972000D1F90024114B1C6080222146104819F009
:10973000CBFA104B104A1A60104A5A604CF2503261
:109740009A600F49D9601A6104221A759C75082223
:109750005A750C4803F0B4FC0B4B18600B4B1C60A3
:109760000B4806F0CFFA10BD5C35002030350020E4
:10977000B03400204435002080969800F049020063
:1097800020A10700C59A0200403500203435002092
:10979000E18A020008B506F00BF808BD28B330B521
:1097A0008DB00446036913B3C36913B3856915B358
:1097B0005A788DF804201A7882F001028DF803207F
:1097C0000993838A0B2B18D8C27AB2B9027B012A7B
:1097D0000CBF012200228DF800204AD004238DF80E
:1097E000023022E0244A927D0DE00E2070470E20C8
:1097F0003DE00E203BE00E2039E001228DF80020F4
:10980000227B022AEED0002A0CBF042208228DF807
:10981000022013440B33194A82FB03235B10013BE4
:109820008DF8093000238DF8083000238DF81730AB
:1098300003AB94E8030083E8030008952389ADF89F
:109840001430A37A8DF81630236A0A93DF230B9322
:1098500020460EF07FFE28B12378012B14BFFF2392
:1098600020230B93A28A21696846FFF705FF0DB0FC
:1098700030BD027BC7E700BF44350020ABAAAA2A4F
:10988000002861D030B591B00D4604464368002BE6
:109890005CD08269002A5BD003788DF813300023F6
:1098A0000D9383680B2B55D8017B8DF81010002089
:1098B0008DF81200002953D101238DF8273007AB12
:1098C0006169206983E80300E389ADF824300C92D4
:1098D000237F8DF82630236A0F930E95254B1B6846
:1098E00013F0040F03D0244B1B68062B06DCA26880
:1098F000616804A8FFF7C0FE11B030BD2F211F48DA
:1099000019F0A1F998B12F211C4819F09CF9411CBC
:109910001B4BD3F80435A269029222780192194AAE
:10992000009240F2F472072004F0D2FDDFE75C21E0
:10993000124819F088F928B15C21104819F083F910
:10994000411CE5E70D49E3E70E2070470E20D3E701
:109950000E20D1E701218DF8101000218DF8121092
:109960000733DB08013B8DF8193000238DF81830E0
:10997000A2E700BF302E00202C2E0020E836040085
:109980000010014000380400037B012B01D00020AF
:10999000704770B58EB004460D46394B1B6813F402
:1099A000007F03D0374B1B68032B47DC02AE0B2232
:1099B0000021304619F088F9E3889DF8092002F06B
:1099C000030242EA83028DF809202A0E8DF80A204C
:1099D0002A0C8DF80B202A0A8DF80C208DF80D50DA
:1099E0006278022A14BF00220122C3F3861343EADD
:1099F000C2138DF808300623079301238DF8243015
:109A0000A38AADF8263000230A938DF81430069609
:109A1000226A0B928DF82030E389ADF82230E36A98
:109A20000D93A37D0BB1184B5B7D8DF830306FF03B
:109A3000010105A8FFF724FF0EB070BD2F211348C8
:109A400019F001F978B12F21104819F0FCF8411CE8
:109A50000F4BD3F804350F4A009240F262220420E3
:109A600004F036FDA2E75C21084819F0ECF828B1B3
:109A70005C21064819F0E7F8411CE9E70349E7E7EC
:109A8000302E00202C2E002044350020E836040023
:109A9000001001402C38040090F84830022B00D010
:109AA000704710B5044690F86830022B00D010BD06
:109AB000C16CFFF769FF0028F9D1002384F86830F2
:109AC000F5E70000F0B583B0164C04F5E07500260C
:109AD00005E03846FFF7F4F87034AC420FD0274663
:109AE00094F84830012BF7D1019601A92046FFF7E1
:109AF0005FF80428EDD0019B002BEDD0E9E7094C7D
:109B00002046FFF7C9FF04F17000FFF7C5FF04F11D
:109B1000E000FFF7C1FF04F5A870FFF7BDFF0120CB
:109B200003B0F0BD5C35002010B50C4691F848300C
:109B3000022B06D1022384F868302046FFF7ACFFE1
:109B400010BD7846FEF724FAF4E700002DE9F0474F
:109B50009CB0002800F02682884614461F46054621
:109B6000002A00F02182002900F0A080182221465E
:109B700013A819F080F800238DF841302A7895F960
:109B80000030D90F8DF84010002BB4BF0421012103
:109B90008845C0F08B809DF8570048B102F07F02E5
:109BA0008DF8432000228DF84220934227DA11E0FD
:109BB000C2F380108DF8430002F03F028DF844207C
:109BC000002B6DDA95F90130002BB4BF0823042374
:109BD0008DF84230AB786A78920102F4FE5242EA84
:109BE0009302ADF84620EA78DB0003F0180343EA5D
:109BF00052138DF8483002F01F028DF849200023DF
:109C000019933B78032B56D83A78B94B53F8223046
:109C10001B9310A8FFF774F80646002847D10822C6
:109C200000210EA819F050F80EA960880EF0E2FB92
:109C300028B19DF8413043F001038DF8413022698D
:109C4000E168208905F022FE002838D09DF84130D7
:109C500003F0FE038DF841304BB313F0010F1CBF2E
:109C60000F9B14939DF84030002B00F09381169BBE
:109C7000179A110A1006C3F30C02BDF84640A2421F
:109C800038BFA3F5005323449B1AC01841F10001CB
:109C9000BDF854E0974B03F1080403F1880C16E07B
:109CA00004238DF8423019448845A8D2092630464D
:109CB0001CB0BDE8F0877846FEF76AF9A4E79DF886
:109CC0004130002BF3D0C8E7103464450AD034F893
:109CD000083C7345F8D1D4E90023994208BF90426B
:109CE000F2D1E4E7844BB44605E00CF1010C70338B
:109CF000BCF1040F69D093F84820022AF5D19A8A62
:109D00007245F2D1DFF8F0A1CCEBCC040AEB0414DD
:109D1000D4F818E0D4F81C904FEA19234FEA0962EE
:109D2000CEF30C09B4F806C0E14503D3E644AEEB2C
:109D3000090904E0AEF5005EE644AEEB090912EB5A
:109D4000090243F100038B4208BF824239D3994292
:109D500008BF9042ABD3694B1B6813F0040F40F06F
:109D6000988094F84830022B40F0BD80644BD3F8C3
:109D7000009002F087FB09EB000104F1300002F0D3
:109D80005BFB237B012B00F0C780E26C9DF8481041
:109D900001238B4012EA030989D11343E364A8F13C
:109DA00004089DF85730002B40F0008101EB410E74
:109DB0004FEA8E0E7346627A8A4200F0CD800C2301
:109DC000FAE005212046FFF7DBF9BDF84630179A87
:109DD0001699BDF8540005F091FD68B99DF8494009
:109DE00001349DF85730002B40F00A8104EB440405
:109DF000A4004FF4C07306E1BDF84630179A1699D7
:109E0000BDF8540005F0E4FD00283FF450AF9DF884
:109E1000403063B19DF84930013301219940013947
:109E200010A8FFF7B1FD10A8FEF79FFF3FE77846A7
:109E3000FEF7AEF8EEE7314B1B6813F0040F3FF46A
:109E400036AF304B1B68002B7FF731AF2F212E48E8
:109E500018F0F9FE80B12F212B4818F0F4FE411CB8
:109E60002A4BD3F804350194294A00924FF45C72CE
:109E7000012004F02DFB1AE75C21234818F0E3FED3
:109E800028B15C21204818F0DEFE411CE8E71E499D
:109E9000E6E71C4B1B68032B7FF763AF2F211A48A3
:109EA00018F0D1FE90B12F21174818F0CCFE411CBC
:109EB000164BD3F804359DF848200192154A0092BC
:109EC0004FF46572042004F003FB4AE75C210E485E
:109ED00018F0B9FE28B15C210B4818F0B4FE411C03
:109EE000E6E70949E4E77846FEF752F83EE700BFA7
:109EF00060380400B03400205C350020302E002093
:109F0000443500202C2E0020E836040000100140CB
:109F10003C3804005038040094F86830002B7FF47B
:109F200034AF94F84830022B12D1464B93F8159079
:109F30009A685B6802FB093902F0A4FA09EB000198
:109F400004F1500002F078FA012384F868301CE72D
:109F50007846FEF71DF8E8E74344A4F84A302DE0C0
:109F600004212046FFF70CF94E46A0E67846FEF79E
:109F70000FF83CE0E16C2046FFF706FD3B46224629
:109F8000B4F84A10E06EFFF7A7F92046FFF7C2F8D1
:109F90004E468CE63B4610AA08F1FF31681CFFF7DD
:109FA0009BF984E60E2682E60E2680E6CB009E46CE
:109FB000627A8A42D0D008239845D1D1A269169BF3
:109FC0009A420AD204F10C060DF14C0CBCE80F00C9
:109FD0000FC69CE8030086E80300E06E4246291D98
:109FE000704418F048FEE56C2378002BBED0637AED
:109FF0005A1C01239340013B9D42BBD04E4656E67E
:10A00000E4004FF48073A342FFF415AF224602210F
:10A0100010A8FEF7DBFE044600287FF49CAE00216A
:10A0200010A8FFF7B1FC2C22002103A818F04CFE69
:10A0300010238DF80C3002238DF8143003A800F0A3
:10A0400041F834E6443500202DE9F04108B30E46CE
:10A0500005461A4BD3F80080B8F1000F1CD189B126
:10A060004446071D57F83430DBB115F8340015F9B4
:10A070003430002B18DBD0B1FEF712FDD0B901341B
:10A08000A642EFD10E4B1D605E600C4B01221A60A0
:10A0900004E04FF00E0801E04FF004084046BDE830
:10A0A000F0814FF00E08F9E74FF00B08F6E74FF09C
:10A0B0000F08F3E74FF00F08F0E700BF343500203A
:10A0C0003835002038B5054630B1164B1C68ACB1A8
:10A0D000154B01221A7005E07846FDF759FFF4E7A9
:10A0E00024683CB12379002BFAD154F8043C28466B
:10A0F0009847F5E70C4B1B78022B00D038BD094B75
:10A100001C685CB11D4600E044B1214624680B790F
:10A11000002BF9D0284604F049F9F5E7024B00225C
:10A120001A70EBE7203700201C37002010B50446DA
:10A1300030B100232372211D034804F009F910BD3A
:10A140007846FDF725FFF4E72037002010B50446D8
:10A1500058B10A4B1B78013BDBB2012B09D8074BE6
:10A1600002221A700123237210BD7846FDF710FFFA
:10A17000EFE7211D024804F019F9F5E71C3700202C
:10A18000203700200B888268D25A073222F003025F
:10A1900013449BB20288043A934288BF00230B8089
:10A1A000704710B582B004468368C91AADF806102E
:10A1B0000DF10601FFF7E6FFBDF80630A068184470
:10A1C00002B010BD70B5054614460E4669B180B1A7
:10A1D000B6F1005F11D94FF08053D3F80C3103F57D
:10A1E0000023B6EB832F0BD216E07846FDF7D0FEA6
:10A1F0007DB97846FDF7CCFEEAE7B6F5000F08D941
:10A200004FF08053D3F80C3103F50053B6EB832F96
:10A2100002D37846FDF7BCFE631E3344B3F1005F02
:10A2200009D94FF08052D2F80C2102F50022B3EB8D
:10A23000822F03D20EE0B3F5000F08D94FF0805201
:10A24000D2F80C2102F50052B3EB822F02D37846EC
:10A25000FDF79EFE042C08D92C8000236B80AB8078
:10A26000AE60043C3480B37070BD7846FDF790FE5C
:10A27000F2E738B50446A8B16288A36813449B7816
:10A28000012B13D0EFF3108572B6A368A18819448F
:10A290008A78032A0ED000229A706280A28005B9C3
:10A2A00062B638BD7846FDF773FEE5E77846FDF700
:10A2B0006FFEE7E72046FFF774FFA368C31A6380C9
:10A2C00000238370EBE7F8B50E461546044638B315
:10A2D00056B36288A36813449B78012B28D0002DC5
:10A2E00049D02388043B9BB29D4246D8EFF31087A8
:10A2F00072B6EB1D23F003039BB26188A2889142E2
:10A300001CD2521A934217DC6288A1688B188D52B6
:10A3100001229A7033600020002F2FD162B62DE009
:10A320007846FDF735FED3E77846FDF731FED0E7F6
:10A330007846FDF72DFED2E70420EDE791420ED9D5
:10A340002088401A9842DFD2934212D8032803D9BA
:10A35000A2680A440423937000236380D4E7A368AF
:10A360001A4492780AB10420D6E79A706280A280DB
:10A37000CAE70420D0E7092000E00920F8BDF8B5BD
:10A380000C4615460646E0B1FCB1A378012B20D15E
:10A390002388AB4221D325B3EFF3108772B6258013
:10A3A0000223A370F1183046FFF7ECFE7388B288E1
:10A3B0009A4203D0B268134400229A7007B962B679
:10A3C000F8BD7846FDF7E4FDDEE77846FDF7E0FDF1
:10A3D000DBE77846FDF7DCFDDAE77846FDF7D8FDE8
:10A3E000D9E77846FDF7D4FDD6E770B50C460546AB
:10A3F00090B1ACB1EFF3108672B6AA88AB68134483
:10A400009A78042A10D09A78022A15D0032A18D0F4
:10A41000052006B962B670BD7846FDF7B9FDE8E7DC
:10A420007846FDF7B5FDE5E7291D2846FFF7AAFEAA
:10A43000AA88AB681344E6E703229A7023600020E1
:10A44000E7E77846FDF7A4FD0020E2E738B50446CB
:10A4500080B1EFF3108572B6A088A16801448B78B3
:10A46000042B0BD08878022814BF0020012005B9E6
:10A4700062B638BD7846FDF78BFDEAE72046FFF768
:10A4800090FE0146EEE738B50546D0B1EFF31084F3
:10A4900072B6A888A96801448878C31EDBB2012B74
:10A4A00008D82846FFF77DFE01468078C31EDBB240
:10A4B000012BF6D9022814BF0020012004B962B68E
:10A4C00038BD7846FDF764FDE0E770B50C460546FB
:10A4D000F8B114B3EFF3108672B6A378012B20D035
:10A4E000032B2BD1AA88AB6813449C4202D0784638
:10A4F000FDF74EFD0023A370291D2846FFF742FEFD
:10A50000AA88AB6813449B78042B14D10023AB803A
:10A5100011E07846FDF73CFDDBE77846FDF738FDB6
:10A52000D8E76A88AB6813449C4202D07846FDF7AE
:10A530002FFD0023A37006B962B670BD7846FDF703
:10A5400027FDF8E710B5EFF3108472B683888168B1
:10A5500019448B78042B06D08878B0FA80F0400933
:10A5600004B962B610BDFFF71CFE0146F4E7000017
:10A5700010B5054884681C22002118F0A5FB204670
:10A5800004F0F2FE10BD00BF2437002000B585B0F6
:10A59000094BDB6802228DF8002001934FF48053B1
:10A5A0000293064A6946012001F03EFAB0FA80F0B3
:10A5B000400905B05DF804FB243700204037002037
:10A5C00000B585B0094B1B6802228DF8002001936D
:10A5D0004FF480530293064A6946012001F024FAA1
:10A5E000B0FA80F0400905B05DF804FB4437002064
:10A5F00040370020154BDA68137951795B1A03F55F
:10A600007F2303F6FF731B0305D002F580520F4B27
:10A61000DA600320704700B585B00D4B1B68012040
:10A620008DF8000001930B4B0393042302930A4A15
:10A63000694601F0F9F918B1002005B05DF804FB96
:10A64000024B01221A760220F7E700BF24370020D0
:10A6500044370020483700204037002000B585B03F
:10A660000C4BDA680C4B1B68043301208DF800009A
:10A670000192039340F6FC730293084A694601F085
:10A68000D3F928B90120034B187605B05DF804FB17
:10A690000020FAE72437002044370020403700200C
:10A6A00000B585B0094B1B6801208DF800000193AF
:10A6B000074B039304230293064A694601F0B4F959
:10A6C000B0FA80F0400905B05DF804FB4437002083
:10A6D000303700204037002010B584B0104BDA68C6
:10A6E0001478104B1B68043301208DF8000001938F
:10A6F000039202940C4A694601F096F970B9084A2F
:10A7000004F0FC040434074B1B681C445461D368F8
:10A7100019780B441361012004B010BD0020FBE741
:10A7200024370020443700204037002070B51F4BED
:10A73000DB6853B11D4B1B7E5BB91C4B5B68092B5F
:10A740000BD81B4D194C002617E07846FDF720FC6E
:10A75000F0E77846FDF71CFCEFE77846FDF718FCBC
:10A76000EFE7636801336360092B04D97846FDF78E
:10A770000FFC00E06660237E6BB9636855F82330F8
:10A780009847022808D00328F4D00128E9D000F027
:10A79000FD000128EFD070BD044B1B7E1BB1034BA5
:10A7A00002221A70F7E7FFF7E3FEF4E724370020F0
:10A7B000E038040008B50B78032B04D00C4B1B7851
:10A7C000012B0ED008BD0A4B00221A761B78012BF4
:10A7D0000BD0022BF6D10B78032BF3D1FFF7C8FE79
:10A7E000F0E7034B1B7E002BECD1FFF79FFFE9E75F
:10A7F0002437002000B585B0184BDB6818784FF679
:10A80000FF7203F58051184405F035FAE8B10246AD
:10A81000124BDB6819780B44984218D00F4B587EC6
:10A820000F4B1049002808BF0B4601208DF800008F
:10A8300001920393042302930B4A694601F0F4F852
:10A8400038B90120054B187604E0012002E0012010
:10A8500000E0002005B05DF804FB00BF24370020B5
:10A86000083B0400043B04004037002008B50F4BB0
:10A87000DB681878002203F58051184405F0FBF9D5
:10A8800008B1012008BD094BDA68137951795B1AC8
:10A8900003F57F2303F6FF731B0305D002F58052F7
:10A8A000024BDA600320EDE70220EBE724370020BB
:10A8B0002DE9F04F85B0534BDE68717933795A1E1C
:10A8C000914215D006F58052157815444E4A12680B
:10A8D00012F8048F90445B1A06EB03366B88013B39
:10A8E0009BB247F6FE6293422ED92C46174618E0DB
:10A8F0000120444B58767EE07846FDF749FB13E093
:10A9000024F47F6424F00F0404F5805423781C445D
:10A91000A64265D9A54265D26388013B9BB2BB4282
:10A9200011D92388002BE7D0238804EB830323F479
:10A930007F6222F00F029342E2D06288B2F5FE4FAE
:10A94000DED01C46E4E72546DFF8BC90DFF8B4B063
:10A95000DFF8BCA027E07846FDF71AFB13E024F4EB
:10A960007F6424F00F0404F5805423781C44A6422D
:10A970003AD9A54242D26388013B9BB2BB4211D96E
:10A980002388002BE7D0238804EB830323F47F6222
:10A9900022F00F029342E2D06288B2F5FE4FDED081
:10A9A0001C46E4E72546D9F800106A8801F5805175
:10A9B000404605F060F98046B8B101208BF81800D8
:10A9C0008DF800000195CDF80CA0042302930F4AE6
:10A9D000694601F029F898B92C4647F6FE67CFE79B
:10A9E000002502E0002500E00025B5FA85F56D0997
:10A9F000044B5D76012005B0BDE8F08F0025F4E73B
:10AA00000020F8E72437002044370020403700209A
:10AA1000003B04002DE9F04F87B0754B1B693BB13B
:10AA2000734B5B6943B1DFF8C89147F6FE6AC5E036
:10AA30007846FDF7ADFAF3E77846FDF7A9FAF2E7B5
:10AA40007846FDF7A5FA15E025F47F6525F00F059A
:10AA500005F580552B781D44AF4240F28880AC420A
:10AA600080F085806B88013B9BB2534511D92B88C0
:10AA7000002BE5D02B8805EB830323F47F6222F0C3
:10AA80000F029342E0D06A88B2F5FE4FDCD01D463B
:10AA9000E2E72C4605E0BC4228BF012380F0858018
:10AAA00025464FF0000819E07846FDF771FA238833
:10AAB00004EB830323F47F6222F00F02934203D05E
:10AAC0006288B2F5FE4F28D12BF47F6424F00F0486
:10AAD00004F5805423781C44A74220D92288910091
:10AAE000CDF8048008EB8208464539D9A34685EAAB
:10AAF000040323F47F6323F00F038BBB6388013BC4
:10AB00009BB253452CD8002ACED00C4424F47F634A
:10AB100023F00F039C42DFD1D6E71C46DCE7B8F1F7
:10AB2000000F01D1012340E0D9F8143001208DF845
:10AB3000080003930595CDF810802E4A02A900F075
:10AB400073FF48B9D9F814304344C9F814304CBBEA
:10AB50007846FDF71DFA25E0002009E0012007E016
:10AB6000019B53B9628847F6FF739A4203D10120D3
:10AB700007B0BDE8F08F0120FAE7D9F814300120C2
:10AB80008DF8080003930595019B0493194A02A9C7
:10AB900000F04AFF0028DFD1D9F81430019A13449D
:10ABA000C9F81430C9F810400023002CDFD06188A8
:10ABB00047F6FF729142DAD0002BCFD1D9F814308A
:10ABC00023F47F6626F00F06F61A06F58056D9F8AC
:10ABD0001040D9F80C703B797A799B1A07EB033750
:10ABE0006388013B9BB253457FF655AF25463EE750
:10ABF000243700204037002000B585B040F6F873B8
:10AC00001B68B3F1FF3F23D0002B2FD14FF08052B0
:10AC10005169136903FB01F3A3F580533C4A1360A8
:10AC20003C4B1B6813F4801F03D03B4B1B68062B67
:10AC30001FDC374B1B681A68531E13F1030F65D8CE
:10AC4000C2F30B03002B42D0002005B05DF804FBDB
:10AC5000324B1B68B3F1FF3FD8D0304B1B68002B41
:10AC6000D4D02E4B1B68A3F58053D5E7A3F58053B2
:10AC7000D2E72F212A4817F0E6FFD8B12F21284824
:10AC800017F0E1FF411C274BD3F8043540F6F8726A
:10AC90001268B2F1FF3F04BF204A12681C480068E6
:10ACA00002900192204A009240F26722072003F0AE
:10ACB0000FFCBEE75C211A4817F0C5FF28B15C21E4
:10ACC000174817F0C0FF411CDDE71549DBE71749BE
:10ACD000CA6000220A764A76012008708A60144A07
:10ACE000144801330A2B06D052F8041F8142F8D1D0
:10ACF0000E4A536002E07846FDF74AF90E490120FA
:10AD000000F080FEFFF712FD01209EE700209CE787
:10AD100044370020302E00202C2E0020141000106C
:10AD20007038040000100140AC38040024370020C3
:10AD3000E03804008DA50200B5A7020010B5044656
:10AD4000B8B1104B1B78C3B10E4BD868E368597982
:10AD5000A3EB0132904212D31A79521A02F57F22E4
:10AD600002F6FF7203EB023398428CBF00200120F1
:10AD700004E07846FDF70CF9E3E7002010BD002061
:10AD8000FCE700BF24370020024B1878003818BFBA
:10AD9000012070472437002010B504460E4B1B7865
:10ADA00093B92378032B13D10B4B9C60E268DA60D4
:10ADB00000225A601A76012018705A76074900F06E
:10ADC00021FEFFF7B3FC10BD7846FDF7E1F8E8E798
:10ADD0007846FDF7DDF8E7E724370020B5A7020045
:10ADE000014B1868704700BF4437002010B5044677
:10ADF00080B163681BB123680BB1A36813B97846AF
:10AE0000FDF7C6F8A3685A1E1A4207D10023E36073
:10AE1000236110BD7846FDF7BBF8EAE77846FDF7F9
:10AE2000B7F8F3E770B500B30B4604468268F2B199
:10AE3000EFF3108572B60669C268964211D049B127
:10AE40004268806801383040216802FB00111846D2
:10AE500017F011FF23690133236165B962B62846F3
:10AE600070BD35B962B60525F9E70E25F7E7092566
:10AE7000F5E70525F3E70025F1E7000030B40446C7
:10AE8000C0F30B0038BB41B301F6FF710D0B144B3F
:10AE90000222C3F804251A46D2F80034002BFBD056
:10AEA000B1F5805F0CD301460D4AC2F80845D2F8CF
:10AEB0000034002BFBD004F5805401318D42F4D8CE
:10AEC000074B0022C3F804251A46D2F80034002BA1
:10AED000FBD030BC70471020FBE70920F9E700BF2A
:10AEE00000E0014040EA010313F0030F2FD170B4DA
:10AEF000054672B312F003002DD19608174B0124BA
:10AF0000C3F804451C46D4F80034002BFBD0032AB8
:10AF100012D90C1F0146114A02E00131B1420BD097
:10AF200054F8043FB3F1FF3FF7D045F82130D2F891
:10AF30000034002BFBD0F0E7084B0022C3F80425B7
:10AF40001A46D2F80034002BFBD070BC704710209A
:10AF500070470920F9E70920F7E700BF00E001404A
:10AF600082B00B68074A136007490B7843F001036E
:10AF70000B7083F00203C3F340031371002002B08F
:10AF8000704700BFD0370020E037002082B00A6849
:10AF9000074B1A600A791A71002058719871D8719C
:10AFA000044A137843F00203137002B0704700BFE5
:10AFB000C8370020E0370020094B1B7813F0040F3E
:10AFC00002D00378122B00D07047064B1A68064B4C
:10AFD0005A60034B1A786FF382021A70F4E700BFCD
:10AFE000E0370020D03700207C37002000B583B048
:10AFF000019005220021034817F066FE03B05DF8BA
:10B0000004FB00BFD037002000B583B001900822B8
:10B010000021034817F058FE03B05DF804FB00BFA1
:10B02000C837002000B583B00190084605220349C7
:10B0300017F021FE03B05DF804FB00BFD0370020FD
:10B0400000B583B001900522054817F014FE054AAB
:10B05000137843F001031370002003B05DF804FB84
:10B06000D0370020E037002000B583B001900846BB
:10B070000822034917F0FFFD03B05DF804FB00BF91
:10B08000C837002000B583B001900822054817F0AA
:10B09000F2FD054A137843F002031370002003B059
:10B0A0005DF804FBC8370020E0370020154B1B7803
:10B0B00013F0040F25D100B585B0134B5B6803F581
:10B0C00000530193B3F1807F02D905B05DF804FB12
:10B0D0000E4B1B788DF808300A4A137843F00403AE
:10B0E00013700023ADF80C300323ADF80E3001A926
:10B0F000039805F03BFE0028E7D07846FCF748FFB0
:10B10000E3E77047E03700207C370020E13700207C
:10B1100000B585B00022ADF809200F4B9968019168
:10B120001B7B8DF808300D490B780133DBB20B70B7
:10B130008DF80B30ADF80C200423ADF80E300DEB7C
:10B140000301039805F012FE10B905B05DF804FB89
:10B150007846FCF71DFFF8E77C370020E137002038
:10B1600000B58DB00A4B1B7B012B094A926808BFC2
:10B1700002F1FF3204928DF80830039002238DF81B
:10B18000043001A8FEF79EFF0DB05DF804FB00BF80
:10B190007C37002010B582B00024ADF800400323B6
:10B1A000ADF80230009805F03CFEADF804400423F1
:10B1B000ADF80630019805F034FE14222146064809
:10B1C00017F082FD054B1A7864F345121A70FFF7E9
:10B1D0006DFF02B010BD00BF7C370020E0370020BB
:10B1E00010B50C4C14220021204617F06DFD01F023
:10B1F00049F9094B5860094A9A60094ADA60002205
:10B200001A615A61074B197862F3C30119706260C1
:10B2100010BD00BF7C37002058370020E9B3020082
:10B2200000879303E03700202E4B1B7813F0100F9C
:10B2300000D0704710B582B02B482C4B036000F053
:10B2400069FE2B482B4B036000F064FE254B1B78F6
:10B2500013F0200F26D103F00303032B15D1264A48
:10B26000264B19689160187910735968C1F30F2142
:10B270001182DB79224A1370224A12799A422CD029
:10B2800058BB1D4B00221A6007E01B4B00221A60BE
:10B290009A601A731A82FFF73BFF174B1A685A60BD
:10B2A000FFF704FF0024ADF804400123ADF8063099
:10B2B000019805F0B6FDADF800400223ADF802306C
:10B2C000009805F0AEFD104801F082F8054A1378A9
:10B2D00043F01003137002B010BD0A4B1A68064BFE
:10B2E0001A60DAE7E037002070370020CDB40200A2
:10B2F000BC370020B9AF02007C370020C8370020DF
:10B30000E1370020D03700205837002010B501F079
:10B310005FFE144B1B7BEBB9124B9B7BFBB9114BB4
:10B320001A8A41F282639A4206D80F4B1B7813F0B7
:10B33000080F08BF08240ED00A4B01221A730024FC
:10B340001C829A6801329A60FFF7E2FE2046FFF7FE
:10B3500007FF00E0082401F07FFE204610BD08240E
:10B36000F9E700BF7C370020E037002010B501F07E
:10B370002FFE1B4B5C7B64B39B7B4BBB184A118A33
:10B3800041F28262914204D8164A127812F0080FF4
:10B3900023D0134B00225A731B7B2BB1012B0AD0F5
:10B3A0007846FCF7F5FD14E0FFF7B0FF88B178466A
:10B3B000FCF7EEFD0DE00A4B002018605860187392
:10B3C0001882FFF7CDFEFFF7A3FEFFF76FFE00E048
:10B3D000002401F041FE204610BD1C46F9E700BFE5
:10B3E0007C370020E037002000B585B0334B1B7B55
:10B3F000E3B1012B28D07846FCF7CAFD2F4B1A8AFF
:10B40000013292B21A822E4BA3FB02131B09C3EB2B
:10B410000313A2EB43039BB213B3284B5B8A13B114
:10B42000013B264A538205B05DF804FB234B1A8A80
:10B4300041F282639A4204D8224B1B7813F0080F22
:10B44000DCD0FFF793FFE8E71C4B1B8A41F28262D6
:10B45000934222D81B4B1B7813F0080FCED023E069
:10B46000164B996801911B7B8DF80830ADF80920C7
:10B47000154B1B788DF80B300023ADF80C300423EE
:10B48000ADF80E300DEB0301039805F06FFC0028BA
:10B49000C3D07846FCF77CFDBFE742F2B01293427E
:10B4A00002D9064B01225A73FFF760FF0028B4D17E
:10B4B000024B5B7B002BB0D1A0E700BF7C370020A4
:10B4C00089888888E0370020E13700200378042B42
:10B4D00000D0704743681B78002BFAD010B5426942
:10B4E000017E264B1B7B002B38D1244B5B8A43BB50
:10B4F000012920D0214B9B689A4231D91F4B9B6870
:10B500002A339A422CD81D4B9B7B4BBB84681B4B28
:10B510009A6000221A605A601A8242F606515982D5
:10B520005A731A73FFF7F4FDFFF7C0FD04F1100022
:10B53000FFF716FE14E0114B9B6801339A4202D9C3
:10B54000DCE701290CD10D4B9B6801339A4207D1EE
:10B550000A4B01225A73FFF709FF01E0012B00D0CB
:10B5600010BD0129FCD0054B9B689A42F8D1034BD2
:10B5700001225A73FFF7FAFEF2E700BF7C37002082
:10B5800010B5184B1A685B689A4225D20446154BD1
:10B59000187B154B1549012808BF0B469A4210D25B
:10B5A000104A5368403B12689A4212D2EFF310805F
:10B5B00072B60C4A1368591C1160236080B962B6D8
:10B5C0000FE0084B01225A73FFF7D0FE0028EDD19F
:10B5D000E6E7FFF76BFDE9E7FFF768FD0F2000E006
:10B5E000002010BD7C370020FFFF7F0000E0FF003F
:10B5F00008B538B10D4B01229A730D4A1368013317
:10B60000136008BD0A4B1B685BB1094A1368013B14
:10B610001360002BF5D1054B00229A73FFF7A6FEAD
:10B62000EFE77846FCF7B4FCEFE700BF7C3700207B
:10B630004C37002000B58DB0ADF808008DF8102013
:10B64000039103238DF8043001A8FEF73BFD0DB0F4
:10B650005DF804FB014B9868704700BF7C37002001
:10B66000044B1B7B012B034B986808BF00F1FF3094
:10B67000704700BF7C370020044B9B68584010F097
:10B68000010F18BF03F1FF33184670477C370020C5
:10B69000014B187B704700BF7C37002038B50D4B3D
:10B6A0001B7813F0200F01D0082038BD094A43F061
:10B6B00020031370084DA860297300242C82FFF723
:10B6C00027FD2046FFF74CFD2C606C60FFF7EEFC79
:10B6D0002046EAE7E03700207C3700202DE9F84FCC
:10B6E000DFF88C904FF000080226C246DFF884B0E5
:10B6F00020E034F80C3C013324F80C3C3146204661
:10B7000002F09EFC01353146204602F06AFC0146FB
:10B7100040B154F8043C002BEBD034F80C2C3846E4
:10B720009847E6E795B908F1010809F1BC09B8F1B5
:10B73000030F1AD05FFA88F74C463146484602F0AC
:10B7400050FC01460028EED00025E2E75146204695
:10B7500002F0D7FC0828E6D154F8043C002BE2D0D4
:10B760005246594638469847DDE70120BDE8F88F34
:10B77000F83700201839040038B5044601210C3090
:10B7800002F02FFC054638B3194BC4F89C30002357
:10B79000C4F8A03061680278012A07D0022A1DD0BF
:10B7A0007846FCF7F5FB4FF4FA730AE083685A1AFF
:10B7B00022F0030303EB9203DB0003EB920303F598
:10B7C000FA730C4A934228BF1346C4F8A830C4F851
:10B7D000AC40012384F8B830284638BD83685B1A32
:10B7E0001A0B054B03FB02F303F5FA73E9E700BFFD
:10B7F0001DB8020060850100084C010010B5044628
:10B80000FFF7BAFF20B104F19C000DF0F5FB00B981
:10B8100010BD7846FCF7BCFBFAE700002DE9F04FBD
:10B8200083B00D46514B1B789BB90646D1F8A870E2
:10B8300001F10C0301930121184602F0D2FB0446EA
:10B8400078B1A7F5FA780027DFF82CA1DFF82C9162
:10B850007AE00DF00DFC002385F8B83003B0BDE8A8
:10B86000F08F7846FCF794FBEBE7D5F804B0AAFB21
:10B8700007377F09BB00A768A7EB0B079F4228BFCC
:10B880001F46FFB12BF0030BE16860683A4659444C
:10B890005844FFF727FBC8B96B681F446F60A26864
:10B8A0006B68934238D001F07BFA871B48BF371A88
:10B8B0002378012B42D0022B42D07846FCF768FB5C
:10B8C00000233EE07846FCF763FBDBE77846FCF7B5
:10B8D0005FFBE1E7D5F804B0A9FB07373F0C3B035A
:10B8E000A768A7EB0B079F4228BF1F4667B12BF045
:10B8F000030B606839465844FFF7C0FA40B96B68DB
:10B900001F446F60A268CBE77846FCF741FBEEE787
:10B910007846FCF73DFBF2E70DF0AAFB0121019808
:10B9200002F08EFB00236B6085F8B830104B18686E
:10B9300001F0E6FB2846FFF761FF8FE7292300E0CF
:10B940000C4B3B4443450BD8A8EB07072378012B4E
:10B950008BD0022BBED07846FCF71AFB00229FE763
:10B960000DF086FB2846FFF749FF77E7E837002010
:10B97000E4370020084C01007D0CCEC7EB0661C502
:10B98000F8B51D4801F09CFB1C4B18601C4C0827A7
:10B99000A7731026667304F11C03636103252573E6
:10B9A00004F11803236104F10C0002F083FB84F816
:10B9B000CA7084F8C96004F1D803C4F8D03084F8A0
:10B9C000C85004F1D403C4F8CC3004F1C80002F02C
:10B9D00071FB84F8867184F8856104F5CA73C4F834
:10B9E0008C3184F8845104F5C873C4F8883104F5A7
:10B9F000C27002F05FFBF8BDDDB60200E437002044
:10BA0000EC37002038B504460D46022805D8054815
:10BA1000BC2303FB0404A56038BD7846FCF7B8FAE4
:10BA2000F5E700BFEC3700202DE9F04704460D464E
:10BA30009046022816D8CDB12B78012B1AD0022BB4
:10BA40003ED16B68C3F30B03002B31D1AB68C3F35A
:10BA50000B03002B30D1AB68002B34D17846FCF7B8
:10BA600097FA30E07846FCF793FAE4E77846FCF77B
:10BA70008FFAE1E76B6813F0030F0DD1EB6813F059
:10BA8000030F0DD1AB6813F0030F0DD1AB68D3B921
:10BA90007846FCF77DFA16E07846FCF779FAEDE790
:10BAA0007846FCF775FAEDE77846FCF771FAEDE7B2
:10BAB0007846FCF76DFAC9E77846FCF769FACAE7F9
:10BAC0007846FCF765FAEFF3108972B6BC2707FBDE
:10BAD00004F7254E3E440021304602F082FA8246A9
:10BAE000002837D00021304602F0AAFA1022294659
:10BAF000504617F0C0F8B8F1000F06D01B4ABC231F
:10BB000003FB04235B88A8F800301848BC2303FB20
:10BB1000040463880133638094F8B830E3B9144BAC
:10BB20001B780BB1002418E03844FFF725FEB9F16B
:10BB3000000F01D0002403E04C4600E0002062B674
:10BB400070B10C4838440DF057FA48B17846FCF70C
:10BB50001FFA05E0042400E00024B9F1000FEDD045
:10BB60002046BDE8F08700BFF8370020EC37002002
:10BB7000E83700208838002010B5EFF3108472B643
:10BB800018BB194B1B68A3B1174A1368013B13601C
:10BB9000FBB9164B93F8B8307BB1144B93F8743162
:10BBA0007BB1124B93F830329BB91148FFF726FE58
:10BBB0000FE07846FCF7ECF9E6E70C48FFF71EFECD
:10BBC000EBE70C48FFF71AFEEBE7074A136801336F
:10BBD0001360054B1B68003B18BF0123064A137016
:10BBE00004B962B610BD00BF203A0020EC37002037
:10BBF00064390020A8380020E837002018B1830BF2
:10BC0000024AD05C70470020704700BF283904000A
:10BC100012DF704710B582B001F04CFE48B1044607
:10BC2000164B1B6813F0400F03D0154B1B68012BFC
:10BC300001DC02B010BD2F21124817F004F878B1D2
:10BC40002F21104816F0FFFF411C0F4BD3F804358D
:10BC500001940E4A00926C22022002F039FCE8E7BF
:10BC60005C21084816F0EFFF28B15C21054816F06A
:10BC7000EAFF411CE9E70349E7E700BF302E002057
:10BC80002C2E00202C390400001001405C390400E7
:10BC900070B58AB00DF020FF48B3064600238DF83A
:10BCA000103005AC05460FCD0FC42B682360727DA4
:10BCB000052A04D9337D03F00F03072B1ED1174B40
:10BCC0001A688AB104AB0393337DC3F303038DF881
:10BCD0000430737D062B1BD9063B8DF8053006F129
:10BCE0001D03029301A8904730460DF0D5FE0DF0DC
:10BCF0000FFF80F00100C0B20AB070BD307D04AB10
:10BD0000063A06F11D0100F00F000CF089FCD6E7A1
:10BD100000238DF805300293E4E700BF283A0020A5
:10BD20000B4B1B78032B00D0704700B58DB0084B30
:10BD300004221A702C22002101A816F0C5FF1C2332
:10BD40008DF8043001A8FEF7BDF90DB05DF804FBD5
:10BD5000243A002070B582B02E4B1B78002B4FD1B7
:10BD60000446002850D0067A0F2E01D0062E4DD161
:10BD700005F05EFEE06870B1FCF7C0FD0DF1070054
:10BD8000FFF746FF054600283BD19DF80730012B01
:10BD900004D0022535E0FCF7BBFDEFE7FCF7DAFD48
:10BDA00000F002FB304601F0C1F8E07800F034F911
:10BDB00000F0CEFE0DF0A8F817480DF05BFF0CF078
:10BDC000B5FD0CF0FBFBFFF7DBFD04F047FF00F0D7
:10BDD000D5FC05F0F5FD05F005FC204601F0B0FCB2
:10BDE000FDF796FC04F076FAFBF7A8FF08B10628E9
:10BDF0000ED10A4B00221A60064B01221A7000E095
:10BE00000825284602B070BD0E25FAE70725F8E799
:10BE10000546F6E7243A002091BC0200283A0020AB
:10BE200010B582B0274B1B78012B0DD0033BDBB242
:10BE3000012B44D80DF0D0F8044610B9214B022252
:10BE40001A70204602B010BD0DF004FE01F086FC11
:10BE5000FDF7A0FCFBF772FF044668B306282BD061
:10BE6000194B1B6813F4804FEBD0184B1B68012B48
:10BE7000E7DD2F21164816F0E6FE80B12F21144889
:10BE800016F0E1FE411C134BD3F804350194124A1D
:10BE900000924FF4AF72022002F01AFBD1E75C214E
:10BEA0000B4816F0D0FE28B15C21094816F0CBFEF5
:10BEB000411CE8E70649E6E701F064F8BAE7082420
:10BEC000BFE700BF243A0020302E00202C2E002097
:10BED0002C390400001001408839040008B5094BD2
:10BEE0001B78022B01D0082008BD064B03221A70D4
:10BEF00005480DF02BF80028F6D07846FCF748F8F6
:10BF00000020F1E7243A002021BD020008B5FDF72A
:10BF100045FC08BD08B5FEF709F908BD08B5FEF7F0
:10BF200015F908BD08B500F0D7FD002008BD08B51B
:10BF300006F0FEFE08BD0000074B1B680133B3F19D
:10BF4000704F04D0044A1360034B18687047024BCB
:10BF500001221A60F8E700BF2C3A002010B5044611
:10BF600018B100232360636010BD7846FCF710F819
:10BF7000F7E738B50C46054668B184B10023636025
:10BF8000EFF3108372B62A686AB16A6854606C6015
:10BF900003B962B638BD7846FBF7FAFFEDE778469D
:10BFA000FBF7F6FFEAE72C60F1E710B5044650B165
:10BFB000EFF3108272B6206848B14368236033B152
:10BFC00002B962B610BD7846FBF7E2FFF0E7002346
:10BFD0006360F5E710B5044608B1206810BD7846E7
:10BFE000FBF7D6FFF9E735DF7047000008B54FF0E3
:10BFF000FF30FFF7F8FFBFF34F8F0549CA6802F41F
:10C00000E062044B1343CB60BFF34F8F00BFFDE7EB
:10C0100000ED00E00400FA05072814D8DFE800F07E
:10C02000080C0415110F0A0696207047142070475B
:10C03000FA2070471E2070474FF4FA707047322084
:10C0400070474B207047FA2070476420704700000B
:10C05000024B5868103840B2704700BF00ED00E056
:10C0600003460028B8BF00F11F035B11074A52F8CE
:10C070002330424200F01F0002F01F0258BF50421E
:10C0800023FA00F000F00100704700BF00E100E07B
:10C0900046DF70472DE9F04790B00C4616469846AB
:10C0A00002F10F073F11102201460DEB020016F0BE
:10C0B000E2FD06F00F09BBB233B1B9F1000F12D1A6
:10C0C0004FF0010A554602E04FF0000A0225102207
:10C0D000002108A816F0F8FD04A8FFF7D9FF0121F8
:10C0E0000DF13F0212E04FF0000A0225EFE79DF844
:10C0F0003F305B00DBB2BCF1000FB8BF83F08703B9
:10C100008DF83F300131C9B28D420DD39DF930C059
:10C110000CAB187813F801EF400040EADE1003F88A
:10C12000010C9342F5D1E2E7BAF1000F1ED004EB07
:10C1300007100DF13F010DF10F03EC4611F8012935
:10C1400010F8015D6A401A70634503F1FF33F5D1C1
:10C15000102200210CA816F0B7FD102E3CD904F1D6
:10C16000100504EB07140DF11F0629E0791E4A465D
:10C1700004EB0111684616F07EFD10AB4B448022A3
:10C1800003F8402C09F101030F2B06DC6B4404A9D2
:10C19000002203F8012B8B42FBD104AB0DF13F01D0
:10C1A0006D4611F8012913F8010D42401A70AB4297
:10C1B000F7D1CDE704A8FFF76BFF1035AC420BD0E9
:10C1C0000DF12F0329461A7C11F8010D424003F8A6
:10C1D0000129B342F7D1EDE704A90DF12F026C4616
:10C1E00011F8013D107C434002F80139A142F7D11A
:10C1F00004A8FFF74DFF10220CA9404616F03BFDA6
:10C2000010B0BDE8F087000010B50446134B1B6862
:10C2100093B14168114B1B685B68CB1A002B0BDB99
:10C220000E4B1B6818465B691BB15A68521A002AEC
:10C23000F8DB6361446103E0084B1A6862611C60CB
:10C24000064A938801339BB2938013B10123237074
:10C2500010BD7846FBF79CFEF8E700BF343A00209B
:10C2600010B50446144B1B68834207D0124B1B6861
:10C27000D3B15A69A2420ED01346F9E743690E4A78
:10C28000136093889BB2591E89B2918063B9784636
:10C29000FBF77EFE08E062695A6107498B889BB212
:10C2A0005A1E92B28A8013B10023237010BD7846C3
:10C2B000FBF76EFEF8E700BF343A002008B5064BE6
:10C2C0001B6833B1044B1B680449586800F088F9B7
:10C2D00008BD00F0E3F9FBE7343A002099C30200FF
:10C2E0002DE9F04100F0CEF82A4B1B68002B49D015
:10C2F0000546284B1B685B681B1A642B42D5254EEC
:10C3000000274FF0020821E07846FBF741FE636901
:10C3100033606761B3889BB25A1E92B2B280DBB1C0
:10C32000A368EBB184F80080A36821692846984788
:10C3300000F0A8F805462378DBB2022B14D033684E
:10C3400003B333685B685B1B642B1BD534682378AD
:10C35000DBB2012BDBD0D7E77846FBF719FEDFE72E
:10C360007846FBF715FEDDE7E2680AB92770E6E7D5
:10C3700063681344591B6429FBD463602046FFF7AC
:10C3800043FFDCE700F07EF8FFF798FF0120BDE8EF
:10C39000F08100BF343A002008B5024B186800F065
:10C3A000AFFE08BD303A002008B50822002105483C
:10C3B00016F08AFC044800F083FE044B186000F07D
:10C3C00053F808BD343A0020E1C20200303A0020A0
:10C3D00010B5044600F084FF7CB1A3688BB12378CC
:10C3E000DBB2012B11D0002363612046FFF70CFF65
:10C3F00000F048F8FFF762FF10BD7846FBF7C8FD74
:10C40000EBE77846FBF7C4FDE9E77846FBF7C0FDAC
:10C41000E9E710B5044600F063FF4CB12046FFF792
:10C420001FFF0023636100F02DF8FFF747FF10BDE9
:10C430007846FBF7ADFDF1E738B504460D4600F050
:10C440004FFF6CB12046FFF70BFF0023636165606F
:10C450002046FFF7D9FE00F015F8FFF72FFF38BD93
:10C460007846FBF795FDEDE708B516F0ADFA00B19B
:10C4700008BD16F0C3F90028FAD07846FBF788FD0E
:10C48000F6E7000070B4EFF3108072B6184B1A682C
:10C49000184BD3F80415D3F80431012B22D000B97E
:10C4A00062B641EA02614A01CB0E521A63F10003FF
:10C4B000580240EAD2505602721840F10003980127
:10C4C00040EA92609601B41A60EB0305641845F1E6
:10C4D000000514F5804245F10000D20B42EA4040CD
:10C4E00070BC7047034BD3F804150132D7E700BF87
:10C4F0003C3A00200010014010B50A4B4FF40032C6
:10C50000C3F84823C3F80823074B1B682BB1064B1D
:10C510001C68FFF7B7FFA04710BD7846FBF738FD52
:10C52000F5E700BF00100140483A0020EFF310810A
:10C5300072B6264B0022C3F80421254A1368013342
:10C54000136001B962B6234B1B68002B3DD0214B11
:10C550001A68013A1A601B68002B36D103F1804338
:10C5600003F58833D3F804251B4B1B689A421ED26F
:10C57000EFF3108272B6154BD3F8043516490968EB
:10C5800001338B4210D3114BD3F8043502330F49DA
:10C59000C1F8443502B962B60C4B4FF40032C3F80F
:10C5A0004423C3F8042370470B4B1B68EFE710B517
:10C5B0000A4B1B682BB1094B1C68FFF763FFA047B0
:10C5C00010BD7846FBF7E4FCF5E77047001001402A
:10C5D0003C3A0020403A0020443A0020483A0020EB
:10C5E00030B583B00446002301930D46002937D0AF
:10C5F000244B1D60FFF746FF031B002BB4BF231A1B
:10C600000023590CD803204C204A002300194FF076
:10C61000000444EB010116F0DDF9EFF31083019300
:10C6200072B61B4BD3F80435022838BF0220C3F181
:10C63000FF1202F57F42824216D30344144AC2F825
:10C6400044354FF40033C2F84433C2F80433114A7E
:10C650001460114A1460019B03B962B603B030BD87
:10C660007846FBF795FCC3E703F17F4301330344AE
:10C670001A0E013207490A6023F07F43064A13600D
:10C68000E9E700BF483A002020A1070040420F0020
:10C6900000100140403A0020443A0020074B4FF47C
:10C6A0000032C3F84823C3F808230023044A136068
:10C6B000044A1360044A1360704700BF0010014031
:10C6C000403A0020443A0020483A002030DF7047CA
:10C6D00031DF704710B4034640681A68A2EB70124D
:10C6E0009C6880EAF4301860D9680C445C6011449E
:10C6F00099601044D8605DF8044B7047F0B583B082
:10C700000F460646E0B13D46C7B100240DF10700D3
:10C71000FFF7DCFF9DF80730002BF7D02A1B934270
:10C7200084BF3B1B8DF807309DF807103019FFF7C9
:10C73000CFFF9DF807301C44AC42E7D303B0F0BDF7
:10C740007846FBF725FCDEE730B583B005460023CD
:10C75000019304210DEB0100FFF7D0FF064B2B6086
:10C76000019B6B60AB60EB6014242846FFF7B2FFBF
:10C77000013CFAD103B030BDED5EEAF1704710B56F
:10C7800082B00324ADF804404FF48073ADF8063056
:10C79000019804F046FB4FF48173ADF80630019820
:10C7A00004F03FFB4FF48273ADF80630019804F0BB
:10C7B00038FBADF8044040F20113ADF806300198A3
:10C7C00004F02FFB40F20313ADF80630019804F09B
:10C7D00028FB40F20513ADF80630019804F021FB68
:10C7E000ADF804404FF48373ADF80630019804F0BF
:10C7F00018FB40F20713ADF80630019804F011FB66
:10C800004FF40073ADF80630019804F00AFB4FF4C2
:10C810000C73ADF80630019804F003FB4FF4047379
:10C82000ADF80630019804F0FCFA02B010BD48DF04
:10C83000704749DF70474ADF70470000074B03220B
:10C840001A74074A5A61186840F6D86143F2B06317
:10C85000884298BF0B46024A93607047783A00209E
:10C86000983A002038B50446002505740123437129
:10C870000F4A13680133136000F0F0FA0CF072FCF9
:10C880002368A3F178010B4A1268283203FB02F3F4
:10C89000094AA2FB0323094AA1EB9341284600F071
:10C8A00047FA00B938BD7846FBF772FBFAE700BFDC
:10C8B000AC3A0020943A002083DE1B433DC80200BE
:10C8C00010B50C4631B1C3680133C36003684269D7
:10C8D0001344036083680133836001220274416959
:10C8E00021FA02F24261012B0ED0022B22D04269C2
:10C8F0000368134417498B4203D840F6D7639A4222
:10C9000001D8FFF7AFFF10BDB2F5FA7F0DD041F6A9
:10C91000B1539942EBD840F6D8634361036803F6FC
:10C92000D8630C4A9342EED9EBE7002CEFD10023F9
:10C930004361E6E7C368022B06D0012BD7D1002C58
:10C94000D5D100234361DCE70268024B9B1A4361A7
:10C95000CDE700BF8096980010B5564B01221A71A2
:10C96000554B1B781BB1554B1B78002B4DD0514BB1
:10C9700000221A74042844D8DFE800F0033E3B3656
:10C9800031004C4B00229A60DA601A684C49896881
:10C9900019609B79FBB1474B01201874494B002A61
:10C9A00008BF1A46531AB3F57A7F04D3914202D8CE
:10C9B000404A536103E03F4B4FF47A725A61404B57
:10C9C00001225A7143F2B061996043F69821D9600F
:10C9D000384B9A713EE03748FFF744FFEFE70121FB
:10C9E0003448FFF76DFF35E000213248FFF768FF5C
:10C9F00030E00CF063FB2DE000F0F2F90CF098FB56
:10CA000028E07846FBF7C4FA24E000F0C9F9294B86
:10CA10001860294B1B78022B14D0032B09D0012B53
:10CA200003D07846FBF7B4FA11E0224B02221A74C5
:10CA30000DE0234B00225A71234999602349D960A4
:10CA40001C4B9A711B4B03221A741D4A5A611A4BD4
:10CA500000221A70174B1B7C023BDBB2012B08D95A
:10CA6000144B1B7C022B20D0124800230371103082
:10CA700010BD104B5B791BB9104B00221A70EFE709
:10CA80000CF08CFB0B4C2368A3F17800104A126861
:10CA9000283203FB02F30F4AA2FB0323A0EB9340CF
:10CAA00000F012FA00236371E6E7024B01221A76C6
:10CAB000DAE700BF783A0020A93A0020A83A00201F
:10CAC000983A002080969800A0860100FF1FA107D9
:10CAD000943A002083DE1B4308B50438042814D898
